:020000040800F2
:10000000A05200200D030008273B00081F370008FE
:10001000253B00088D18000841470008000000003B
:100020000000000000000000000000004D02000879
:100030002519000800000000A90200081D41000861
:1000400027030008270300082703000827030008E8
:1000500027030008270300082703000827030008D8
:1000600027030008270300082703000827030008C8
:1000700027030008270300082703000827030008B8
:100080009118000827030008270300082703000829
:100090002703000827030008270300082703000898
:1000A0002703000827030008270300082703000888
:1000B0002703000827030008270300082703000878
:1000C0002703000827030008270300082703000868
:1000D0002703000827030008354700082703000806
:1000E0002703000827030008270300082703000848
:1000F0002703000827030008270300082703000838
:100100002703000827030008270300082703000827
:100110002703000827030008DD4100082703000823
:100120009D1800082703000827030008270300087C
:1001300027030008270300082703000827030008F7
:1001400027030008270300082703000827030008E7
:1001500027030008270300082703000827030008D7
:1001600027030008270300082703000827030008C7
:1001700027030008270300082703000800000000E9
:10018000270300082703000800F002F800F04FF8EA
:100190000AA090E8000C82448344AAF10107DA45E2
:1001A00001D100F044F8AFF2090EBAE80F0013F0E5
:1001B000010F18BFFB1A43F001031847306100001C
:1001C00050610000103A24BF78C878C1FAD85207AD
:1001D00024BF30C830C144BF04680C6070470000C1
:1001E0000023002400250026103A28BF78C1FBD840
:1001F000520728BF30C148BF0B607047662905F021
:10020000A187642900F03481752900F03181002034
:1002100070471FB505F091FF00F0A6FD0400002017
:10022000002105F0FDFEE0601FBD10B510BD00F01F
:100230009BFE1146FFF7EDFF04F0B2FA00F0B9FEA5
:1002400003B4FFF7F2FF03BC00F0BCFE2C4B1968AF
:100250000868B0E8F04F80F30988BFF36F8F4FF064
:10026000000080F311887047000000000848006813
:10027000006880F308884FF0000080F3148862B6AD
:1002800061B6BFF34F8FBFF36F8F00DF00BF00BFBA
:1002900008ED00E0DFF80C00016841F47001016036
:1002A000704700BF88ED00E0EFF30980BFF36F8F68
:1002B000134B1A681EF0100F08BF20ED108A20E9BA
:1002C000F04F106009B44FF0500080F31188BFF375
:1002D0004F8FBFF36F8F05F075F94FF0000080F37B
:1002E000118809BC19680868B0E8F04F1EF0100FBB
:1002F00008BFB0EC108A80F30988BFF36F8F704796
:100300003C000020EFF3058070470000094880475B
:1003100009480047FEE7FEE7FEE7FEE7FEE7FEE7E7
:10032000FEE7FEE7FEE7FEE704480549054A064BFF
:1003300070470000CD41000889010008A04C002052
:10034000A0520020A04E0020A04E002053EA020C34
:1003500000F069802DE9F04B4FF00006002B1FBF25
:10036000B3FA83F503FA05F424FA05F65E4012BFEA
:100370001643B2FA82F502FA05F4C5F120051EBF54
:1003800022FA05FC44EA0C04203556EA044C4FEAF4
:10039000144418BF641C4FF000084FF0000990424D
:1003A00071EB030C39D3002919BFB1FA81F701FAB7
:1003B00007F6B0FA80F700FA07F6C7F120071EBF6C
:1003C00020FA07FC46EA0C062037B6FBF4FCA7EB44
:1003D0000507103F07F01F0BCBF120060CFA0BFBB3
:1003E0002CFA06F644BFB3460026202FA4BF5E4673
:1003F0004FF0000B5BEA060C08BF4FF0010B19EB46
:100400000B09ABFB027C48EB0608C01B06FB02CCC9
:100410000BFB03CC71EB0C01C1E70B4602464146D6
:100420004846BDE8F08B13B54FF000004FF00001D7
:10043000AFF30080BDE81C40704700000FB41CB54E
:100440000C0007AA009001D02044401E074B7B44BB
:1004500069460190069800F044FC002C03D06946E0
:10046000002000F051FC1CBC5DF814FBC10800002A
:100470002DE9F0410646002410687529314616A57D
:1004800010D0AFF30080002802DA404213A507E045
:1004900031688A0701D512A502E0490704D511A5E4
:1004A000012401E0AFF3008000210A2206F12407B5
:1004B00009E0B0FBF2FCB0FBF2F302FB1C003030B1
:1004C00078541846491C0028F3D123462A46304662
:1004D000BDE8F04100F097B9000000002D000000D9
:1004E0002B000000200000002DE9F0474FF0000A2B
:1004F00089460446C0F820A02046E16888470028C5
:1005000076D0252806D0D4E901219047206A401CE6
:100510002062F1E7E168204600258847C4F81CA066
:1005200006460027C4F818A02A2E09D0304604F049
:1005300030F938B304EB8708303EC8F8186019E08A
:1005400059F8041B204604EB87029161E168884753
:10055000012F064618D1E069002820DA25F0200591
:100560001DE0D8F8180000EB800006EB40003038A2
:10057000C8F818002046E1688847064604F009F9E3
:100580000028EED1012F0AD02E2E08D12046E16896
:1005900088477F1C0646022F45F02005C4DBA06972
:1005A000002803DA404245F00105A061E80701D0C8
:1005B00025F01005B6B1A6F14100192802D8203661
:1005C00045F400654A463146204625604D46FFF712
:1005D00015FE58B1012806D0ED1D25F0070000F1E9
:1005E000080989E704E005F1040985E730468AE750
:1005F000206ABDE8F08710B5431C02E010F8011B2B
:1006000071B18107FAD14FF0013202C88C1A8C43C4
:1006100014EAC211F9D0C01A0A0603D0C01E10BDD8
:10062000C01A10BD0A0401D0801E10BD0902FCD002
:10063000401E10BD032A40F2308010F0030C00F081
:10064000158011F8013BBCF1020F624498BF11F80C
:1006500001CB00F8013B38BF11F8013BA2F10402C5
:1006600098BF00F801CB38BF00F8013B11F003033D
:1006700000F02580083AC0F0088051F8043B083AA1
:1006800051F804CBA0E80810F5E7121D5CBF51F843
:10069000043B40F8043BAFF30080D20724BF11F8BD
:1006A000013B11F801CB48BF11F8012B24BF00F822
:1006B000013B00F801CB48BF00F8012B704710B593
:1006C000203AC0F00B80B1E81850203AA0E818504A
:1006D000B1E81850A0E81850BFF4F5AF5FEA027C0B
:1006E00024BFB1E81850A0E8185044BF18C918C07A
:1006F000BDE810405FEA827C24BF51F8043B40F81B
:10070000043B08BF7047D20728BF31F8023B48BFFF
:1007100011F8012B28BF20F8023B48BF00F8012B3D
:10072000704702F0FF0343EA032242EA024200F06C
:10073000FABA4FF0000200B51346944696462039A7
:1007400022BFA0E80C50A0E80C50B1F12001BFF48A
:10075000F7AF090728BFA0E80C5048BF0CC05DF8F0
:1007600004EB890028BF40F8042B08BF704748BF3E
:1007700020F8022B11F0804F18BF00F8012B7047B2
:100780004FF0013C50F8042B51F8043B9A4221D120
:10079000A2EB0C03934313EACC1317D150F8042BAC
:1007A00051F8043B9A4215D1A2EB0C03934313EA90
:1007B000CC130BD150F8042B51F8043B9A4209D1C9
:1007C000A2EB0C03934313EACC13DBD04FF00000F1
:1007D000704700BFD01A01BAB1FA81F101F01801D7
:1007E00022FA01F0CB40C1F12001DBB2C0B2C01A45
:1007F0002CFA01F3D11A914311EAC311E6D17047E3
:100800007047704770472DE9F0470D46994692466C
:10081000044600F124080168880604D5E06921F047
:100820001001216000E00120A84201DD471B00E02B
:100830000027A1697A1902EB0900081AA061207843
:10084000C00602D42046AFF30080002608E0D4E9B9
:1008500001211AF806009047206A401C761C20628D
:100860004E45F4DB2078C0060AD52046AFF3008061
:1008700006E0D4E9012130209047206A401C206224
:10088000381EA7F10107F4DC07E0D4E9012118F8CC
:1008900005009047206A401C2062281EA5F1010532
:1008A000F3DC2046AFF300802078000602D502205A
:1008B000BDE8F0870120FBE770472DE9FF4F0C46AC
:1008C0001E464FF0FF378BB0D2E90001DDF86080A3
:1008D0000A908A46C1F30A5505B93D4600210846EB
:1008E0004FF00000BAF1000F00F4400005DA00EB11
:1008F00080004FF4400101EA50004FEA9059B9F1ED
:10090000010F00DDB9460A9850EA4A000ED044F6BD
:100910001050A5F2FF3545432F14B8F1000F1ED03B
:100920007542291E1EDDC9F100021CE0B8F1010F5D
:100930004FF0000001D0302103E0F24305E02154E4
:10094000401CB042FBDB30460022002121540B99B1
:10095000C1F80880C1E900200FB0BDE8F08FBD1BD1
:100960006D1CDEE74A4600DA694206A800F086FA06
:1009700006AB93E8070003AB83E8070050460A99EB
:1009800000F027FB8DE80700A0F500501F3800900D
:100990000398002D0ADD42F21F014A460844002355
:1009A00003A90390684600F090FD09E0A0F500500F
:1009B0004A461F38002303A90390684600F09AFDB9
:1009C0008DE807000004000C03D04FF0FF30410811
:1009D00000E01046B8F1000F03D000220092154647
:1009E0001EE0751E05D400F0C3F9303262556D1E4D
:1009F000F9D5B3460122084302D000227F1C04E04F
:100A00002078302801D100227F1E002A099784D047
:100A10001DE0112D07DA00F0ABF9303262556D1C84
:100A200050EA0102F5D1084302D00098C8B10EE0A7
:100A30000021681E05E0235C625C63542254401E62
:100A4000491C8142F7DBAB46A81B401E09900020E1
:100A500004F80B000B98099AC0F80880C0E9002B35
:100A60007AE711264FF0000857E72DE9F04F884646
:100A70000446D21D22F0070191B0D1E90001CDE971
:100A80000A0103F05EFE02460B98C00F01D02D2034
:100A900007E02068810701D52B2002E0202101EA30
:100AA000C000032A099001D0072A05DB034641460E
:100AB000204600F0A3F90BE12078800601D5E0691B
:100AC00000E00620B8F1650F814606D0B8F1660F48
:100AD00018D0B8F1670F70D131E00020B9F1110FD3
:100AE000009001DB112301E009F101030AAA01A929
:100AF0000CA8FFF7E2FEDDE90C70002609F1010504
:100B0000834647E001204B4600904FF000470AAA79
:100B100001A90CA8FFF7D1FEDDE90DB00C995D46E7
:100B2000002610B909F101000D18B9EB050003D436
:100B3000C0F1FF3609F10105A5EB09002BE0B9F181
:100B4000010F01DA4FF001090020B9F1110F0090F7
:100B5000484601DD112300E003460AAA01A90CA8BA
:100B6000FFF7ABFEDDE90C704D460026834620788A
:100B700000070AD4AB4500DA5D4601A8012D04DD6B
:100B8000411911F8011C302907D04F4502DA17F13D
:100B9000040F04DA012082460FE06D1EEEE7002FFD
:100BA00002DCED1B3E4403E0781CA84200DD7D1C06
:100BB000B81B00F1010A4FF000472078000703D46A
:100BC000AA4501DB4FF0FF3A0021B7F1004F0DF1CC
:100BD00043088DF8431024D002202B23002F01DA84
:100BE0007F422D230A21021EA0F1010000DC5FB12B
:100BF00097FBF1FC97FBF1F201FB1C7C17460CF113
:100C0000300C08F801CDEEE7A8F10100037021884F
:100C1000090501D5452100E06521A0F1010800F892
:100C2000011C09980FA9A1EB0807FF1D00B10120C5
:100C3000411901EBEA70A1693844081A401EA0610D
:100C40002078C00602D42046AFF30080099828B16E
:100C5000D4E901219047206A401C20622078C00618
:100C600022D52046AFF300801EE0002E04DBB34502
:100C700002DD01A8805D00E03020D4E90121904729
:100C8000206A401C2062761CAAF101005FEA000A7B
:100C90000AD100F069F8C0680168405CD4E901211C
:100CA0009047206A401C2062281EA5F10105DCDC6B
:100CB00007E0D4E9012118F8010B9047206A401C95
:100CC0002062381EA7F10107F3DC2046AFF3008055
:100CD000032011B041E6000001694A1C0261087856
:100CE000704700B58FB0CDE901310021059105496C
:100CF0007944CDE9031011466846FFF7F5FB0FB0C4
:100D000000BD0000E5FFFFFF0A6802F8010B0A6062
:100D10007047D1E900239A4202D2531C0B60107035
:100D200070474FF000020429C0F0128010F0030C4D
:100D30003FF401ADCCF1040CBCF1020F18BF00F878
:100D4000012BA8BF20F8022BA1EB0C01FFF7F3BC8D
:100D50005FEAC17C24BF00F8012B00F8012B48BFDB
:100D600000F8012B7047000000487047604C0020DD
:100D700030B5B0F10A024FEA900E71F100034EEA6D
:100D8000817EB0EB0E0061EB91014FEA101E4EEA3E
:100D9000017E10EB0E0041EB11114FEA102E4EEACE
:100DA000016E10EB0E0041EB11214FEA104E4EEA9E
:100DB000014E10EB0E0041EB1141401841F10001D2
:100DC0004FEAD00040EA41704FEAD10110EB8005B4
:100DD0004FEA810444EA907444EB01046D1944EB3A
:100DE0000404521BA3414FF0000348BF0A3200D550
:100DF00030BD401C41F1000130BD00002DE9F04143
:100E00001F46044603260168072A01F4006004DB3C
:100E100008B116A505E016A503E008B115A500E088
:100E200015A521F010002060A069C01EA0610FB1BF
:100E3000401EA0612046AFF300804FB1D4E90121EC
:100E400038469047206A401C2062C01C206206E0A1
:100E5000206AFAE7D4E9012115F8010B9047761EC4
:100E6000F8D22046AFF30080BDE8F0814E414E003D
:100E70006E616E00494E4600696E66002DE9F047CE
:100E8000814616468AB0354878440DC88DE80D0075
:100E900032487844801C03AC0DC884E80D0041F64C
:100EA0009B300844372190FBF1F290FBF1F5A5F15E
:100EB000800501FB12041B3C02D56442012000E0C6
:100EC0000020DFF898A080460027FA44AAF1BE0A65
:100ED0000EE0E0070AD03246684607EB47010123DF
:100EE0000AEB810100F006FB8DE8070064107F1C0F
:100EF000002CEED1194F7F44AE3F19E0E80715D022
:100F000007EB04100DF1180A90E80E008AE80E00B5
:100F1000C068F04201D1981908903246012306A911
:100F200003A800F0E7FA03AB83E807006D10641C28
:100F3000002DE3D14FF0010332466946B8F1000FAE
:100F400003A802D000F0C1FA01E000F0D3FAC9E929
:100F50000001C9F808200AB0BDE8F0870C54000071
:100F600000487047404C00207546FFF7F9FFAE4639
:100F700005006946534620F00700854618B020B5A5
:100F8000FFF7D2F9BDE820404FF000064FF0000710
:100F90004FF000084FF0000B21F00701AC46ACE821
:100FA000C009ACE8C009ACE8C009ACE8C0098D468E
:100FB000704710B50446AFF300802046BDE81040EE
:100FC000FFF73EB901491820ABBEFEE7260002003C
:100FD00070475FEA400C08BF91F0000F4FEA8C2386
:100FE0004FEAC12243EA51514FEA1C5018BF00F5A5
:100FF000F0404FEA300018BF41F000415FEA6C5CFE
:1010000000F02980BCF1FF3F08BF40F080407047EE
:10101000130C06BF12044FF0100C4FF0000C130E0F
:1010200004BF12020CF1080C130F04BF12010CF1E3
:10103000040C930F04BF92000CF1020CD30F04BFF9
:1010400052000CF1010C11464FF00002A0F11F00FC
:10105000A0EB0C00704711F0004F08BF704731F053
:1010600000413FF4D5AF0B0C06BF09044FF0100C44
:101070004FF0000C0B0E04BF09020CF1080C0B0F13
:1010800004BF09010CF1040C8B0F04BF89000CF1A3
:10109000020CCB0F04BF49000CF1010CCCF1200372
:1010A000A0EB0C0022FA03F302FA0CF241EA03016E
:1010B00000F10100704720F07F4C80EA030023F02C
:1010C0007F47ACEB070303F57C5300F0004003F1CE
:1010D000FF032DE980494FEA154B09B44FEA144349
:1010E00025EA0B4E24EA03480FF2042606EB1327E9
:1010F00049083E785FEA320203FB0667C7F500073E
:1011000007FB06F64FEA54374FEAD64606F10206C9
:1011100007FB066CCCF1005C4FEA1C472CEA074C3D
:1011200007FB06F40CFB06F504EB15464FEA961692
:1011300034BF00204FF000404FEAD13706FB07FCD8
:101140004FEA1C4C0CFB0BF7D21B03FB0CF761EBBB
:1011500007010CFB0EF7B0EB074072EB17420CFBDC
:1011600008F734BFA2EB0742B2EB074261EB17412D
:101170004FEA0C444FEA910706FB07FC4FEA1C4C70
:101180000CFB0BF7B0EBC74072EB573203FB0CF7CD
:1011900034BFA2EBC742B2EBC74261EB57310CFB45
:1011A0000EF7B0EBC70072EB57720CFB08F734BFB9
:1011B000A2EBC702B2EBC70261EB5771039F4FEA84
:1011C000816141EA921104EBCC044FEAD1374FEA36
:1011D000826206FB07FC42EA90124FEA80604FEA07
:1011E0001C4C0CFB0BF7D21B03FB0CF761EB07014C
:1011F0000CFB0EF7B0EB074072EB17420CFB08F745
:1012000034BFA2EB0742B2EB074261EB17414FEA52
:101210008C554FEA910704EB9C2406FB07FC4FEA30
:101220001C4C0CFB0BF7B0EBC74072EB573203FBC7
:101230000CF734BFA2EBC742B2EBC74261EB5731A8
:101240000CFB0EF7B0EBC70072EB57720CFB08F704
:1012500034BFA2EBC702B2EBC70261EB577115EBCB
:101260004C254FEA816141EA92114FEA82624FEACE
:10127000D13742EA901206FB07FC44F100044FEA22
:1012800080604FEA1C4C0CFB0BF7D21B03FB0CF7E6
:1012900061EB07010CFB0EF7B0EB074072EB174256
:1012A0000CFB08F734BFA2EB0742B2EB074261EB3D
:1012B000174115EB1C154FEA813141EA92414FEA83
:1012C000823242EA90424FEA80304FEA0C7644F193
:1012D000000448EA03434EEA0B484FF0000EB2EB1D
:1012E000080C71EB030724BF624639464EEB0E0E25
:1012F0004FF0000B0018524149414BEB0B0BB2EB86
:10130000080C71EB03077BF1000B24BF62463946E2
:101310004EEB0E0E4FF0000B0018524149414BEBC3
:101320000B0BB2EB080C71EB03077BF1000B24BF36
:10133000624639464EEB0E0E51EA020718BF46F0E0
:10134000010616EB0E7655F1000254F1000103D5AB
:10135000BDE88901BDE80088BDE88901BDE8004815
:10136000B619524141EB0101A3F10103704780809E
:101370007F7E7D7C7B7A79787776767574737271EF
:1013800071706F6E6E6D6C6C6B6A6A6968686766A7
:1013900066656464636362616160605F5F5E5E5D39
:1013A0005D5C5C5B5B5A5A595958585757565655AD
:1013B00055555454535352525251515050504F4F0F
:1013C0004F4E4E4D4D4D4C4C4C4B4B4B4A4A4A495F
:1013D00049494848484747474746464645454544A2
:1013E0004444444343434342424242414141002B2F
:1013F0009C4630D477002BD01CB54FEA370703B496
:101400004FF010004FF01001BAF1000F06D0BCF100
:10141000000FDCBF40F0080040F008014FF0000072
:101420000FBCBDE810400BF1010BBBF1010F08BF71
:101430005FEA170722BF12F1010211F101014FF01B
:10144000004143F1000300F0004043EA0000704710
:10145000F9D35708D0E746EA064613F1400F4FEAA2
:1014600016461FDD13F1200FDFBF16430A46002189
:1014700020335B42BED0C3F1200746EA064602FA9B
:1014800007F74FEA164646EA0706C3F1200722FA95
:1014900003F201FA07F721FA03F14FF0000342EAE1
:1014A0000702A7E746EA020646EA06464FEA16465C
:1014B00046EA0106BCBF46EA0646360C4FF000037A
:1014C0004FF000024FF0000194E72DE9804C9A465E
:1014D000934670B491E8380007C831EA400C48BF21
:1014E00034EA430C03D5FFF7E6FDFFF780FFF0BCBD
:1014F000BDE8008C2DE9804C9A46934670B491E883
:10150000380007C810F0804F08BF13F0804F03D198
:1015100000F005F8FFF76BFFF0BCBDE8008C20F091
:101520007F4780EA030023F07F4C07EB0C03A3F511
:101530007C5300F00040A3F1FE0392F0000F00F096
:10154000B38095F0000F00F077802DE901494FEA54
:1015500011404FEA144621EA004800FB06FC24EA49
:10156000064708FB06F607FB08F800FB07F718EB31
:1015700006484CEB164C4FEA124B18EB07484FEA63
:1015800015464CEB174022EA0B4E0BFB06FC25EAF6
:1015900006470EFB06F607FB0EFE0BFB07F71EEBDE
:1015A000064E4CEB164C4FF000061EEB074E4CEB74
:1015B000174B18EB0B0840F1000018EB0E0B58EB23
:1015C000000840F100008F1A4FF000013CBFC943F2
:1015D000661B14BFB5EB040C00213CBFC943F61BCE
:1015E0004FEA17444EEA8E0E27EA04454FEA1C479D
:1015F00004FB07622CEA074C05FB07F70CFB05F61A
:1016000004FB0CFC16EB074642EB174216EB0C46AC
:1016100042EB1C421BEB060658EB0202414146EA34
:101620009E0601D5BDE80189B619524141EB010181
:10163000A3F10103BDE801894FEA14454FEA1147C0
:1016400024EA054621EA074C05FB07F406FB07F7E9
:101650000CFB06F105FB0CFC11EB074144EB1744B6
:101660004FEA124711EB0C4144EB1C4422EA074CB1
:1016700005FB07F206FB07F70CFB06F605FB0CFC67
:1016800016EB074642EB174216EB0C4642EB1C45A5
:101690006A1854F1000148BF7047B619524141EB36
:1016A0000101A3F10103704795F0000F37D04FEA15
:1016B00011424FEA144721EA024624EA074C02FB92
:1016C00007F106FB07F70CFB06F402FB0CFC14EB1E
:1016D000074441EB17414FEA154714EB0C4441EB2B
:1016E0001C4125EA074C02FB07F506FB07F70CFB3C
:1016F00006F602FB0CFC16EB074645EB174516EB0E
:101700000C4645EB1C42121951F1000148BF7047CD
:10171000B619524141EB0101A3F1010370474FEAB1
:1017200014454FEA114724EA054621EA074C05FB18
:1017300007F106FB07F70CFB06F24FF0000605FB6E
:101740000CFC12EB074241EB174112EB0C4251EB40
:101750001C4148BF7047921841EB0101A3F10103FE
:1017600070470000464910B54A6822F440324A608A
:101770004A6843681A434A6001684A6822F48072E2
:101780004A6001684A68036942EA03224A600168C4
:101790004A6822F040724A6001684A6883681A43C6
:1017A0004A6001688A6822F400628A6001688A6877
:1017B000C3681A438A60816A6FF07062D14201681F
:1017C0008A6822F070628A6001688A680CD0836A35
:1017D0001A438A6001688A6822F040528A60016870
:1017E0008A68C36A1A4301E022F040528A600168A5
:1017F0008A6822F002028A6001688A68037E42EAEF
:1018000043028A6090F82010002901684A680FD0CE
:1018100042F400624A6001684A6822F460424A6009
:1018200001684A68174C436A04EB43331A4301E0EA
:1018300022F400624A600168CA6A22F47002CA6235
:101840000168CA6A838B104C04EB03531A43CA62C3
:1018500001688A6822F400728A6001688A6890F8D8
:10186000303042EA43228A6001688A6822F480624A
:101870008A6001688A68406942EA8020886010BDF9
:101880000023014000E0FFFF0000F0FFFEE7000042
:10189000014800F09DBA0000C4020020014800F099
:1018A00097BA00001001002001681823CAB2103A4C
:1018B000B2FBF3F2054B6FF30901032A9B5CC3658E
:1018C00000D9091D8165084670470000FC610008C9
:1018D00010B5014600208B698A6A4FF0C07453B17D
:1018E000B3F5005F15D072B1012A0CD0022A0AD0DC
:1018F000032A09D104E01AB1012A06D0022A03D131
:10190000C96AC90100D5012010BDC96AA142FAD037
:1019100010BD002AF7D0012AF2D0022AF3D0032A00
:10192000F3D010BD704772B6FEE7000078B5002412
:10193000009490F83C20012A19D0012280F83C2024
:101940000A6807230568092A13D9EE680A3A02EBE8
:10195000420293409E43EE600B788A680A3B03EB99
:1019600043039A400368DD682A43DA6010E00220EE
:1019700078BD2E6902EB420293409E432E610B78A4
:101980008A6803EB43039A4003681D692A431A617E
:101990004A681F23072A13D205686E6B521E02EB9A
:1019A000820293409E436E630B790A885B1E92B25B
:1019B00003EB83039A4003685D6B2A435A6327E075
:1019C00005680D2A12D22E6BD21F02EB82029340C1
:1019D0009E432E630B790A88DB1F92B203EB8303CD
:1019E0009A4003681D6B2A431A6311E0EE6A0D3AB0
:1019F00002EB820293409E43EE620B790A880D3B14
:101A000092B203EB83039A400368DD6A2A43DA62E9
:101A1000164B0568144A9D4206D10D68122D03D15C
:101A2000556845F48005556005689D4218D10B68DE
:101A3000102B01D0112B13D1536843F400035360D2
:101A4000096810290CD10A490A4A0968B1FBF2F168
:101A500001EB8101490000E0491E00910029FBD102
:101A600080F83C40002078BD002301400020014068
:101A70003800002040420F0070B504004FF0000510
:101A800003D0206C002610B107E0012070BD204675
:101A900000F01CF8666484F83C60206CC00610D42A
:101AA000206C20F4885040F0020020642046FFF7AC
:101AB00059FE6664206C20F0020040F001002064B2
:101AC00000E0012584F83C60284670BDF0B587B081
:101AD000064614216846FEF72CFE274930688842E6
:101AE00048D126480025016841F4807101600068F2
:101AF000224900F4807014390590086840F0040011
:101B00000860086800F004000590086840F00100D3
:101B100008600868032700F0010005900820CDE95F
:101B2000000769460295164800F08CFA1120CDE9AD
:101B3000000769460295134800F084FA134C1248D6
:101B4000C4E900050015A560C4E9035040006061C8
:101B50008000A0614011C4E9070504206062C4E967
:101B60000A752046256300F003FA08B1FFF7DBFE93
:101B7000B463A66307B0F0BD0020014044380240C2
:101B800000080240000002401064024010010020E2
:101B900070B5040003D094F8200010B104E00120D7
:101BA00070BD204600F082F82068016841F0010114
:101BB000016000F045FB0546052604E000F040FB0F
:101BC000401B0A2811D820684068C007F6D020685A
:101BD000016821F00201016000F032FB05460BE0D4
:101BE00000F02EFB401B0A2806D9606A40F4003042
:101BF000606284F82060D2E7206840688007EFD4F4
:101C0000207E0128206801683DD021F0800101601C
:101C1000607E01282068016838D021F04001016011
:101C2000A07E01282068016833D021F020010160E6
:101C3000E07E0128206801682ED041F0100101608B
:101C4000207F01282068016829D021F00801016067
:101C5000607F01282068016824D021F00401016020
:101C6000D4E902010843D4E904121143084361682E
:101C7000491E08432168C86100206062012084F881
:101C80002000002070BD41F08001C0E741F040011C
:101C9000C5E741F02001CAE721F01001CFE741F08C
:101CA0000801D4E741F00401D9E7000010B586B07F
:101CB000044614216846FEF73CFD1449206888421A
:101CC00021D113480021026842F0007202600068CE
:101CD00000F0007005900E481038026842F00202D1
:101CE0000260006800F0020005904FF44070009020
:101CF0000220CDE9010103200390092004906946E8
:101D0000044800F09FF906B010BD000000640040D8
:101D100040380240000402402DE9F0410446876D3E
:101D200000F08EFA064694F835000025022806D009
:101D30008020606584F834500120BDE8F08120687F
:101D4000016821F0160101602068416921F08001DD
:101D50004161206C08B9A06C20B12068016821F0B5
:101D6000080101602068016821F0010101600CE0B8
:101D700000F066FA801B052807D920206065032043
:101D800084F8350084F83450D7E720680068C0072D
:101D9000EED194F85C103F208840B860012084F8B0
:101DA000350084F834500020C7E790F83510022938
:101DB00003D08021416501207047052180F835104E
:101DC0000068016821F001010160002070470000F7
:101DD0002DE9F84304464FF00009CDF80090634820
:101DE0004FF41651A56D0068B0FBF1F72E6894F81A
:101DF0005C10082000FA01F131420FD021680A6816
:101E000052070BD50A6822F004020A6094F85C10AD
:101E10008840A860606D40F00100606594F85C1037
:101E20004FF0010808FA01F0304208D021684969F2
:101E3000090604D5A860606D40F00200606594F862
:101E40005C1004208840304208D021680968890766
:101E500004D5A860606D40F00400606594F85C10E3
:101E600010208840304218D021680968090714D52D
:101E7000A86020680168490304D50068000308D5FC
:101E8000A16C07E00168C90503D4016821F00801CD
:101E90000160216C09B12046884794F85C1020202D
:101EA0008840304231D021680968C9062DD5A86024
:101EB00094F8350005282068016806D0490347D505
:101EC000006800031DD4616C1CE021F01601016064
:101ED0002068416921F080014161206C08B9A06C43
:101EE00020B12068016821F00801016094F85C10BD
:101EF0003F208840A86084F8358084F83490216DB4
:101F00001FE0E16B09B120468847606D00282BD0A7
:101F1000606DC00714D0052084F835002068016882
:101F200021F0010101600098401C0090B84203D8E4
:101F300020680068C007F6D184F8358084F83490B2
:101F4000E16C002910D001B02046BDE8F0430847FD
:101F50000168C905D5D4016821F01001016084F839
:101F6000358084F83490CCE7BDE8F8833800002051
:101F70002DE9F041044600F063F906465CB1022009
:101F800084F83500002584F834502068016821F079
:101F9000010101600DE00120BDE8F08100F050F981
:101FA000801B052805D920206065032084F83500B2
:101FB000F2E720680068C007F0D122681168204865
:101FC0000140D4E901031843D4E9033633431843ED
:101FD00063691843A3691843E3691843236A1843E4
:101FE0000843616A042903D1D4E90B131943084358
:101FF000106020684069666A20F0070130460E4391
:10200000012704280CD1A06A0643E06A40B12046AB
:10201000FFF75EFC20B14020606584F83570BAE7B8
:10202000206846612046FFF73FFC94F85C203F2182
:1020300091408160656584F835700020ACE7000050
:102040003F8010F02DE9F84FDFF8BCA100220125F8
:1020500003264FF00F090AF1040BAAF1040E00BF8A
:102060000B6805FA02F42340A34270D10F7907F000
:102070000307012F01D0022F16D187684FEA4208CB
:1020800006FA08FC27EA0C07D1F80CC00CFA08FC89
:102090004CEA070CC0F808C04768A7430C79C4F3A2
:1020A000001494403C4344600C79E443A4070AD0F4
:1020B000C4684FEA420C06FA0CF7BC438F6807FA73
:1020C0000CF72743C7600C7904F00304022C12D1EB
:1020D000D40800EB840CDCF820405707FF0E09FA07
:1020E00007F824EA0804D1F8108008FA07F848EA4B
:1020F0000408CCF8208004684FEA420C06FA0CF77A
:10210000BC430F7907F0030707FA0CF72743076072
:102110004C6814F4403F70D03C4C276847F480472B
:102120002760246822F0030704F480440094384CAC
:1021300007EB040CDCF8084897074FEA177809FA10
:1021400008F7BC43334FB84202D1002724E054E0E3
:10215000314FB84201D101271EE0304FB84201D1C2
:10216000022719E02E4FB84201D1032714E02D4F6A
:10217000B84201D104270FE02B4FB84201D1052707
:102180000AE02A4FB84201D1062705E0284FB8429D
:1021900001D1072700E0082707FA08F72743CCF802
:1021A0000878DAF800405746D1F804C09C435FEA4B
:1021B000CC2C00D51C433C60DBF800405F46D1F8D6
:1021C00004C09C435FEA8C2C00D51C433C60DEF8C5
:1021D00000407746D1F804C09C435FEA8C3C00D5B0
:1021E0001C433C60084F083F3C68D1F804C09C4346
:1021F0005FEACC3C00D51C433C60521C102AFFF423
:102200002FAFBDE8F88F0000083C01404438024081
:10221000003001400000024000040240000802407B
:10222000000C02400010024000140240001802405E
:10223000001C02400AB1816170470904FBE70000FD
:1022400001488068704700002C00002070B5040031
:1022500025D094F83D00002520B984F83C50204654
:1022600000F0B8F8242084F83D002068016821F0CF
:10227000010101602068016841F4004101602068AB
:10228000016821F40041016000F05CFA4D4A616888
:10229000914201D84C4900E04C49884201D20120CA
:1022A00070BD4B492368B0FBF1F15E6826F03F0634
:1022B0000E435E606368934206D94FF496735943A8
:1022C0004FF47A73B1FBF3F12368491C1E6A26F0C0
:1022D0003F06314319626168914210D84900401E9F
:1022E000B0FBF1F2521CC2F30B02042A01D204200B
:1022F00022E0B0FBF1F0401CC0F30B001CE0A26830
:10230000F2B301EBC10303EB0116431EB3FBF6F37B
:102310005B1C43F480431B0549D092B301EBC1021F
:1023200002EB0111401EB0FBF1F0401CC0F30B00AA
:1023300040F4804040F400402168CA694CF6FF73C5
:102340009A431043C861D4E907100143206802682A
:1023500022F0C00211430160D4E903010143206867
:10236000826848F2FF339A4311438160D4E9050142
:1023700008432168CA6822F0FF021043C86001E0E8
:102380000EE016E02068016841F00101016025645B
:10239000202084F83D00256384F83E50002070BD65
:1023A00001EB4106431EB3FBF6F35B1CB3E70120D0
:1023B000C2E701EB4101401EB0FBF1F0401CC0F34D
:1023C0000B00B7E7A086010080841E0000093D00D5
:1023D00040420F0010B586B0044614216846FEF74F
:1023E000A8F913492068884220D1124800210268C8
:1023F00042F002020260006800F002000590C02076
:1024000000901220CDE901010320039004200490E4
:1024100069460948FFF716FE06481030016841F486
:1024200000110160006800F40010059006B010BDB6
:1024300000540040303802400004024002488168E5
:1024400002781144816070472C0000200B4810B5C1
:10245000016841F400710160016841F4806101602C
:10246000016841F480710160032000F09FF80F20A3
:1024700000F006F800F050F8002010BD003C0240CB
:1024800030B505461F4887B00024016841F01001AF
:102490000160006806A900F01000009001A800F09B
:1024A00031F90498A8B100F04DF940001649174AD7
:1024B000B0FBF1F11648491E026040F2E732C0E974
:1024C0000324C0E90114846100F0B8FB040003D0C8
:1024D00015E000F037F9E9E70D4800F0DDFB0400F6
:1024E0000DD1362000F034F8102D07D200222946F5
:1024F000362000F03BF80748056000E0012407B0F3
:10250000204630BD4038024040420F0000100040DD
:1025100024030020300000200C4882B0016841F400
:1025200080410160006800F4804000900748001F6F
:10253000016841F0805101600068002200F0805085
:1025400000900F21901E02B000F010B844380240F5
:10255000002809DB00F01F020121914040098000A2
:1025600000F1E020C0F8001170470000F0B40E4BFD
:102570001B680C46C3F30223C3F10705042D00D9E1
:102580000425191D072901D2002300E0DB1E0126C6
:1025900006FA05F1491E214099409E40761E1640DC
:1025A0003143F0BC02F0E5B80CED00E0064900F064
:1025B000070208684FF6FF03184040EA0220034A6A
:1025C00010430860704700000CED00E00000FA05C1
:1025D0002DE9F0470E46050065D0DFF81481D8F8E4
:1025E0000000F7B200F00700B04207D288F8007090
:1025F000D8F8000000F00700B04254D128683D4CE4
:10260000810712D5400703D5206840F4E0502060D0
:102610002878000703D5206840F4604020602068D7
:10262000A96820F0F000084320602878C0072DD06A
:10263000304968680839012812D0022813D00328CD
:1026400011D00968890700292DDA216821F00301DA
:1026500001432160FFF7F4FD814641F2883A0EE024
:1026600009688903EFE709688901ECE7FFF7E8FDEE
:10267000A0EB0901514502D90320BDE8F08720688D
:10268000696800F00C00B0EB810FEFD1D8F80010B2
:10269000404601F00701B14207D90770006800F019
:1026A0000700B04201D00120E7E72878400705D5B0
:1026B0002068E96820F4E05008432060287800078B
:1026C00006D52068296920F4604040EAC1002060F6
:1026D00000F058F82168084AC1F30311515CC84062
:1026E0000649086006480068FFF7CAFE0020C4E7F4
:1026F000003C024008380240046200083800002014
:10270000300000200F2202600C4A136803F003031C
:102710004360136803F0F0038360136803F4E0532D
:10272000C36012684FF4E05303EAD2020261044826
:10273000006800F007000860704700000838024099
:10274000003C02400448054900680968044AC1F396
:102750008221515CC8407047380000200838024090
:10276000146200080448054900680968044AC1F376
:102770004231515CC84070473800002008380240A0
:1027800014620008154810B5006810F00C021448D7
:1027900013D01449042A0FD0082A0ED10F4C241F3D
:1027A0002268236802F03F025B0207D52068C0F36D
:1027B0008810A0FB010106E0084610BD2168C1F3A6
:1027C0008811A1FB00010023FDF7C0FD2168C1F3C2
:1027D0000141491C4900B0FBF1F010BD083802402E
:1027E0000024F40040787D012DE9F84F04006ED0FC
:1027F0002078DFF84C93C007A9F104054AD009F10D
:1028000004000168C1F38101012908D00068C0F308
:10281000810002280AD1D9F80000400206D52868B4
:10282000800337D560680028E1D033E06068B0F5F8
:10283000803F10D0B0F5A02F286810D020F4803051
:102840002860286820F4802028606068A8B1FFF71D
:10285000F7FC06460DE0286840F48030F4E740F4C9
:1028600080202860F7E700BFFFF7EAFC801B6428A0
:1028700073D828688003F7D50CE0FFF7E1FC064623
:1028800005E000BFFFF7DCFC801B6428F0D8286857
:102890008003F7D42078DFF8AC8280074FF0000A7D
:1028A0003ED5A748001D016811F00C0F08D0006844
:1028B000C0F3810002280BD1D9F80000400207D4F0
:1028C0002868800716D5E068012800D112E033E1BE
:1028D000E068B8B10120C8F80000FFF7B1FC064677
:1028E00005E000BFFFF7ACFC801B0228C0D82868B9
:1028F0008007F7D52868216920F0F80040EAC10078
:1029000028600DE0C8F800A0FFF79AFC064604E036
:10291000FFF796FC801B02281FD828688007F7D491
:102920002078000722D5864F87486169703771B1DA
:1029300001210160FFF784FC064604E0FFF780FCFC
:10294000801B022809D838688007F7D50EE0C0F848
:1029500000A0FFF775FC064605E082E0FFF770FC7B
:10296000801B02287DD838688007F7D4207840077C
:1029700068D5DFF8CCB100270BF13C0BDBF8000089
:10298000C0000BD4DBF8001041F08051CBF80010F0
:10299000DBF80000012700F0805000906B4E30689B
:1029A000C00510D4306840F480703060FFF748FCF8
:1029B000009005E0FFF744FC0099401A022850D827
:1029C0003068C005F6D55E4EA0686C3601280FD081
:1029D0000528306810D020F001003060306820F009
:1029E00004003060A068B8B1FFF72AFC00900FE047
:1029F000306840F00100F4E740F004003060F7E791
:102A0000FFF71EFC0099411A41F28830814266D8D6
:102A100030688007F4D50EE0FFF712FC009007E065
:102A2000FFF70EFC0099411A41F28830814256D8D6
:102A300030688007F4D42FB1DBF8001021F080510A
:102A4000CBF80010A069C8B33D49091D0968C1F35E
:102A5000810102294AD00228504607D0C8F86000F8
:102A600000E03CE0FFF7ECFB04463BE04746C8F8DB
:102A70006000FFF7E5FB064605E000BFFFF7E0FB5F
:102A8000801B02282BD828688001F7D4D4E90701DD
:102A90000843A16A2E4A490802EB0141626A41EAF1
:102AA0008211084394F82C1040EA0161C9F8001023
:102AB00001203866FFF7C4FB044606E03EE000BF95
:102AC000FFF7BEFB001B022809D828688001F7D554
:102AD00034E000BFFFF7B4FB001B022802D903203B
:102AE000BDE8F88F28688001F4D427E00128F7D0EA
:102AF000D9F80000E26900F4800191421CD1226AF9
:102B000000F03F01914217D147F6C071626A01405F
:102B1000B1EB821F10D1A26A4FF0FF3300F44031B5
:102B200003EB5202B1EB024F06D194F82C1000F0E7
:102B30007060B0EB016F01D00120D1E70020CFE73A
:102B40000438024000004742800E474200700040B7
:102B50000000FFFF7047704710B590F83C20012A35
:102B600022D0012280F83C20CA688C6822F440728E
:102B700022434C6822F4806222430C6822F40062F3
:102B800022430C6922F4805222434C6922F4005201
:102B90002243C969002322F480420A4301684A643F
:102BA00080F83C30002010BD022010BD70B590F8B8
:102BB0003C20012A32D0012480F83C40022280F8D7
:102BC0003D2003685A689D6822F070060A68324307
:102BD0005A60134B02689A4214D0B2F1804F11D060
:102BE000104B9A420ED0104B9A420BD00F4B9A4288
:102BF00008D00F4B9A4205D00E4B9A4202D00E4B92
:102C00009A4204D1496825F080031943916080F805
:102C10003D40002180F83C10084670BD022070BD88
:102C2000000001400004004000080040000C00408B
:102C300000040140004001400018004010B50400AD
:102C400003D094F83D0010B107E0012010BD002032
:102C500084F83C00204600F01EF8022084F83D0075
:102C6000211D206801F0C0FA012084F8460084F894
:102C70003E0084F83F0084F8400084F8410084F866
:102C8000420084F8430084F8440084F8450084F846
:102C90003D00002010BD704790F83D10012901D083
:102CA00001207047022180F83D100168CA6842F097
:102CB0000102CA6000681149884214D0B0F1804F07
:102CC00011D00F4988420ED00E4988420BD00E49D0
:102CD000884208D00D49884205D00D49884202D06B
:102CE0000C49884204D1816801F00701062903D00C
:102CF000016841F0010101600020704700000140BF
:102D00000004004000080040000C004000040140A6
:102D100000400140001800402DE9F0410D4604003C
:102D200003D094F83D0018B108E00120BDE8F0811F
:102D3000002084F83C00204600F040F8022084F88F
:102D40003D002068816844F2070291438160211DA3
:102D5000206801F049FA226890689169166A2B6828
:102D6000AF69034340F20330814341EA0721A86879
:102D7000EF6908434FF6FC418843E96840EA0720C1
:102D8000014328692F6A000140EA07300843696857
:102D90006D6926F0AA0646EA051529439360226864
:102DA000906154F8460B0162012004F81F09E07598
:102DB0002076E0762077A0750020B7E710B586B0C2
:102DC000044614216846FDF7B4FC12492068884285
:102DD0001ED111480021026842F002020260006820
:102DE00000F0020005900C481038026842F004021E
:102DF0000260006800F004000590C02000900220EE
:102E0000CDE901010390049069460448FFF71AF9DF
:102E100006B010BD000400404038024000080240E7
:102E200070B590F83E60044690F83F5090F84230FC
:102E300090F84320022021B104290ED0012E1BD18D
:102E400014E0012E18D1012B16D184F83E0084F82D
:102E5000420001220021206820E0012D0CD1012A2E
:102E60000AD184F83F0084F8430014E0012D03D117
:102E7000012B01D1012A01D0012070BD84F83E0050
:102E800084F83F0084F8420084F8430001220021C6
:102E9000206801F015FA01220421206801F010FADF
:102EA0002068016841F001010160002070BD704799
:102EB0002DE9F04104460068C66805694FF0000737
:102EC000A90713D5B10711D5F91E0161012020779B
:102ED000206880698007204602D0FFF7E8FF04E001
:102EE00000F0A8F8204600F04DF92777680716D5BE
:102EF000700714D521686FF0040008610220207764
:102F00002068806910F4407F204602D0FFF7CFFF91
:102F100004E000F08FF8204600F034F92777280706
:102F200015D5300713D521686FF00800086104201B
:102F300020772068C0698007204602D0FFF7B7FFDE
:102F400004E000F077F8204600F01CF92777E80647
:102F500016D5F00614D521686FF01000086108201E
:102F600020772068C06910F4407F204602D0FFF728
:102F70009EFF04E000F05EF8204600F003F927779A
:102F8000E80708D0F00706D021686FF0010008615B
:102F9000204600F05DF9280608D5300606D52168E0
:102FA0006FF0800008612046FFF7D4FD680608D561
:102FB000700606D521686FF040000861204600F0D9
:102FC00051F9A8060AD5B00608D521686FF020008F
:102FD00008612046BDE8F041FFF7BDBDBDE8F081C6
:102FE00010B586B0044614216846FDF7A2FB0E49D1
:102FF0002068884216D10D480021026842F0010283
:103000000260006800F0010005904FF440700090ED
:103010000220CDE901010120CDE9031069460448F1
:10302000FFF710F806B010BD000001403038024034
:1030300000000240704770B5044690F83C0000263E
:103040000D4601280FD0012084F83C006AB1042A03
:103050001DD0082A2FD00C2A3FD00126002084F84A
:103060003C00304670BD022070BD206801F036F98A
:103070002068816941F0080181612068816921F03F
:1030800004018161206881692A69114311E0206887
:1030900001F054F92068816941F400618161206880
:1030A000816921F480618161206881692A6941EA2E
:1030B00002218161D2E7206801F076F92068C169B8
:1030C00041F00801C1612068C16921F00401C161BA
:1030D0002068C1692A69114311E0206801F098F95C
:1030E0002068C16941F40061C1612068C16921F4AF
:1030F0008061C1612068C1692A6941EA0221C16118
:10310000ACE710B5040003D094F83D0010B107E01F
:10311000012010BD002084F83C00204600F01EF87D
:10312000022084F83D00211D206801F05DF8012097
:1031300084F8460084F83E0084F83F0084F840009C
:1031400084F8410084F8420084F8430084F8440085
:1031500084F8450084F83D00002010BD08B50068E3
:103160000649884208D10648016841F00101016022
:10317000006800F00100009008BD00000000014060
:10318000443802407047000010B50446022249B19D
:1031900004290ED0082913D094F84100012816D034
:1031A000012010BD94F83E000128F9D184F83E209A
:1031B0000FE094F83F000128F2D184F83F2008E0A6
:1031C00094F840000128EBD184F8402001E084F815
:1031D00041200122206801F073F816492068164A40
:1031E000884201D0904203D1436C43F400434364CE
:1031F0002068884213D0B0F1804F10D00F49884228
:103200000DD00F4988420AD00E49884207D090421B
:1032100005D00D49884202D00C49884204D181680A
:1032200001F00701062903D0016841F001010160A6
:10323000002010BD000001400004014000040040D7
:1032400000080040000C0040004001400018004011
:1032500000680349884201D1FFF7F0B870470000C9
:10326000001000407047704770470000F8B50168D3
:1032700004460868CA684B6910F00F0F4FF000054C
:1032800059D003F0010602F49077374365D0C107A7
:1032900005D0D10503D5616C41F00101616441079E
:1032A00005D5D90703D0616C41F002016164810743
:1032B00005D5D90703D0616C41F0040161640107B1
:1032C00007D502F02001314303D0616C41F00801C1
:1032D0006164616C00293AD0800604D5900602D55D
:1032E000204601F0ECF820684069616CC0F3801062
:1032F000090700D460B3204601F0BAF8206840699D
:10330000400621D52068143050E8001F21F040010C
:1033100040E80012002AF5D1E06BA8B16E490165C2
:10332000E06BFEF742FD002811D0E06B016D01B0AB
:10333000BDE8F040084783060FD593060DD520461B
:10334000BDE8F84001F0BBB82046FFF78DFFF8BD9F
:103350002046FFF789FF6564F8BD266B2023012E08
:103360007DD1C6067BD5D60679D508684868009019
:1033700048694FF00206400641D5E16B0868406895
:103380000004000CE8D0A28D8242E5D9E085C8692E
:10339000B0F5807F2DD020680C3050E8001F21F45C
:1033A000807140E80012002AF5D12068143050E8FE
:1033B000001F21F0010140E80012002AF5D1206829
:1033C000143050E8001F21F0400140E80012002AAC
:1033D000F5D184F84230256320680C3050E8001F96
:1033E00021F0100140E80012002AF5D1E06BFEF751
:1033F00093FC6663A08DE18D401A81B22AE0A08D16
:10340000E18D401A81B2E08D0028A5D00029A3D01B
:1034100022680C3252E8000F20F4907042E8000756
:10342000002FF5D12068143050E8002F22F001025F
:1034300040E80027002FF5D184F84230256320684A
:103440000C3050E8002F22F0100240E80023002B3F
:10345000F5D166632046FFF706FFF8BDFFE70506D6
:103460002BD5150629D594F841002128F5D1A0685F
:10347000B0F5805F01D12069B0B1206A411C2162A2
:10348000216800784860E08C401E0004000CE08455
:10349000E3D12068C16821F08001C1602068C16863
:1034A00041F04001C160D8E7206A0088C0F30800FD
:1034B0004860206A801C2062E5E74006CDD55006B2
:1034C000CBD5CA68204622F04002CA6084F8413059
:1034D00000F024F9C1E700006144000870B5040061
:1034E00004D094F84100002510B106E0012070BD21
:1034F00084F84050204600F023F8242084F841004E
:103500002068C16821F40051C160204601F038F8FC
:103510002068016921F4904101612068416921F02E
:103520002A0141612068C16841F40051C1606564AD
:10353000202084F8410084F842006563002070BDBB
:1035400070B586B0064614216846FDF7F2F82349A7
:103550003068884240D122480025016841F400319A
:103560000160006800F4003005901D4810380168C3
:1035700041F0010101600068694600F0010005901A
:103580000C2000900220CDE90105032003900720C4
:1035900004901448FEF756FD144C134820604FF079
:1035A0000060C4E901054014C4E90350801065615E
:1035B000C4E90650256220466562FEF7D9FC08B1D1
:1035C000FEF7B1F9F463002205212620A663FEF779
:1035D000CDFF2620FEF7BCFF06B070BD00440040C2
:1035E000403802400000024088600240C4020020CF
:1035F00090F84230202B01D00220704721B11AB13F
:103600000023036301F042B80120704770B50068E1
:103610001449884224D1144C217820460025134EA9
:1036200040790D2909D021780A2906D009280CD221
:1036300021783154401C60710BE035540CA10B48CB
:10364000FDF79EF808B901206070657135607560FE
:103650003581BDE87040012203490748FFF7C8BF24
:1036600070BD00000044004000000020BC000020AD
:10367000434C4541520000007C0200202DE9F843F4
:10368000044690F84100984616460D46202802D080
:103690000220BDE8F88385B17EB10020606421205E
:1036A00084F84100FEF7CCFDA6848146E684A0683C
:1036B0002027B0F5805F02D003E00120E9E7206910
:1036C00010B12E4600250EE000260CE08021204699
:1036D00000F0F7FFA8B9C6B116F8010B21684860E1
:1036E000E08C401EE084E08C4B464FF00002CDF8A9
:1036F00000800028EAD14FF04001204600F0E1FFB1
:1037000040B184F841700320C3E735F8020BC0F3E1
:103710000800E3E784F841700020BAE77047FEE74D
:103720007FB5002520480095019502951D49039518
:10373000016001244FF480310461C0E90115047671
:1037400080F820501949C0E90A150326C661C560F2
:1037500080F830404461FEF78FF908B1FEF7E3F8D6
:10376000CDE90054042469460F480294FEF7DEF8C0
:1037700008B1FEF7D8F80D200090022001906946AC
:103780000948FEF7D3F808B1FEF7CDF8CDE90046B9
:1037900069460548FEF7CAF8002801D0FEF7C3F8CD
:1037A0007FBD000000200140C80000200100000F84
:1037B0000F4810B50D4901600621416000214FF40A
:1037C000C0228160C0E903124FF4A0024261017679
:1037D00041768176C17601774177FEF7D9F90028E5
:1037E00003D0BDE81040FEF79EB810BD0064004055
:1037F00070010020114808B5016841F480010160A2
:10380000016801F480010091016841F40011016038
:103810000068002200F40010009005211020FEF73F
:10382000A5FE1020FEF794FE002205213820FEF7A9
:103830009DFEBDE808403820FEF78ABE30380240C1
:1038400010B5124A0021124801F040F8114C0F4AFD
:103850000021A0612432104801F038F80B4AE061E1
:10386000483200210D4801F031F8084A20626C32DC
:1038700000210B4801F02AF8044A606290320021CE
:10388000084801F023F8A06210BD0000486100085C
:103890003D3E00080000002015410008293B0008BB
:1038A000353C00082D3C00082DE9F04387B0142179
:1038B0006846FCF73EFF32480024016841F01001E1
:1038C0000160016801F010010591016841F00401F7
:1038D0000160016801F004010591016841F0800177
:1038E0000160016801F080010591016841F001016A
:1038F0000160016801F001010591016841F00201D8
:10390000016000681F4F00F0020005900022302186
:103910003846FEF78FFCDFF870804FF40056002227
:1039200031464046FEF786FCDFF860900122022116
:103930004846FEF77FFC302000900125CDE9015478
:10394000694638460394FEF77DFB0096CDE90154A5
:10395000694640460394FEF775FB07208DE8310069
:1039600069464046FEF76EFB0220CDE90005CDE931
:10397000024069464846FEF765FB07B0BDE8F083A4
:1039800030380240001002400008024000000240AF
:103990000D4810B50B4901600C49416000214FF4FE
:1039A00080428160C0E9031241618161C1610162AD
:1039B000FEF74CFC002803D0BDE81040FDF7B3BF74
:1039C00010BD00000054004098010020801A06003D
:1039D00010B592B000240F941C2168461094FCF797
:1039E000A8FE202107A8FCF7A4FE24482249C0E92C
:1039F000001442F2CF01C0E9024180210461C0E914
:103A00000541FFF77EFB08B1FDF78DFF0F940FA96D
:103A10001A481094FFF7CAF808B1FDF784FF602038
:103A2000CDE90004029403940494059400226946AD
:103A300012480694FFF7FFFA08B1FDF774FF04225D
:103A400069460E48FFF7F7FA08B1FDF76CFF0794D7
:103A5000089409944FF400500A94CDE90B4007A94B
:103A600006480E94FFF778F808B1FDF75CFF0348AD
:103A7000FFF7B6FA12B010BD00000140EC010020C3
:103A800010B58CB024216846FCF753FE002416487C
:103A9000099414490A94C0E900144FF6FF71C0E973
:103AA00002418021046181610320CDE900040120ED
:103AB000CDE902040494CDE90540079469460A481B
:103AC0000894FFF729F908B1FDF72DFF099409A91A
:103AD00005480A94FFF76AF8002801D0FDF723FF94
:103AE0000CB010BD00040040340200200C4810B59A
:103AF0000A4901604FF4E1314160002181600C22EC
:103B0000C160C0E904128161C161FFF7E7FC0028D0
:103B100003D0BDE81040FDF706BF10BD00440040D3
:103B20007C020020FEE7FEE72DED068B98B09FEDAE
:103B30002D8A4FF000089FED2C9ADFED2C9A012280
:103B40002B492C48FFF754FD2B480168496A9FED2B
:103B50002BAADFF89CA08FB2814600BFD9F80000E5
:103B6000406A84B2E01B00B200EE100A2746B8F1AA
:103B7000000FB8EEC00A60EE0A0A80EE890AC0EEB5
:103B8000298A29D09FED1E0A28EE008A9FED1D0A82
:103B900008EE808A8AED028A18EE100A02F05CFABA
:103BA00005460E4618EE900A02F056FA0A468DE8CF
:103BB0006500234614A2502104A8FCF73FFC04A88A
:103BC000FCF719FD82B2642304A90A48FFF756FDE9
:103BD000642000F03FFEC1E7B0EE688A4FF00108B4
:103BE000D8E700000000000000008244CDCCCC3DAE
:103BF000000000207C0200203402002000007042FF
:103C00003333333F9A99993E434E543D25752020D6
:103C100052504D3D252E3266202046696C746572E7
:103C200065643D252E32660D0A000000642000F018
:103C300011FEFBE72DED028B00269FED558A554CBA
:103C4000DFF854919AB037464FF014084FF0010A4C
:103C50003546607888B16570A078022822D04FA2DE
:103C600064216846FCF7EAFB6846FCF7C4FC82B2B4
:103C7000642369465248FFF701FD94ED030AB4EE50
:103C8000480AF1EE10FA04D094ED038AA4F80680F5
:103C90000026A078A8B1A07801283CD0A0780228FE
:103CA0006CD071E0A570E5700026A4F8068084F859
:103CB00004A0D9F800104D63D9F80000856341A233
:103CC000CEE7E08818B1E088401EE0805CE094ED2B
:103CD000030AD4ED020A434930EE600AD4ED030A28
:103CE00010EE900A884214DB10EE100A3E4988421A
:103CF0000FDD761CB6B20A2E46D384F802A0D9F89E
:103D0000001000261E274D63D9F80000856337A2F6
:103D100026E0002638E0D9F8001048464D63D9F86F
:103D200000108D6317B17F1EBFB22DE0E17803292B
:103D30000ED2E078401CE07084F804A0A570A4F8CE
:103D40000680E37830A264216846FCF777FB0BE03D
:103D50000221A17001684D63D9F8000085632FA28C
:103D600064216846FCF76AFB6846FCF744FC82B2B3
:103D7000642369461248FFF781FC05E0D9F800107A
:103D80004D63D9F800008563642000F063FD60E7AF
:103D90000000000000000020EC010020434C4541E1
:103DA000522049474E4F5245442C204E4F204C4FF5
:103DB000434B4544204641554C540D0A0000000039
:103DC0007C0200204641554C5420434C454152450D
:103DD000442C204D4F544F522052454144590D0A16
:103DE00000000000000048420000F0414641554CF0
:103DF000543A205350454544204552524F522C20AE
:103E000053544F500D0A00005245434F56455259E6
:103E10003A205452592025640D0A00004641554C61
:103E2000543A204C4F434B45442C20434C4541527F
:103E30002052455155495245440D0A002DED088B3D
:103E40000021A648FFF7A0F90421A448FFF79CF938
:103E50009FEDA39AB0EE498ADFEDA29A9FEDA2BA38
:103E6000DFEDA28AA24C22799C49002022B1207168
:103E70000A6850630A6890639FED9E0A9E4D84ED28
:103E8000030A00269FED9DAADFF874B2DFED9DAA1C
:103E90009D4F81468846A07828B1D8F80020494631
:103EA000C2F8349033E094ED030AD4ED020A70EEC8
:103EB000600A00EE8B8A18EE100AA84202DDB0EE0E
:103EC0004A8A05E018EE100A584501D9B0EE6A8A10
:103ED00094ED041AB0EE680A01EE200AD4ED050A4A
:103EE00000EE880A10EE100AB84201DDB0EE690A51
:103EF000B5EEC00AF1EE10FA01D2B0EE490AD8F8D8
:103F00000020C2F83490BCEEC00A10EE101AD8F8A7
:103F100000008163642000F09DFC761C322EBADB29
:103F20009FED7A0A002684ED030AA07828B1D8F81C
:103F300000204946C2F8349033E094ED030AD4EDF2
:103F4000020A70EE600A00EE8B8A18EE100AA84290
:103F500002DDB0EE4A8A05E018EE100A584501D994
:103F6000B0EE6A8A94ED041AB0EE680A01EE200AF7
:103F7000D4ED050A00EE880A10EE100AB84201DD01
:103F8000B0EE690AB5EEC00AF1EE10FA01D2B0EE59
:103F9000490AD8F80020C2F83490BCEEC00A10EEEE
:103FA000101AD8F800008163642000F053FC761CDE
:103FB000322EBADBDFED56BA0026C4ED03BAA07884
:103FC00040B1D8F80020C2F83490D8F80010C1F8F9
:103FD000389036E094ED030AD4ED020A70EE600AE0
:103FE00000EE8B8A18EE100AA84202DDB0EE4A8A73
:103FF00005E018EE100A584501D9B0EE6A8A94ED32
:10400000041AB0EE680A01EE200AD4ED050A00EEAB
:10401000880A10EE100AB84201DDB0EE690AB5EE6A
:10402000C00AF1EE10FA01D2B0EE490AD8F8002029
:10403000C2F83490BCEEC00AD8F8000010EE101A96
:104040008163642000F006FC761C322EB7DBA246AA
:104050004E4644469AF80210504621B12068466305
:104060002068866335E0C0ED03BA90ED030AD0ED19
:10407000020A70EE600A00EE8B8A18EE101AA9424E
:1040800002DDB0EE4A8A05E018EE101A594501D952
:10409000B0EE6A8A90ED041AB0EE680A01EE200ACA
:1040A000DAED050A00EE880A10EE100AB84201DDCA
:1040B000B0EE690AB5EEC00AF1EE10FA01D2B0EE28
:1040C000490A20684663BCEEC00A216810EE100A57
:1040D0008863642000F0BEFBBCE70000EC01002018
:1040E0000000000000408345CDCCCC3D0000FA44E8
:1040F000000000200000A04200803B4500803B45BE
:1041000000803BC500803BC5004083450000C8429D
:104110000000F042642000F09DFBFBE710B54FF07B
:10412000E020006901F0C6FD012803D0BDE8104081
:1041300001F0F4BA10BD000030B593B030216846EC
:10414000FCF7F7FA14210CA8FCF7F3FA1D48002538
:10415000016841F080510160006800F080501190CA
:104160001948016841F4804101600068022400F4AC
:104170008040119001200390102004900094069438
:104180000820CDE90750A820CDE9090404200B90B0
:104190006846FEF729FB08B172B6FEE70CA90F20AE
:1041A00081E831004FF4A0500F904FF480501090F0
:1041B00005210CA8FEF70CFA002801D072B6FEE724
:1041C00013B030BD40380240007000400248016822
:1041D00041F470010160704788ED00E00148FEF78E
:1041E00067BE000024030020F0B50268294C2A4D68
:1041F0002A4E2B4F2B4B4FF0804CA04209D06045EC
:1042000007D0A84205D0B04203D0B84201D09842AE
:1042100004D122F0700E4A6842EA0E02A0421BD07E
:10422000604519D0A84217D0B04215D0B84213D07B
:10423000984211D01C4DA8420ED01C4DA8420BD064
:104240001B4DA84208D01B4DA84205D01A4DA842CC
:1042500002D01A4DA84203D122F44075CA682A43FD
:104260004D6922F080022A4302608A68C2620A68AD
:104270008262A04201D0984201D109690163012103
:1042800041610169C90703D0016921F001010161A0
:10429000F0BD0000000001400004004000080040A4
:1042A000000C004000040140004001400044014077
:1042B0000048014000180040001C00400020004061
:1042C00010B501F01F030121046A99408C43046278
:1042D000016A9A401143016210BD0000F0B5036A03
:1042E000026A22F00102026242688469124E24F0DE
:1042F00073050C682C4323F002058B682B430D4D8E
:10430000A84201D0B04205D123F00807CB683B4357
:1043100023F00403A84201D0B04205D14D6922F434
:10432000407215438A692A43426084614968416347
:104330000362F0BD0000014000040140F0B5026AD4
:10434000036A23F010030362436884690D6824F450
:10435000E64444EA05248D6822F0200242EA051270
:104360000F4D104EA84201D0B04206D1CF6822F0C6
:10437000800242EA071222F04002A84201D0B04275
:1043800007D14D6923F4406343EA85038D6943EA0D
:10439000850343608461496881630262F0BD000067
:1043A0000000014000040140F0B5026A036A23F4F2
:1043B000807303624368C46922F4007224F07305B9
:1043C0000C68124E2C438D6842EA05220E4DA8421D
:1043D00001D0B04206D1CF6822F4006242EA07223F
:1043E00022F48062A84201D0B04207D14D6923F483
:1043F000405343EA05138D6943EA05134360C461E2
:104400004968C1630262F0BD000001400004014040
:1044100030B5046A026A22F4805202624268C369BB
:104420000D6823F4E64343EA05238D6824F4005421
:1044300044EA0534084DA84202D0084DA84204D1F0
:104440004D6922F4804242EA85124260C3614968A4
:104450000164046230BD000000000140000401401E
:1044600010B5806B0021C185C184FEF7FDFE10BD33
:1044700001680C3151E8002F22F4907241E80023CA
:10448000002BF5D10168143151E8002F22F0010210
:1044900041E80023002BF5D1016B012909D1016806
:1044A0000C3151E8002F22F0100241E80023002BCC
:1044B000F5D1202180F8421000210163704708B532
:1044C00090F84210222901D0022008BD82684FF4E2
:1044D00080539A4201D1016921B1816A9A421BD06D
:1044E0004AB10AE00268816A5268C2F308020A808F
:1044F000816A891C08E0026972B10268526802F0A0
:104500007F020A70816A491C8162C18D491E0904BB
:10451000090CC18503D01BE002685268F1E701680D
:10452000CA6822F02002CA600168CA6822F4807258
:10453000CA6001684A6922F001024A61202180F8BC
:10454000421000214163026B012A03D0FFF75EF89D
:10455000002008BD016301680C3151E8002F22F0F2
:10456000100241E80023002BF5D101680A68D20649
:1045700002D50A6849680091818DFEF774FEE7E76D
:1045800070B5044600680169E26821F440511143A6
:1045900001612169A068E269084361691143084328
:1045A0002168CA6849F20C639A430243CA602068D2
:1045B0004169A26921F44071114341613149206888
:1045C000884202D03049884202D1FEF7CBF801E0A0
:1045D000FEF7B8F8E2690023192164253226B2F506
:1045E000004F626828D0A0FB0101930F9200FBF7F7
:1045F000ADFE0146B0FBF5F06FF01802504301EB41
:10460000800006EB0010B0FBF5F000F0F002B1FB0B
:10461000F5F002EB0012B1FBF5F06FF01803584310
:1046200001EB800006EB0010B0FBF5F000F00F008E
:1046300021681044886070BDA0FB010192185B41A5
:10464000FBF784FE0146B0FBF5F00201B1FBF5F08B
:104650006FF01803584301EB800006EBC000B0FB7D
:10466000F5F000F0F80002EB4002B1FBF5F0584322
:1046700001EB800006EBC000B0FBF5F000F0070096
:10468000D6E70000001001400014014081628285DD
:10469000C28500214164222180F84210016921B1C4
:1046A0000168CA6842F48072CA6001684A6942F0CF
:1046B00001024A610068C16841F02001C160002028
:1046C00070472DE9F843984617460D460446089E64
:1046D00024E0701C22D0FDF7B3FDA0EB0800B0422F
:1046E0001AD8CEB12068C168490717D5802D15D0DA
:1046F000402D13D00168C94309070FD40168002574
:10470000406800902046FFF7B3FE0820606484F8FC
:1047100040500120BDE8F8830320FBE720680068D3
:1047200035EA000004D00020B842D2D00020F1E7E2
:104730000120F9E70148FEF799BD00007C02002046
:10474000FEE703B401984100009850EAC12018BF69
:1047500004204A0D18BF40F0010040F2FF72B2EB96
:10476000515F08BF40F00200012808BF052002B0D9
:1047700070470907090E002804DB00F1E02080F8EB
:104780000014704700F00F0000F1E02080F8141DC5
:10479000704730380A2801D2012070470020704746
:1047A00086B0FDF753FEFFF7C7FCFFF77DF8FFF774
:1047B00021F8FEF7B5FFFFF70BF9FFF761F9FFF7F7
:1047C00095F9FEF7F5FFFFF7E3F800211848FEF72B
:1047D000DBFC04211648FEF7D7FC3C211548FEF708
:1047E0001FFB1448002400684462134D012210216D
:1047F0002846FDF71FFD012220212846FDF71AFD5E
:104800000B4801684C630068846314220BA168465E
:10481000FBF755FF4FF47A73122269460C48FEF7F6
:104820002DFF00F025F8FFF70BF800F033F8FEE756
:10483000EC01002034020020001002404D41494E9E
:104840002055534152543220544553540D0A000010
:104850007C02002010B5EFF3058111B16FF0050463
:1048600003E0002408B100F0F9FD204610BD00006F
:10487000EFF3058010B16FF0050070470448016840
:1048800011B14FF0FF3070470121016000207047E7
:104890008C00002010B5EFF3058010B16FF005001B
:1048A00010BD08480168012902D04FF0FF3010BD4B
:1048B000054A002182F8141D0221016000F036FE35
:1048C000002010BD8C0000200BE000E02DE9FF412E
:1048D0004FEA01034FF00005EFF30581039549BB53
:1048E00040B38027182100244AB3166806B1344625
:1048F00096691EB13146761E382E02D21679F60719
:1049000003D0002004B0BDE8F081566906B1B708B5
:10491000D2F808C0BCF1000F0DD0D5685C2D18D3BB
:1049200012693AB136B18DE806103A46214601F0D7
:1049300096F903900DE0D6685EB912694AB903AAE8
:10494000CDE90012BAB2214601F05CF9012800D08D
:1049500003950398D6E700002DE9F041134C0F466C
:104960000546E6682068001D00F044FC681C07D17D
:1049700037B12168BDE8F0410D48091D00F08ABC3F
:1049800020683544B5424560216805D2A06BBDE87A
:10499000F041091D00F066BC606B091D00F062FC6F
:1049A000A06A854200D2A562BDE8F0813C000020EB
:1049B0005C0800202DE9F041054600F077FC2D4C05
:1049C000A068401CA06020682B4F10B1606930B314
:1049D0002BE02560A068012827D1002606EB860081
:1049E00007EB800000F030FC761C382EF6D323480D
:1049F00000F02AFC2148143000F026FC1F48283023
:104A000000F022FC1D483C3000F01EFC1B485030DA
:104A100000F01AFC194860631430A06305E02068B8
:104A2000E96AC06A884200D82560606A401C6062FA
:104A30006864E86A2169884200D9206100EB80003F
:104A400007EB8000291D00F025FC00F04FFC606999
:104A500000280CD02068E96AC06A884207D2084959
:104A60004FF080500860BFF34F8FBFF36F8FBDE8EA
:104A7000F08100003C000020AC0300200C08002066
:104A800004ED00E038B500F011FC104C2068C8B906
:104A90000F4800F0D9FB0E48143000F0D5FB0C484D
:104AA000E060143020610A4B0020F03B009003F1DD
:104AB000500210210A2000F047FE206010B105A12D
:104AC00000F096FCBDE8384000F010BC78000020F3
:104AD00060090020546D72510000000030B4026C77
:104AE0000B46002A0BD0C1681144C1608468A14202
:104AF00001D30168C16030BC1846FBF79BBD30BCD8
:104B000070472DE9F041856B174604460026026C7C
:104B100082B1C7B1E068FBF78DFDE168206C091A2E
:104B2000E1602268914202D2A168081AE060022F77
:104B300016D017E02068A8B9A06801F033F906463E
:104B40000020A0600EE06068FBF774FD216C6068D7
:104B500008446060A168884204D32068606001E076
:104B600005B16D1E6D1CA5633046BDE8F08110B522
:104B7000044690F8590058B101280CD002280FD0F3
:104B8000502080F31188BFF34F8FBFF36F8FFEE784
:104B9000206B00F0BFFB2046BDE8104000F0BABB20
:104BA00010BD000010484FF47051420706D0C01DE0
:104BB0000D4920F00700411AC1F570510B4A00233E
:104BC0000144C2E900030839183A21F007011160D5
:104BD0004B600B600B1AC0E9001393604FF000406C
:104BE000536050617047000040100020A800002072
:104BF000144E154CA6F29C474FF08058DFF84C90AD
:104C000012E000BF00F052FBF068C568281D00F0FC
:104C1000F1FAA068401EA0606068401E606000F06D
:104C200065FB2846FFF7A3FF60680028EAD13868D3
:104C30000128F9D9C9F80080BFF34F8FBFF36F8FF8
:104C4000F2E70000480800203C00002004ED00E0EE
:104C500070B51D46049C51B1C4F80020C4E90F0191
:104C60000121204600F0A4FD84F84C5070BD246062
:104C7000F4E700002DE9F05F8846DDE90B94154666
:104C8000834691009A460A9EA522206BFBF749FDB8
:104C90006FF00301206B01EB8501084420F007074A
:104CA000780707D0502080F31188BFF34F8FBFF3F0
:104CB0006F8FFEE70025B8F1000F0FD05FF0000006
:104CC000221818F8001082F8341018F8001011B1EA
:104CD000401C1028F4D384F8435001E084F8345089
:104CE000382E00D33726E662C4E91365201D00F094
:104CF000B6FA04F1180000F0B2FA2461C6F13800E7
:104D00006462A061656584F8585052465946384639
:104D100000F05AFA2060B9F1000F01D0C9F8004044
:104D2000BDE8F09F30B5114900E011460A688242A3
:104D3000FBD34B685C18844203D140681844486038
:104D4000084643681C18944209D1084C183C246852
:104D5000A24209D052681A4442600A68126802608E
:104D6000814200D0086030BD0460F9E7A80000204F
:104D700070B5002441600B4D0061914206D8D11AF4
:104D80008269914206D2011D286907E09A4203D246
:104D9000994201D3012403E0011DE86800F062FAA2
:104DA000204670BD7800002010B5044600F07EFA61
:104DB000A06B28B15FF0000400F098FA204610BD07
:104DC0000124F9E730B589B03C4D6EE00498002825
:104DD00006DADDE90601059A90470498002864DBAD
:104DE000069C606910B1201D00F004FA03A800F0D1
:104DF000D7F8024604980A2857D2DFE800F00505E4
:104E0000052D334A05052D3394F8280040F00100A4
:104E100084F828000599A069059B01442046FFF706
:104E2000A7FF68B3216A2046884794F82800400706
:104E30003BD5002000900598A1690023421819462F
:104E4000204601F0B9F8D8B9502080F31188BFF39B
:104E50004F8FBFF36F8FFEE714F8280F20F001008B
:104E6000207022E094F8280040F0010084F8280027
:104E70000598A06128B1811813462046FFF778FFF6
:104E800013E0502080F31188BFF34F8FBFF36F8F73
:104E9000FEE794F82800810703D4204600F03AFA90
:104EA00003E020F0010084F82800002204A928680B
:104EB00000F0D2FD002889D109B030BD7800002073
:104EC0002DE9FC410F46054600F074FB01A800F0F7
:104ED00067F80446019818B100F0DCFFBDE8FC81DA
:104EE000254EAFB130690068D0B30027291B3A4680
:104EF000306800F091FA00F0CDFF0028EED11F4994
:104F00004FF080500860BFF34F8FBFF36F8FE5E71E
:104F1000A542EBD800F0BEFFF0682746C068C46821
:104F2000201D00F067F994F82800410719D5A06901
:104F30002B4641193A462046FFF71AFFA8B1002038
:104F40000346014600902A46204601F035F860B934
:104F5000502080F31188BFF34F8FBFF36F8FFEE7B0
:104F600007E020F0010084F82800216A20468847E5
:104F7000B4E70127BAE700007800002004ED00E064
:104F80000648416B096829B1416BC968C96849681D
:104F9000816270474FF0FF31FAE700003C000020CB
:104FA00070B5054600F094FE064E0446B068844293
:104FB00003D200F009F8012000E00020286020461C
:104FC000B46070BD78000020F8B5194D20E0C068CD
:104FD000C4680668201D00F00DF9216A2046884744
:104FE00094F82800400713D5A0693044B04206D990
:104FF00024616060211DE86800F034F908E00020B9
:105000000346014600903246204600F0D5FF38B1F5
:10501000E86801680029DAD12969C5E90310F8BDFB
:10502000502080F31188BFF34F8FBFF36F8FFEE7DF
:105030007800002008484068401C4FF0500080F382
:10504000118804D0BFF34F8FBFF36F8FFEE7BFF31C
:105050004F8FBFF36F8FFEE7B0000020074CE06872
:10506000016841B1C0680021D0F80000FFF728FFB7
:10507000FFF7A8FEF3E701210020F7E77800002002
:105080002DE9F041044600F011F994F9455004F17E
:10509000240609E0606A48B1304600F0C3FE08B15A
:1050A00000F00AFA6D1E6DB2002DF3DC4FF0FF36F2
:1050B00084F8456000F01AF900F0F8F894F94450CB
:1050C00004F1100709E0206948B1384600F0AAFE53
:1050D00008B100F0F1F96D1E6DB2002DF3DC84F81B
:1050E0004460BDE8F04100F001B900002DE9F04155
:1050F0000546002700F05EFA324E306808B9FFF727
:1051000051FD706905424ED1C5B3083568070ED010
:1051100005F00700C0F108000544680707D05020DB
:1051200080F31188BFF34F8FBFF36F8FFEE72DB36E
:105130007068854237D82348183001460C6801E072
:1051400020460C466168A94202D221680029F7D1A5
:1051500031688C4227D00768216801606068083791
:10516000411B10290FD96019420708D0502080F345
:105170001188BFF34F8FBFF36F8FFEE713E04160DD
:105180006560FFF7CFFD61687068401A7060B268B3
:10519000904200D2B060706901430020C4E9000170
:1051A000F068401CF06000F075FE780707D05020D2
:1051B00080F31188BFF34F8FBFF36F8FFEE7384640
:1051C000BDE8F0819000002010B5031F4FF08074FF
:1051D0001C601B1F21F001011960191F044B0B609B
:1051E00014390A60091F6FF0020244380A6010BDCA
:1051F00035500008D0E9013201699A60D0E90123F5
:105200005A604A68824201D182684A600022026183
:105210000868401E0860086870470000034B036080
:1052200003F15C000860802010607047880900204E
:10523000044B036003F15C0008604FF48070106061
:1052400070470000E40B002000F108014FF0FF322E
:10525000C0E90112C16001610021016070470021B5
:105260000161704730B50B685A1C02D000F108028A
:1052700002E0026904E02246546825689D42FAD99A
:1052800053684B6099608A60516008610168491CED
:10529000016030BD42684A6093688B6093685960D2
:1052A000916008610168491C01607047502080F3DB
:1052B0001188BFF34F8FBFF36F8F0A494868401CB6
:1052C000486001280CD10848006810F0FF0F07D093
:1052D000502080F31188BFF34F8FBFF36F8FFEE72D
:1052E00070470000B000002004ED00E00849486865
:1052F00028B1401E486001D180F3118870475020CA
:1053000080F31188BFF34F8FBFF36F8FFEE700006C
:10531000B000002070B500282AD0164DA0F1080476
:1053200060686969084207D1502080F31188BFF393
:105330004F8FBFF36F8FFEE722683AB1502080F3A2
:105340001188BFF34F8FBFF36F8FFEE78843606014
:1053500000F030F960686968084468602046FFF72B
:10536000E1FC2869401C2861BDE8704000F092BD56
:1053700070BD0000900000204FF0E020002101618E
:10538000816105494FF47A720968B1FBF2F1491E57
:1053900041610721016170473800002010B5FAF71C
:1053A000B1FF114910280ED300F1E02090F8F0036E
:1053B0000A78904207D2502080F31188BFF34F8FB4
:1053C000BFF36F8FFEE709480068896800F4E0606A
:1053D000884207D9502080F31188BFF34F8FBFF365
:1053E0006F8FFEE710BD0000B00000200CED00E064
:1053F00010B5084B002200BF53F832401CB1521CBC
:10540000082AF9D310BD43F8321003EBC2014860FB
:1054100010BD00006C03002070B515460E46044612
:10542000FFF744FF94F944100020491C01D184F88F
:10543000440094F94510491C01D184F84500FFF758
:1054400055FFA06B28B92A46314604F1240000F02C
:1054500051F82046BDE87040FFF712BE10B50200BB
:1054600014D00F48006B38B1502080F31188BFF37F
:105470004F8FBFF36F8FFEE700F09CF800211046BE
:10548000FFF76AFA00F006FD002807D105494FF042
:1054900080500860BFF34F8FBFF36F8F10BD0000C7
:1054A0003C00002004ED00E002490A6A0260C9687D
:1054B000416070473C00002001490120C8617047ED
:1054C0003C00002010B50C4650B10949096818315C
:1054D000FFF7C8FE2046BDE810400121FFF73CBAA7
:1054E000502080F31188BFF34F8FBFF36F8FFEE71B
:1054F0003C00002070B514460D4668B10A490968A1
:105500001831FFF7C7FE0CB14FF0FF352146284692
:10551000BDE87040FFF720BA502080F31188BFF338
:105520004F8FBFF36F8FFEE73C00002030B587B090
:105530000024039405AA04A903A80494FFF76EFEAF
:10554000DDE903010094CDE90110002315A11748FE
:10555000059A00F084FB164D0028E8621FD000F089
:10556000FBFC012809D0401C19D1502080F3118880
:10557000BFF34F8FBFF36F8FFEE7502080F311888A
:10558000BFF34F8FBFF36F8F4FF0FF30A862012042
:105590006861EC6007B0BDE8304000F045B807B086
:1055A00030BD000049444C4500000000F14B0008AC
:1055B0003C0000200248016B491C01637047000059
:1055C0003C000020164810B5016B11B10121C161EA
:1055D00010BD0021C1610169124A01E0B9B1491E43
:1055E00001EB810352F82330002BF7D001EB81034C
:1055F00002EB830202F1080453685B685360A34224
:1056000001D15B685360DA680260016110BD50200F
:1056100080F31188BFF34F8FBFF36F8FFEE7000059
:105620003C000020AC0300201CB537480168374A15
:10563000914207D1502080F31188BFF34F8FBFF301
:105640006F8FFEE700683149491E884207D150201C
:1056500080F31188BFF34F8FBFF36F8FFEE72C49A4
:1056600008780190FF20087008788DF800009DF8F8
:1056700000009DF8002000F0F000904207D050207C
:1056800080F31188BFF34F8FBFF36F8FFEE79DF854
:105690000000204C00F0500020700720A06005E0C2
:1056A0009DF8002052008DF80020401E9DF800203B
:1056B0001206F5D4A060032807D0502080F311888B
:1056C000BFF34F8FBFF36F8FFEE74FF44070A060C2
:1056D000019808700C482030016841F470010160A5
:1056E000016841F070410160FFF746FE00206060F4
:1056F000FAF7D0FD0848016841F040410160FAF72F
:10570000B5FD00201CBD000000ED00E071C20F419E
:1057100000E400E0B000002034EF00E010B55020BD
:1057200080F31188BFF34F8FBFF36F8F00F0D6FA6D
:1057300018B104494FF080500860002080F31188B0
:1057400010BD000004ED00E038B5049D18B153B160
:10575000CAB181B120E0502080F31188BFF34F8F90
:10576000BFF36F8FFEE7502080F31188BFF34F8F98
:10577000BFF36F8FFEE7502080F31188BFF34F8F88
:10578000BFF36F8FFEE739B1502080F31188BFF36C
:105790004F8FBFF36F8FFEE750241C46012384F820
:1057A00046302B460094FFF753FA204638BD0000E0
:1057B00070B50D46040025D0FFF778FDD4E90F2021
:1057C000216802FB0011A1600021A16321686160D2
:1057D0000A46D4E90F01401E00FB0121E160214689
:1057E0004FF0FF3001F8440F487004F110008DB104
:1057F000FFF72AFD04F12400FFF726FDFFF776FDF1
:10580000012070BD502080F31188BFF34F8FBFF38C
:105810006F8FFEE721690029F0D000F003FB00281C
:10582000ECD004494FF080500860BFF34F8FBFF3B6
:105830006F8FE3E704ED00E02DE9FF4782B01D46DE
:105840008A464FF00008040003D0BAF1000F08D0D8
:1058500011E0502080F31188BFF34F8FBFF36F8F9B
:10586000FEE7206C38B1502080F31188BFF34F8FD2
:10587000BFF36F8FFEE7022D0AD1E06B012807D03E
:10588000502080F31188BFF34F8FBFF36F8FFEE777
:1058900000F010FA3F4F4FF000094FF0805648B922
:1058A000049838B1502080F31188BFF34F8FBFF3B5
:1058B0006F8FFEE7FFF7FAFCA06BE16B884207D31E
:1058C000022D05D00498D0B1B8F1000F1AD01EE017
:1058D0002A4651462046FFF714F9616A19B104F1CE
:1058E000240000F09FFA20B13E60BFF34F8FBFF35A
:1058F0006F8FFFF7FBFC012006B0BDE8F087FFF7D4
:10590000F5FC22E06846FFF7CFFD4FF00108FFF7F6
:10591000EDFCFFF74FFEFFF7C9FC94F94400401C73
:1059200001D184F8449094F94500401C01D184F8D9
:105930004590FFF7DBFC04A9684600F029F930B177
:105940002046FFF79DFB00F0A5FA0020D4E7FFF703
:10595000ADFCA06BE16B884213D1FFF7C7FC04F1EB
:1059600010000499FFF7AEFD2046FFF789FB00F019
:1059700091FA00289ED13E60BFF34F8FBFF36F8F27
:1059800098E7FFF7B3FC2046FFF77AFB00F082FAB6
:1059900090E7000004ED00E02DE9F0471F46904637
:1059A0008946040003D0B9F1000F08D011E050205F
:1059B00080F31188BFF34F8FBFF36F8FFEE7206C2A
:1059C00038B1502080F31188BFF34F8FBFF36F8F32
:1059D000FEE7022F0AD1E06B012807D0502080F3A8
:1059E0001188BFF34F8FBFF36F8FFEE7FFF7D6FC31
:1059F0005020EFF3118680F31188BFF34F8FBFF370
:105A00006F8FA06BE16B884206D3022F04D0002079
:105A100086F31188BDE8F08794F94550A06B3A46AB
:105A200049462046FFF76DF8681C04D06D1C84F8C9
:105A300045500120ECE7606A0028FAD004F1240008
:105A400000F0F0F90028F4D0B8F1000FF1D00121F6
:105A5000C8F80010EDE700002DE9F747002683B0F5
:105A60008A46040003D0BAF1000F08D011E050209C
:105A700080F31188BFF34F8FBFF36F8FFEE7206C69
:105A800038B1502080F31188BFF34F8FBFF36F8F71
:105A9000FEE700F00FF9DFF8F4804FF000094FF057
:105AA000805748B9059838B1502080F31188BFF36A
:105AB0004F8FBFF36F8FFEE7FFF7F8FBA56BC5B104
:105AC00051462046FFF70AF86D1EA563206950B1C4
:105AD00004F1100000F0A6F928B1C8F80070BFF377
