:020000040800F2
:10000000505B002065030008B169000887620008A2
:1000100045690008692A0008217F000800000000E7
:10002000000000000000000000000000A502000821
:10003000492F000800000000010300082972000891
:100040007F0300087F0300087F0300087F03000888
:100050007F0300087F0300087F0300087F03000878
:100060007F0300087F0300087F0300087F03000868
:100070007F0300087F0300087F0300087F03000858
:100080005D2E00087F0300087F0300087F0300083F
:10009000992C00087F0300087F0300087F030008F5
:1000A0007F0300087F0300087F0300087F03000828
:1000B0007F0300087F0300087F0300087F03000818
:1000C0007F0300087F0300087F0300087F03000808
:1000D0007F0300087F030008157F00087F030008E6
:1000E0007F0300087F0300087F0300087F030008E8
:1000F0007F0300087F0300087F0300087F030008D8
:100100007F0300087F0300087F0300087F030008C7
:100110007F0300087F030008E97200087F030008DE
:10012000692E00087F0300087F0300087F03000892
:100130007F0300087F0300087F0300087F03000897
:100140007F0300087F0300087F0300087F03000887
:100150007F0300087F0300087F0300087F03000877
:100160007F0300087F0300087F0300087F03000867
:100170007F0300087F0300087F03000800000000E1
:100180007F0300087F03000800F002F800F07BF80E
:100190000AA090E8000C82448344AAF10107DA45E2
:1001A00001D100F070F8AFF2090EBAE80F0013F0B9
:1001B000010F18BFFB1A43F00103184748AC0000B9
:1001C00068AC00000A444FF0000C10F8013B13F03B
:1001D000070408BF10F8014B1D1108BF10F8015BA0
:1001E000641E05D010F8016B641E01F8016BF9D193
:1001F00013F0080F1EBF10F8014BAD1C0C1B09D1EA
:100200006D1E58BF01F801CBFAD505E014F8016B5B
:1002100001F8016B6D1EF9D59142D6D370470000ED
:100220000023002400250026103A28BF78C1FBD8FF
:10023000520728BF30C148BF0B60704766290AF0DB
:100240004182642900F09081752900F08D81782920
:1002500000F0C681732900F0F086002070471FB5BA
:100260000AF023FA01F0A0F904000020002109F0AF
:10027000A3FF401C60600020002109F087FFE060C0
:100280001FBD10B510BD01F055FC1146FFF7E7FF8B
:1002900008F0E0F801F0A6FE03B4FFF7F2FF03BC9C
:1002A00001F0CAFE2C4B19680868B0E8F04F80F3E3
:1002B0000988BFF36F8F4FF0000080F311887047FB
:1002C0000000000008480068006880F308884FF0CC
:1002D000000080F3148862B661B6BFF34F8FBFF39E
:1002E0006F8F00DF00BF00BF08ED00E0DFF80C00FB
:1002F000016841F470010160704700BF88ED00E0C3
:10030000EFF30980BFF36F8F134B1A681EF0100FC5
:1003100008BF20ED108A20E9F04F106009B44FF0BB
:10032000500080F31188BFF34F8FBFF36F8F09F038
:10033000CFF84FF0000080F3118809BC19680868F5
:10034000B0E8F04F1EF0100F08BFB0EC108A80F339
:100350000988BFF36F8F7047CC000020EFF3058052
:10036000704700000948804709480047FEE7FEE75C
:10037000FEE7FEE7FEE7FEE7FEE7FEE7FEE7FEE755
:1003800004480549054A064B70470000D972000829
:100390008901000850550020505B00205057002074
:1003A0005057002053EA020C00F069802DE9F04B11
:1003B0004FF00006002B1FBFB3FA83F503FA05F4D4
:1003C00024FA05F65E4012BF1643B2FA82F502FA2D
:1003D00005F4C5F120051EBF22FA05FC44EA0C0411
:1003E000203556EA044C4FEA144418BF641C4FF001
:1003F00000084FF00009904271EB030C39D300293B
:1004000019BFB1FA81F701FA07F6B0FA80F700FADE
:1004100007F6C7F120071EBF20FA07FC46EA0C06C4
:100420002037B6FBF4FCA7EB0507103F07F01F0BC6
:10043000CBF120060CFA0BFB2CFA06F644BFB346B0
:100440000026202FA4BF5E464FF0000B5BEA060C8F
:1004500008BF4FF0010B19EB0B09ABFB027C48EB1B
:100460000608C01B06FB02CC0BFB03CC71EB0C0196
:10047000C1E70B46024641464846BDE8F08B13B53E
:100480004FF000004FF00001AFF30080BDE81C40CA
:10049000704700000FB41CB50C0007AA009001D0F3
:1004A0002044401E074B7B4469460190069800F0AB
:1004B00092FD002C03D06946002000F09FFD1CBC7B
:1004C0005DF814FB5D0B000070B50446856900689B
:1004D000C10601D5302600E02026C00707D070BD38
:1004E000D4E9012130469047206A401C20626D1EED
:1004F000F6D570BD70B5044685690078C00707D190
:1005000070BDD4E9012120209047206A401C206260
:100510006D1EF6D570BD70B50C460546012A05D096
:100520002878800600D5EA69002302E0012305E06F
:100530005B1C934202D2E05C0028F9D1A869E6185E
:10054000C01AA861286A184428622846FFF7BCFF31
:1005500004E0D5E9012114F8010B9047B442F8D327
:100560002846FFF7C7FF70BD2DE9F041064600247D
:1005700010687529314616A510D0AFF30080002809
:1005800002DA404213A507E031688A0701D512A5B7
:1005900002E0490704D511A5012401E0AFF3008072
:1005A00000210A2206F1240709E0B0FBF2FCB0FBAF
:1005B000F2F302FB1C00303078541846491C002826
:1005C000F3D123462A463046BDE8F04100F096BA02
:1005D000000000002D0000002B00000020000000A3
:1005E00070B504460D4621461068AFF3008021889F
:1005F000090502D50F4A7A4402E00E4A7A440E32C7
:10060000002104F1240305E000F00F060009965DC7
:100610005E54491C0028F7D120780023000704D538
:10062000702D02D009B1022311322046BDE870407E
:1006300000F064BA52A300002DE9F05F8946044639
:100640004FF0000ADFF874B1FB44C0F820A0204648
:10065000E1688847002874D0252806D0D4E9012114
:100660009047206A401C2062F1E700265F46204642
:10067000E16888472028054607DB312D05D2781927
:1006800010F8200C08B10643F1E7B00701D526F0B9
:100690000406C4F81CA00027C4F818A02A2D09D00D
:1006A000284607F04EFE38B304EB8708303DC8F803
:1006B000185019E059F8041B204604EB8702916199
:1006C000E1688847012F054618D1E069002820DA43
:1006D00026F020061DE0D8F8180000EB800005EB9E
:1006E00040003038C8F818002046E16888470546C1
:1006F00007F027FE0028EED1012F0AD02E2D08D1B9
:100700002046E16888477F1C0546022F46F02006F8
:10071000C4DBA069002803DA404246F00106A0616C
:10072000F00701D026F010066C2D0BD0682D09D0F3
:100730004C2D39D06A2D35D0742D35D07A2D33D04B
:1007400016E038E0E1682F4620468847B842054663
:1007500009D16C2F26D04FF48060E1680643204613
:100760008847054604E06C2F1AD04FF4807006438A
:100770000DB3A5F14100192802D8203546F40066D2
:100780004A462946204626604E46FFF757FD80B16F
:1007900001280BD0F61D26F0070000F1080956E7E6
:1007A0004020E4E78020D8E70020D6E706F10409DE
:1007B0004DE7284652E7206ABDE8F09F28A30000D5
:1007C0000FB400B58DB010A9099000910B904FF0B7
:1007D000FF300A9000200C900648784406900648A6
:1007E00078446A4607900F9909A800F0ADFE0DB055
:1007F0005DF814FB8B0D0000A30D000010B5431C29
:1008000002E010F8011B71B18107FAD14FF00132FB
:1008100002C88C1A8C4314EAC211F9D0C01A0A0615
:1008200003D0C01E10BDC01A10BD0A0401D0801E26
:1008300010BD0902FCD0401E10BD40EA010370B596
:100840009B072ED14FF00136042A2AD308C810C9BD
:100850009D1B9D43121F15EAC61517D0D8B2E1B2F1
:10086000401A50EA056110D198B2A1B2401A50EA7C
:1008700005410AD123F07F4024F07F41401A50EA1D
:10088000052102D1180EA0EB146070BDA342DBD08D
:1008900018BA21BA884201D9012070BD4FF0FF304B
:1008A00070BD0AB9002070BD10F8013B11F8014B72
:1008B00063B1A3420AD1521E08D010F8013B11F8CF
:1008C000014B1BB1A34201D1521EEDD1181B70BDCB
:1008D000032A40F2308010F0030C00F0158011F86C
:1008E000013BBCF1020F624498BF11F801CB00F844
:1008F000013B38BF11F8013BA2F1040298BF00F898
:1009000001CB38BF00F8013B11F0030300F0258054
:10091000083AC0F0088051F8043B083A51F804CB7B
:10092000A0E80810F5E7121D5CBF51F8043B40F841
:10093000043BAFF30080D20724BF11F8013B11F84C
:1009400001CB48BF11F8012B24BF00F8013B00F890
:1009500001CB48BF00F8012B704710B5203AC0F01A
:100960000B80B1E81850203AA0E81850B1E81850B0
:10097000A0E81850BFF4F5AF5FEA027C24BFB1E8ED
:100980001850A0E8185044BF18C918C0BDE810405E
:100990005FEA827C24BF51F8043B40F8043B08BF67
:1009A0007047D20728BF31F8023B48BF11F8012B2E
:1009B00028BF20F8023B48BF00F8012B704702F027
:1009C000FF0343EA032242EA024200F002B84FF07A
:1009D00000020429C0F0128010F0030C00F01B800C
:1009E000CCF1040CBCF1020F18BF00F8012BA8BF1A
:1009F00020F8022BA1EB0C0100F00DB85FEAC17CDE
:100A000024BF00F8012B00F8012B48BF00F8012B90
:100A100070474FF0000200B51346944696462039C1
:100A200022BFA0E80C50A0E80C50B1F12001BFF4A7
:100A3000F7AF090728BFA0E80C5048BF0CC05DF80D
:100A400004EB890028BF40F8042B08BF704748BF5B
:100A500020F8022B11F0804F18BF00F8012B7047CF
:100A60004FF0013C50F8042B51F8043B9A4221D13D
:100A7000A2EB0C03934313EACC1317D150F8042BC9
:100A800051F8043B9A4215D1A2EB0C03934313EAAD
:100A9000CC130BD150F8042B51F8043B9A4209D1E6
:100AA000A2EB0C03934313EACC13DBD04FF000000E
:100AB000704700BFD01A01BAB1FA81F101F01801F4
:100AC00022FA01F0CB40C1F12001DBB2C0B2C01A62
:100AD0002CFA01F3D11A914311EAC311E6D1704700
:100AE00070477047704710B500F062FD006810BD98
:100AF00010B5044600F05CFD046010BD2DE9F04720
:100B00000D4699469246044600F12408016888067D
:100B100004D5E06921F01001216000E00120A84225
:100B200001DD471B00E00027A1697A1902EB0900EB
:100B3000081AA0612078C00602D42046FFF7C4FC42
:100B4000002608E0D4E901211AF806009047206A3F
:100B5000401C761C20624E45F4DB2078C0060AD586
:100B60002046FFF7B1FC06E0D4E901213020904790
:100B7000206A401C2062381EA7F10107F4DC07E060
:100B8000D4E9012118F805009047206A401C206232
:100B9000281EA5F10105F3DC2046FFF7ABFC207809
:100BA000000602D50220BDE8F0870120FBE7704770
:100BB0002DE9FF4F0C461E464FF0FF378BB0D2E9B0
:100BC0000001DDF860800A908A46C1F30A5505B934
:100BD0003D46002108464FF00000BAF1000F00F436
:100BE000400005DA00EB80004FF4400101EA5000BC
:100BF0004FEA9059B9F1010F00DDB9460A9850EA61
:100C00004A000ED044F61050A5F2FF3545432F148C
:100C1000B8F1000F1ED07542291E1EDDC9F1000279
:100C20001CE0B8F1010F4FF0000001D0302103E0CB
:100C3000F24305E02154401CB042FBDB3046002269
:100C4000002121540B99C1F80880C1E900200FB0A0
:100C5000BDE8F08FBD1B6D1CDEE74A4600DA694235
:100C600006A800F0F1FE06AB93E8070003AB83E8AB
:100C7000070050460A9901F0E6F98DE80700A0F553
:100C800000501F3800900398002D0ADD42F21F012A
:100C90004A460844002303A90390684601F092FCE9
:100CA00009E0A0F500504A461F38002303A903902D
:100CB000684601F0B1FC8DE807000004000C03D089
:100CC0004FF0FF30410800E01046B8F1000F03D0AC
:100CD0000022009215461EE0751E05D400F06CFC43
:100CE000303262556D1EF9D5B3460122084302D059
:100CF00000227F1C04E02078302801D100227F1ED2
:100D0000002A099784D01DE0112D07DA00F054FC69
:100D1000303262556D1C50EA0102F5D1084302D011
:100D20000098C8B10EE00021681E05E0235C625CFB
:100D300063542254401E491C8142F7DBAB46A81B7A
:100D4000401E0990002004F80B000B98099AC0F887
:100D50000880C0E9002B7AE711264FF0000857E71A
:100D60002DE9F04F88460446D21D22F0070191B0CC
:100D7000D1E90001CDE90A0107F0D3F802460B984A
:100D8000C00F01D02D2007E02068810701D52B205E
:100D900002E0202101EAC000032A099001D0072ABD
:100DA00005DB03464146204600F054FC0BE1207869
:100DB000800601D5E06900E00620B8F1650F8146A4
:100DC00006D0B8F1660F18D0B8F1670F70D131E0D6
:100DD0000020B9F1110F009001DB112301E009F1AE
:100DE00001030AAA01A90CA8FFF7E2FEDDE90C70D5
:100DF000002609F10105834647E001204B4600909B
:100E00004FF000470AAA01A90CA8FFF7D1FEDDE9BF
:100E10000DB00C995D46002610B909F101000D18BE
:100E2000B9EB050003D4C0F1FF3609F10105A5EBCC
:100E300009002BE0B9F1010F01DA4FF001090020A0
:100E4000B9F1110F0090484601DD112300E003467F
:100E50000AAA01A90CA8FFF7ABFEDDE90C704D460C
:100E600000268346207800070AD4AB4500DA5D46A9
:100E700001A8012D04DD411911F8011C302907D00A
:100E80004F4502DA17F1040F04DA012082460FE021
:100E90006D1EEEE7002F02DCED1B3E4403E0781CE4
:100EA000A84200DD7D1CB81B00F1010A4FF000478D
:100EB0002078000703D4AA4501DB4FF0FF3A002158
:100EC000B7F1004F0DF143088DF8431024D00220F4
:100ED0002B23002F01DA7F422D230A21021EA0F1CD
:100EE000010000DC5FB197FBF1FC97FBF1F201FB25
:100EF0001C7C17460CF1300C08F801CDEEE7A8F188
:100F0000010003702188090501D5452100E0652114
:100F1000A0F1010800F8011C09980FA9A1EB08072E
:100F2000FF1D00B10120411901EBEA70A1693844AD
:100F3000081A401EA0612078C00602D42046FFF7A0
:100F4000C3FA099828B1D4E901219047206A401CCE
:100F500020622078C00622D52046FFF7B5FA1EE0B1
:100F6000002E04DBB34502DD01A8805D00E03020E7
:100F7000D4E901219047206A401C2062761CAAF126
:100F800001005FEA000A0AD100F00EFBC0680168A8
:100F9000405CD4E901219047206A401C2062281E51
:100FA000A5F10105DCDC07E0D4E9012118F8010B0B
:100FB0009047206A401C2062381EA7F10107F3DC2D
:100FC0002046FFF797FA032011B041E601694A1C59
:100FD00002610878704700B58FB0CDE9013100217A
:100FE000059105497944CDE9031011466846FFF79C
:100FF00023FB0FB000BD0000E5FFFFFF0A6802F809
:10100000010B0A607047D1E900239A4202D2531CB7
:101010000B601070704710B5436913B1AFF30080D7
:1010200001E0FFF778FA012010BD127800F12401E9
:101030000A7000224A700122EDE711684FF0FF327A
:10104000E9E700002DE9FF4F06468BB00878FF283E
:1010500006D0491C2D2805D000244FF0000908E0D7
:1010600000200CE00124F8E709EB8903491C00EBA0
:1010700043090878FF28F7D114B1C9F1000081466F
:10108000107800252C46AA4629462D2801D02B2869
:1010900004D1521C2D2813D0002082468B46107894
:1010A000FF280FD04FF0000C0A21521CA5FB01783D
:1010B00004FB018105FB0C11C5194BEB0104EEE7A4
:1010C0000120EAE7002108464FF00000BAF1000FC6
:1010D00002D000EB80004008C0F38157012F01DDF2
:1010E0004FF0FF370E9955EA040009EB01080BD0C9
:1010F0004FF0020918F5FA7F16DA4FEACA70002F8E
:10110000706008DD012007E04FEACA70C6E900B050
:101110000FB0BDE8F08F0020306000F049FAC0F851
:1011200000901821084616E0B8F5FA7F18DD002F68
:1011300002DAF748784401E0F6487844D0E9001034
:10114000C6E9001040EACA70706000F031FAC0F8D9
:101150000090142108460FB0BDE8F04F09F0AFBA77
:10116000002108464FF00000B8F10001099002DAB2
:10117000C7F1000200E03A4601DAC8F1000106A812
:1011800000F062FC06AB93E8070003AB83E80700BE
:1011900044F23E005BEA04010090584604D144F258
:1011A0001E012C465D460091210C0904014306D125
:1011B0000099240444EA15442D041039009104F0E8
:1011C0007F41014306D10099240244EA15642D02AF
:1011D0000839009104F07041014306D100992401BF
:1011E00044EA15742D01091F009104F040410143A8
:1011F00006D10099A40044EA9574AD00891E0091BF
:1012000004F00041084304D100986D196441401E68
:1012100000904FF001033A466846B8F1000FCDE95F
:10122000014503A902DD01F00CFA01E001F0DFF94C
:10123000BAF1000F04460D4601D084F000440021AD
:1012400008464FF00000099940F2FF77484010F03F
:101250000C0F07D124F00040284303D0C4F30A50F8
:10126000B84212D100F0A4F9C0F80090C4F30A50BB
:10127000B8420AD1A8487844D0E90010C6E9001065
:1012800004F000410843706042E7C6E900543FE7BC
:101290002DE9FF4F1F464FF0000A4FF0FF3845463B
:1012A00091B0D7E90146CDF83CA000F07DF9C068C7
:1012B0000168405C1090B96912986D1C8847396AC2
:1012C000814688470028F6D1B9F1FF3F0AD0002EA9
:1012D00024F4D06411DDB9F12B0F08D0B9F12D0F32
:1012E0000BD102E0404615B013E744F48064B969BD
:1012F00012986D1C8847761E8146600504A901D5A9
:101300002D2000E02B20002E01F1010B0DF1300803
:101310008DF810003FDDB9F1690F08D0B9F1490F20
:1013200005D0B9F16E0F02D0B9F14E0F1CD13B467A
:1013300001A8009580E85002DDE912126FF002006A
:1013400009F026FAC11CCED10EE0B96912986D1CC5
:10135000884781461398761E44F4007405600F9800
:10136000401C002E0F9016DDB9F1300FEDD0B9F111
:10137000780F02D0B9F1580F0DD10F9801280AD17A
:101380003B46CDE90054DDE91212001F029609F038
:10139000FDF9C11CA7D1109989453ED144F08004C4
:1013A00006E01399681CAAF1010A44F4007408606D
:1013B000B9696D1C1298761E884730288146F0D096
:1013C0002BE01099894505D1200603D4761E44F000
:1013D000800418E0484606F0B4FF08B3761E0DF10D
:1013E00023018B4544F4007408D2A9F130000BF8B6
:1013F000010B200607D5AAF1010003E0200602D464
:101400000AF101008246A00502D51399681C086004
:10141000B96912986D1C88478146002ED1DC53E0D3
:10142000002E51DDB9F1650F02D0B9F1450F4BD156
:10143000A00549D5B9696D1C1298761E24F4407434
:101440008847002E81460CDD2B2804D0B9F12D0FE2
:1014500007D144F48074B96912986D1C8847761ED0
:101460008146E00501D52D2100E02B2108F8011B64
:10147000CDF8008021E0761E0DF13901884544F455
:1014800000740CD2A9F1300010F0FF0088F80000C1
:1014900002D10099884509D908F1010806E0E00564
:1014A00001D51E4801E042F20F708246B9691298D8
:1014B0006D1C8847814613980560002E04DD484660
:1014C00006F03FFF0028D6D1F96912988847FF201F
:1014D00053468BF8000088F8000000200A900B901B
:1014E00004AA0CA90AA8FFF7ADFDA00502D46FF06D
:1014F0000100F8E614F0240F12D0E0071CD1386880
:10150000DDE90A12031D3B600068C0E9001213E028
:10151000F49C0000E69C0000AA9B0000F1D8FFFFAD
:101520000AA9684606F0FAFEE00705D13868009A75
:10153000011D3960006802602846D4E60268114443
:101540001378016018467047D160054979445161AC
:1015500004497944116200211161114600F0BAB8C2
:10156000EDFFFFFFED000000426842B1016811F895
:10157000013B23B1521EC0E90012184670470121F9
:10158000C160881E704742685AB1C368016843B998
:1015900083688B4205D0491E521CC0E9001200200E
:1015A00070474FF0FF3070470048704710550020DB
:1015B00000487047F054002030B5B0F10A024FEAFD
:1015C000900E71F100034EEA817EB0EB0E0061EBEC
:1015D00091014FEA101E4EEA017E10EB0E0041EB26
:1015E00011114FEA102E4EEA016E10EB0E0041EB86
:1015F00011214FEA104E4EEA014E10EB0E0041EB66
:101600001141401841F100014FEAD00040EA417019
:101610004FEAD10110EB80054FEA810444EA90744F
:1016200044EB01046D1944EB0404521BA3414FF039
:10163000000348BF0A3200D530BD401C41F1000113
:1016400030BD10B5044600F09BFA0068005D00F064
:10165000010010BD2DE9F0411F4604460326016834
:10166000072A01F4006004DB08B116A505E016A501
:1016700003E008B115A500E015A521F010002060D9
:10168000A069C01EA0610FB1401EA0612046FEF7F8
:101690001BFF4FB1D4E9012138469047206A401C16
:1016A0002062C01C206206E0206AFAE7D4E901212A
:1016B00015F8010B9047761EF8D22046FEF71AFF68
:1016C000BDE8F0814E414E006E616E00494E46000D
:1016D000696E66002DE9F34F4FF0000A0C4656463E
:1016E0008DB001200C9001F10C000B9062690B98F9
:1016F00001219047051E2DD0252D2CD0216A884729
:10170000C0B162690B9801219047216A884700287F
:10171000F7D16269411E0B98904700E0761CA169E1
:101720000D988847216A88470028F7D1E1690D980C
:101730008847DBE7A1690D988847A842074601D191
:10174000761CD3E7E1690D9888477F1C02D1BAF176
:10175000000F6FD06CE162690B9800273D46394657
:1017600090472A2804D162690B98012190470125EE
:10177000DFF8D08262690B9801219047A0F1300117
:101780000A290AD24745E5DC07EB870100EB410750
:10179000303FDFD445F01005ECE7E90601D46FF0E7
:1017A00000476C280AD04C2814D0682815D06A2825
:1017B0000DD074281CD07A281AD01DE062690B98CD
:1017C000012190476C2802D045F0040514E045F053
:1017D00002050DE045F020050AE062690B98012141
:1017E0009047682802D045F0080505E045F40065FB
:1017F00062690B9801219047C4E9015765283DD0E3
:1018000019DC58287AD00CDC452837D004DC252890
:1018100026D041289ED131E046282FD0472899D1A3
:101820002CE05B2877D0612828D063287CD06428FE
:1018300023D15AE0F7E06F2848D008DC66281DD095
:1018400067281BD0692821D06E2816D127E0702880
:1018500045D0732868D0752847D078280DD14DE041
:10186000A1690D988847252805463FF469AFE169CD
:101870000D9888476D1C3FF46AAFD9E00D99234657
:101880006A466FF0010008F07FFFC6E045F04000B7
:1018900023464FF000026060A80736D43EE0E80718
:1018A0007FF447AF2068011D21600068290501D53C
:1018B00006701BE7290701D5068017E7A90703D59E
:1018C000F117C0E9006111E706600FE745F040003D
:1018D00023464FF008026060A80716D41EE040F6C9
:1018E0000E0125EA0100606016E045F04000234645
:1018F0004FF00A026060A80707D40FE045F04000EF
:101900006060A80708D5234610220D996FF00100EA
:10191000AFF3008081E007E0102223460D996FF0BD
:101920000100AFF3008078E04FF0000963284F46D4
:10193000C8464B46CB4602D05B2807D039E0207919
:10194000C00601D40120A060012732E06269D4F80A
:101950000CB00B98012190475E2807D14FF0010988
:1019600049466269D4F80CB00B989047216939B99F
:1019700000210A4603AB43F82120491C0829FADB61
:10198000D8B3216949B308F1010862690B980121B4
:1019900090475D28F4D1B9F1000F09D0002003A9C8
:1019A00051F82020D24341F82020401C0828F7DBC2
:1019B00003AB2069002820794FEA40701ED05B46B7
:1019C0002246CDF80080CDE901970D9900286FF0EF
:1019D000010020DAAFF300801FE0C11703AA00EB7B
:1019E000D1614B1121F01F0102EB8302411A1368F0
:1019F0000120884003431360C7E719E00D99224690
:101A000000286FF00100009702DAAFF3008004E0D5
:101A1000AFF3008001E0AFF3008000280ADA401C39
:101A200006D10C9820B14FF0FF300FB0BDE8F08F19
:101A30005046FAE7E90701D10AF1010A06440020FD
:101A40000C9053E6CCCCCC0C2DE9F04781461646E1
:101A50008AB0354878440DC88DE80D003248784486
:101A6000801C03AC0DC884E80D0041F69B3008448F
:101A7000372190FBF1F290FBF1F5A5F1800501FB18
:101A800012041B3C02D56442012000E00020DFF874
:101A900098A080460027FA44AAF1BE0A0EE0E007AB
:101AA0000AD03246684607EB470101230AEB810161
:101AB00000F0B2FD8DE8070064107F1C002CEED111
:101AC000194F7F44AE3F19E0E80715D007EB04102B
:101AD0000DF1180A90E80E008AE80E00C068F04286
:101AE00001D1981908903246012306A903A800F0F5
:101AF00093FD03AB83E807006D10641C002DE3D158
:101B00004FF0010332466946B8F1000F03A802D036
:101B100000F058FD01E000F07FFDC9E90001C9F8BF
:101B200008200AB0BDE8F087EC8F0000004870473D
:101B3000F05400207546FFF7F9FFAE4605006946F0
:101B4000534620F00700854618B020B5FEF718FC74
:101B5000BDE820404FF000064FF000074FF00008AE
:101B60004FF0000B21F00701AC46ACE8C009ACE82F
:101B7000C009ACE8C009ACE8C0098D467047000058
:101B800010B5FFF711FD001D10BD00BF2D86000030
:101B90002DE9FF4F1F464FF03C0987B04FF0004240
:101BA000DDE9141001F10108DDF858A002EA405007
:101BB0000390002005908346054604460490B969C9
:101BC000461E08988847AAF1010A0290BAF1000F50
:101BD0003BDD02982E2815D0102100F01FFA0028B6
:101BE0002EDB4FF0010B0599014317D0B9F1000F1F
:101BF0000BDB4A46C11700F0FEF905430C43A9F17F
:101C0000040905E0012004900BE008B145F001054E
:101C100001200590049820B9361D02E0049800B117
:101C2000361FB969089808F101088847BBF1000F11
:101C3000AAF1010A0290C9D00999C1F80080C5E74C
:101C40000298702808D0502806D0F969089888476B
:101C5000BBF1000F14D04FE0002002900120BBF137
:101C6000000F049009D0B969089808F10108884765
:101C7000AAF10109B9F1000F07DCF9690898884752
:101C80006FF001000BB0BDE8F08F2B2804D02D2899
:101C90000CD14FF0FF300490B969089808F10108A1
:101CA0008847A9F10109B9F1000FE6DD411CE4D034
:101CB0000A2100F0B3F90028DFDB029908F10108DE
:101CC00001EB810100EB41000290B9690898884757
:101CD0000A2100F0A3F9099AA9F10109B9F1000F4D
:101CE000C2F8008001DD0028E7DAF9690898884722
:101CF0000499029800FB016655EA040004D004F040
:101D00004041090002D006E0039898E0A40044EAAC
:101D10009574AD00B61E04F00041080002D16D19A3
:101D20006441761E159810F0240F03D04FF00B0974
:101D30005C4803E04FF028096FF07D00824656456D
:101D400007DAAAEB06018944B9F1410F01DD4FF032
:101D5000410901200021A9F1010200F04CF90246DD
:101D600028400B462140084301D0012100E000211A
:101D7000501E029143F1FF3128402140084301D019
:101D8000012000E000200299834651EA0B014FD068
:101D9000002108464FF00000039900F4400039B1DB
:101DA00000EB80004FF4400100EBD07001EA6000CE
:101DB0008015012802DD4FF0FF3000E013D0401CF9
:101DC00036D0029860B3BBF1000F0CD14A46012017
:101DD000002100F010F928402140084301D00120E3
:101DE00000E00020E0B101204A46002100F003F9A4
:101DF000034640190A4661412D1A8C4111D3B9F1AD
:101E0000400F09DD159810F0240F02D0AAF1340616
:101E100003E0AAF1170600E0761C00254FF000440D
:101E200006E05B1E42F1FF3220EA030521EA0204CC
:101E3000CAF10100B04206DA1B4903980843019039
:101E4000002000900EE0039AC4F3D321E80A0A436D
:101E5000164940EA44500A433146CDE9000268463B
:101E600006F065FA159810F0240F0BD01598C007EE
:101E700015D13868DDE90012031D3B600068C0E938
:101E800000120CE002A8694606F048FA1598C0074F
:101E900005D13868029A011D396000680260404629
:101EA000F0E6000002FCFFFF0000F07F0000F03FC2
:101EB0002DE9FF4F92461D4685B04FF00041DDE908
:101EC000124BDDE914727F1E01EA4B50414940F08C
:101ED000FF4940EA0108002122F02000492804912E
:101EE00002D04E2828D04CE03BA0012607C88DE840
:101EF0000700A9690698641C88477F1E014606D41E
:101F00001DF8060018B121F0200181420BD0E969CB
:101F100006988847032E34D0082E32D06FF0010087
:101F200009B0BDE8F08F761C032E01D0082EE0D159
:101F3000601CCAF80000DCE7A9690698641C8847A1
:101F40007F1E2AD420F02000412826D1A9690698B6
:101F5000641C88477F1E20D420F020004E281CD10E
:101F6000A9690698641C88477F1E48F4002849F434
:101F70008009CAF8004001D4282806D0E9690698EB
:101F800088475FEACB7012D022E0A9690698641CEA
:101F900088477F1E01D4002803DAE969069888473C
:101FA000BCE72928F1D1641CCAF80040E9E71BF01E
:101FB000240F07D028680499031D2B600068C0E92E
:101FC000001805E02868021D2A600068C0F800902B
:101FD0002046A5E70000F07F494E46494E49545936
:101FE0000000000010B50446AFF300802046BDE8B5
:101FF0001040FEF751B9B2F120030AD5C2F1200317
:1020000001FA02F120FA03F300FA02F041EA0301B7
:10201000704700FA03F14FF0000070473A2800D2F1
:10202000303820F02002412A01D3A2F13700884243
:1020300001D34FF0FF30704701491820ABBEFEE7D7
:102040002600020070475FEA400C08BF91F0000FC5
:102050004FEA8C234FEAC12243EA51514FEA1C5008
:1020600018BF00F5F0404FEA300018BF41F00041C2
:102070005FEA6C5C00F02980BCF1FF3F08BF40F0D4
:1020800080407047130C06BF12044FF0100C4FF045
:10209000000C130E04BF12020CF1080C130F04BF46
:1020A00012010CF1040C930F04BF92000CF1020C0E
:1020B000D30F04BF52000CF1010C11464FF0000287
:1020C000A0F11F00A0EB0C00704711F0004F08BFFB
:1020D000704731F000413FF4D5AF0B0C06BF090447
:1020E0004FF0100C4FF0000C0B0E04BF09020CF166
:1020F000080C0B0F04BF09010CF1040C8B0F04BF7B
:1021000089000CF1020CCB0F04BF49000CF1010C4B
:10211000CCF12003A0EB0C0022FA03F302FA0CF23C
:1021200041EA030100F10100704720F07F4C80EA92
:10213000030023F07F47ACEB070303F57C5300F06B
:10214000004003F1FF032DE980494FEA154B09B424
:102150004FEA144325EA0B4E24EA03480FF2042603
:1021600006EB132749083E785FEA320203FB066755
:10217000C7F5000707FB06F64FEA54374FEAD64685
:1021800006F1020607FB066CCCF1005C4FEA1C4727
:102190002CEA074C07FB06F40CFB06F504EB15468E
:1021A0004FEA961634BF00204FF000404FEAD13777
:1021B00006FB07FC4FEA1C4C0CFB0BF7D21B03FB86
:1021C0000CF761EB07010CFB0EF7B0EB074072EB6D
:1021D00017420CFB08F734BFA2EB0742B2EB0742F1
:1021E00061EB17414FEA0C444FEA910706FB07FCED
:1021F0004FEA1C4C0CFB0BF7B0EBC74072EB5732AD
:1022000003FB0CF734BFA2EBC742B2EBC74261EB52
:1022100057310CFB0EF7B0EBC70072EB57720CFB9B
:1022200008F734BFA2EBC702B2EBC70261EB5771EC
:10223000039F4FEA816141EA921104EBCC044FEA1B
:10224000D1374FEA826206FB07FC42EA90124FEA5E
:1022500080604FEA1C4C0CFB0BF7D21B03FB0CF706
:1022600061EB07010CFB0EF7B0EB074072EB174276
:102270000CFB08F734BFA2EB0742B2EB074261EB5D
:1022800017414FEA8C554FEA910704EB9C2406FB5B
:1022900007FC4FEA1C4C0CFB0BF7B0EBC74072EB92
:1022A000573203FB0CF734BFA2EBC742B2EBC74275
:1022B00061EB57310CFB0EF7B0EBC70072EB5772B6
:1022C0000CFB08F734BFA2EBC702B2EBC70261EB0D
:1022D000577115EB4C254FEA816141EA92114FEAA3
:1022E00082624FEAD13742EA901206FB07FC44F1C2
:1022F00000044FEA80604FEA1C4C0CFB0BF7D21B2A
:1023000003FB0CF761EB07010CFB0EF7B0EB07408A
:1023100072EB17420CFB08F734BFA2EB0742B2EB9B
:10232000074261EB174115EB1C154FEA813141EA79
:1023300092414FEA823242EA90424FEA80304FEABD
:102340000C7644F1000448EA03434EEA0B484FF090
:10235000000EB2EB080C71EB030724BF624639464E
:102360004EEB0E0E4FF0000B0018524149414BEB63
:102370000B0BB2EB080C71EB03077BF1000B24BFD6
:10238000624639464EEB0E0E4FF0000B00185241DC
:1023900049414BEB0B0BB2EB080C71EB03077BF1E4
:1023A000000B24BF624639464EEB0E0E51EA02077F
:1023B00018BF46F0010616EB0E7655F1000254F1F7
:1023C000000103D5BDE88901BDE80088BDE88901A9
:1023D000BDE80048B619524141EB0101A3F10103E8
:1023E000704780807F7E7D7C7B7A79787776767582
:1023F0007473727171706F6E6E6D6C6C6B6A6A69FA
:102400006868676666656464636362616160605F93
:102410005F5E5E5D5D5C5C5B5B5A5A59595858570C
:102420005756565555555454535352525251515074
:1024300050504F4F4F4E4E4D4D4D4C4C4C4B4B4BC7
:102440004A4A4A494949484848474747474646460D
:102450004545454444444443434343424242424148
:102460004141000046EA0646A3F570534FEA16467E
:1024700046EA42564FEAD22242EA415210B54FEAAA
:10248000D121A3F1010300F02FF820F0004000F16A
:10249000020C00F0004701EB00501146BCF5006F44
:1024A00040EA070000D210BDBAF1000F0AD01CB5F7
:1024B00003B44FF004004FF004014FF000000FBCD4
:1024C000BDE810404FF00001BBF1010FB9BF044857
:1024D0004FF0FF310348002140EA070010BD00BF64
:1024E000FFFFEF7F0000F07F002B9C4630D4770089
:1024F0002BD01CB54FEA370703B44FF010004FF054
:102500001001BAF1000F06D0BCF1000FDCBF40F0A3
:10251000080040F008014FF000000FBCBDE810407B
:102520000BF1010BBBF1010F08BF5FEA170722BFD8
:1025300012F1010211F101014FF0004143F10003DA
:1025400000F0004043EA00007047F9D35708D0E795
:1025500046EA064613F1400F4FEA16461FDD13F117
:10256000200FDFBF16430A46002120335B42BED056
:10257000C3F1200746EA064602FA07F74FEA164675
:1025800046EA0706C3F1200722FA03F201FA07F729
:1025900021FA03F14FF0000342EA0702A7E746EAF7
:1025A000020646EA06464FEA164646EA0106BCBF60
:1025B00046EA0646360C4FF000034FF000024FF09B
:1025C000000194E72DE9804C9A46934670B491E857
:1025D000380007C831EA400C48BF34EA430C03D541
:1025E000FFF7A3FDFFF780FFF0BCBDE8008C2DE9ED
:1025F000804C9A46934670B491E8380007C831EA97
:10260000400C48BF34EA430C03D5FFF78EFDFFF7BB
:1026100029FFF0BCBDE8008C2DE9804C9A4693461A
:1026200070B491E8380007C810F0804F08BF13F06D
:10263000804F03D100F01AF8FFF756FFF0BCBDE859
:10264000008C2DE9804C9A46934670B491E838008E
:1026500007C810F0804F08BF13F0804F03D100F07F
:1026600005F8FFF7FFFEF0BCBDE8008C20F07F47C7
:1026700080EA030023F07F4C07EB0C03A3F57C53A7
:1026800000F00040A3F1FE0392F0000F00F0B380D1
:1026900095F0000F00F077802DE901494FEA1140D5
:1026A0004FEA144621EA004800FB06FC24EA0647EC
:1026B00008FB06F607FB08F800FB07F718EB0648CF
:1026C0004CEB164C4FEA124B18EB07484FEA1546F5
:1026D0004CEB174022EA0B4E0BFB06FC25EA0647A3
:1026E0000EFB06F607FB0EFE0BFB07F71EEB064E76
:1026F0004CEB164C4FF000061EEB074E4CEB174B05
:1027000018EB0B0840F1000018EB0E0B58EB00081B
:1027100040F100008F1A4FF000013CBFC943661B17
:1027200014BFB5EB040C00213CBFC943F61B4FEAB4
:1027300017444EEA8E0E27EA04454FEA1C4704FB75
:1027400007622CEA074C05FB07F70CFB05F604FBB8
:102750000CFC16EB074642EB174216EB0C4642EB1D
:102760001C421BEB060658EB0202414146EA9E065C
:1027700001D5BDE80189B619524141EB0101A3F130
:102780000103BDE801894FEA14454FEA114724EAE5
:10279000054621EA074C05FB07F406FB07F70CFB8F
:1027A00006F105FB0CFC11EB074144EB17444FEA23
:1027B000124711EB0C4144EB1C4422EA074C05FB89
:1027C00007F206FB07F70CFB06F605FB0CFC16EB05
:1027D000074642EB174216EB0C4642EB1C456A18C3
:1027E00054F1000148BF7047B619524141EB010155
:1027F000A3F10103704795F0000F37D04FEA114263
:102800004FEA144721EA024624EA074C02FB07F18B
:1028100006FB07F70CFB06F402FB0CFC14EB074469
:1028200041EB17414FEA154714EB0C4441EB1C41B7
:1028300025EA074C02FB07F506FB07F70CFB06F63B
:1028400002FB0CFC16EB074645EB174516EB0C4656
:1028500045EB1C42121951F1000148BF7047B619EF
:10286000524141EB0101A3F1010370474FEA1445C6
:102870004FEA114724EA054621EA074C05FB07F118
:1028800006FB07F70CFB06F24FF0000605FB0CFCFD
:1028900012EB074241EB174112EB0C4251EB1C418A
:1028A00048BF7047921841EB0101A3F10103704743
:1028B00010B50146806B026C12F0500F05D0026C0F
:1028C000D20626D501F0C4F910BD016C41F40071A7
:1028D000016401688A6812F0405F17D1027EAAB9CC
:1028E000CA6A12F4700F02D08A6852050ED44A6880
:1028F00022F020024A60016C21F480710164016CB5
:10290000C90403D4016C41F00101016401F09EF996
:1029100010BD806BC26CBDE810400846104710B572
:10292000806B40210164416C41F00401416401F07D
:102930008FF910BD10B5806B01F089F910BD000052
:10294000464910B54A6822F440324A604A684368F2
:102950001A434A6001684A6822F480724A6001683A
:102960004A68036942EA03224A6001684A6822F021
:1029700040724A6001684A6883681A434A60016885
:102980008A6822F400628A6001688A68C3681A4310
:102990008A60816A6FF07062D14201688A6822F0B1
:1029A00070628A6001688A680CD0836A1A438A6000
:1029B00001688A6822F040528A6001688A68C36AA6
:1029C0001A4301E022F040528A6001688A6822F0CE
:1029D00002028A6001688A68037E42EA43028A60D2
:1029E00090F82010002901684A680FD042F4006274
:1029F0004A6001684A6822F460424A6001684A6895
:102A0000174C436A04EB43331A4301E022F400629B
:102A10004A600168CA6A22F47002CA620168CA6A1E
:102A2000838B104C04EB03531A43CA6201688A6813
:102A300022F400728A6001688A6890F8303042EAB5
:102A400043228A6001688A6822F480628A60016891
:102A50008A68406942EA8020886010BD00230140F6
:102A600000E0FFFF0000F0FFFEE7000030B5047853
:102A70000123424A4249B3B0062C77D2DFE804F082
:102A80007603090F38423F480370642310223EA1A9
:102A900033E04248037064230F2241A12DE0B0F8D7
:102AA0000100B2EE041A40BA00EE100A404BF8EEF4
:102AB000400A80EE810A10EE100A81ED010A984268
:102AC00003DD9FED3C0A81ED010A10EE100A9060D3
:102AD00007F07AFDCDE9000137A2802102A8FDF7B9
:102AE000D9FC02A8FDF78AFE82B2642302A904E0A1
:102AF000394803706423102238A13D4803F072FB6B
:102B000033B030BDB3EE040A82ED000A9FED390AFE
:102B100082ED010A4868906007F056FDCDE900019A
:102B200035A2802102A8FDF7B5FC02A8FDF766FEDC
:102B300082B2642302A92E4803F054FB0F4800F030
:102B400075FD78B101F06EFF034633A2402122A843
:102B5000FDF7A0FC22A8FDF751FE82B2642322A952
:102B6000CBE703E06423122235A1C6E7234639A24E
:102B7000802102A8FDF78EFCB3E700007001002061
:102B8000140000209400002043414E20434D443A5D
:102B90002053544152540D0A0000000095000020BB
:102BA00043414E20434D443A2053544F500D0A00A8
:102BB000000096430000964343414E20434D443A63
:102BC000205345545F535045454420252E316620FF
:102BD00052504D0D0A0000009600002043414E2047
:102BE000434D443A20434C4541520D0A0000000039
:102BF000340300209A99993E43414E20434D443A74
:102C00002053415645205441524745543D252E31CD
:102C1000662052504D0D0A0043414E20434D443A28
:102C20002053415645204641494C45442C204552AD
:102C3000524F523D30782530386C580D0A00000054
:102C400043414E20434D443A2053415645204F4B7B
:102C50000D0A000043414E20434D443A20554E4B4F
:102C60004E4F574E203078253032580D0A00000064
:102C700010B58AB040F2011405E00098A04202D1DC
:102C800007A8FFF7F3FE07A9684600F00BF8002835
:102C9000F3D10AB010BD0000014801F07ABA00007B
:102CA0002802002070B5124C0D46617822789142BE
:102CB00001D1002070BD61780E4E01EBC10106EB21
:102CC00081011C22FDF749FE0020617801EBC10162
:102CD00006EB81010144097F2954401CC0B2082839
:102CE000F3D36078401C00F007006070012070BDD5
:102CF00070000020E40400202DE9F041144C0F4640
:102D00002178491C01F0070561788D4205D1A06842
:102D1000401CA0600020BDE8F08121780D4E01EB41
:102D2000C10106EB810301461C221846FDF715FE82
:102D300000202278395C02EBC20206EB82020244D8
:102D4000401CC0B211770828F3D325700120E2E7B8
:102D500070000020E404002070B5274BF2EE040A56
:102D60008AB093ED000A40F20125082620EE200AE1
:102D7000BCEEC00A10EE101A93ED010A20EE200AF4
:102D8000DFED1E0ABCEEC00A10EE100A93ED030A36
:102D900020EE200ABCEEC00A10EE102A93ED050AC0
:102DA0000095002501950295CDE903568DF8145044
:102DB0000D0A8DF818508DF81910010A8DF81A10A7
:102DC000BCEEC00A8DF81B00100A8DF81C0010EE36
:102DD000104A8DF81D208DF81E40187E8DF81F00BA
:102DE00008AB06AA6946064801F06AF8002801D037
:102DF00000F0D4F90AB070BD140000200000C842F1
:102E00002802002000B58BB000200121CDE9060189
:102E10000590009001900290039004900E20CDE95F
:102E2000081069460C4801F0B3F808B100F0B6F993
:102E3000094801F099FB08B100F0B0F902210648F9
:102E400001F02CF8002804D00BB05DF804EB00F082
:102E5000A5B90BB000BD000028020020014801F018
:102E600011BC00007C030020014801F00BBC0000F5
:102E7000C801002001681823CAB2103AB2FBF3F26D
:102E8000054B6FF30901032A9B5CC36500D9091D3B
:102E900081650846704700002CA9000810B501465E
:102EA00000208B698A6A4FF0C07453B1B3F5005F9C
:102EB00015D072B1012A0CD0022A0AD0032A09D1F6
:102EC00004E01AB1012A06D0022A03D1C96AC90155
:102ED00000D5012010BDC96AA142FAD010BD002A58
:102EE000F7D0012AF2D0022AF3D0032AF3D010BD82
:102EF00030B50468256825F4802525600468636082
:102F00008368402B036803D099600068C26030BDBD
:102F10009A600068C16030BD014840687047000099
:102F2000001000E00648016841F08071016005482A
:102F300000214160016841F001010160704700001B
:102F4000FCED00E0001000E07047000010B503F059
:102F5000B3FD03F085FD0021084603F0A7FD03A0A3
:102F600003F006FEBDE8104003F0B0BE4D4F544FD5
:102F70005220434F4E54524F4C00000010B588B0C1
:102F800003F06EFD0021084603F090FD3BA003F026
:102F9000EFFD3E4C206807F017FBCDE900013CA295
:102FA000182102A8FDF776FA0821002003F07EFD23
:102FB00002A803F0DDFD606807F006FBCDE9000123
:102FC00036A2182102A8FDF765FA1021002003F0AF
:102FD0006DFD02A803F0CCFDE06807F0F5FACDE93D
:102FE000000131A2182102A8FDF754FA182100208F
:102FF00003F05CFD02A803F0BBFD206907F0E4FAD2
:10300000CDE900012BA2182102A8FDF743FA2021E7
:10301000002003F04BFD02A803F0AAFD606907F051
:10302000D3FACDE9000125A2182102A8FDF732FA52
:103030002821002003F03AFD02A803F099FD6389DE
:1030400021A2182102A8FDF725FA3021002003F063
:103050002DFD02A803F08CFD237E1DA2182102A8DD
:10306000FDF718FA3021502003F020FD02A803F0EC
:103070007FFD03F02BFE08B010BD00004D4F544FF4
:103080005220434F4E54524F4C0000001400002079
:1030900052504D3A20252E31660000005447543AD4
:1030A00020252E31660000004355523A20252E334C
:1030B00066000000563A20252E32660054454D50D9
:1030C0003A20252E3166000050574D3A20256400E5
:1030D000464C543A2025640009480068416A094872
:1030E0009FED090A418081800021C18080ED020AA4
:1030F00080ED030A0170054880ED000A704700006A
:10310000EC020020800000200000000014000020DD
:103110001A480068416A1A48DFED1A0A9FED1A1A28
:10312000818042888A1A12B200EE102AC280418041
:10313000B8EEC00A20EE200AC0EE010A9FED131A75
:1031400080EE810A80ED020A017889B1D0ED030A90
:103150009FED0F1A60EE810A9FED0E1A40EE010AF4
:10316000C0ED030A90ED030A0B4880ED000A70479A
:1031700080ED030A01210170F4E70000EC02002059
:10318000800000200000704200008244CDCCCC3D85
:103190003333333F9A99993E1400002072B6FEE70C
:1031A000002229B101291AD002291BD04FF4407204
:1031B0000E490B6823F440730B600B6813430B60DC
:1031C0000A6822F0F8020A600A68022303EBC000D2
:1031D00002430A60086840F48030086070474FF48A
:1031E0008072E5E74FF40072E2E70000103C024015
:1031F0001348016889050FD5016821F40071016049
:10320000016841F400610160016821F4006101601E
:10321000016841F400710160016849050FD501683A
:1032200021F480610160016841F48051016001680E
:1032300021F480510160016841F4806101607047B0
:10324000003C024008490A6822F440720A600A6899
:1032500042F004020A600A684FF4803343EA002017
:1032600002430A6070470000103C0240064A13689F
:1032700023F44073136013681360136843F0010371
:103280001360017070470000103C0240094910B5FE
:103290000C6824F440740C600C6844F440740C60B6
:1032A0000C6844F001040C600260BFF36F8F436050
:1032B00010BD0000103C0240074A136823F440731D
:1032C0001360136843F480731360136843F00103C1
:1032D0001360018070470000103C0240074A1368E9
:1032E00023F440731360136843F40073136013688E
:1032F00043F001031360016070470000103C02407E
:1033000017490868C206174805D5C26942F010027D
:10331000C26110220A600A68920605D5C26942F0AD
:103320000802C26120220A600A68520605D5C269F5
:1033300042F00402C26140220A600A68120605D502
:10334000C26942F00202C26180220A600A689207E2
:1033500005D5C26942F02002C261022008607047B0
:103360000C3C0240F40B002070B5114904460020CB
:10337000C86101F0B9FC06460E4D09E0601C07D09B
:1033800024B101F0B1FC801BA04201D9032070BD23
:103390002868C003F2D42868C00701D00120286043
:1033A000286810F0F200F2D0FFF7AAFF012070BDEC
:1033B000F40B00200C3C0240084A10B508490020DC
:1033C0001076087048708870C8700871086148717C
:1033D0001072508103F0E2FA012010BD14000020A9
:1033E0003000002070B5094C00256561A57125707D
:1033F0006570A570A56001F077FCE0600448057673
:10340000E57025712561657170BD000030000020F8
:10341000140000202DE9F0412DED028B01F064FC39
:10342000564CE168401AB0F57A7F17D3544D002608
:1034300001272A7E012A17D16079A8B101F054FC36
:103440002169401A40F6B831884207D36671207965
:10345000032807D2401C20712E762F72BDEC028B00
:10346000BDE8F08107204AE0D5E90310D5ED008AD8
:1034700095ED018A6B89D5F814C0072AEED0414A30
:10348000944509DB2278032A04D2521CD2B222705E
:10349000032A02D3022032E026703B4A904201DA2E
:1034A00004202CE0B0F1824F01DD052027E03748F1
:1034B000814209DB6078032804D2401CC0B26070EE
:1034C000032802D303201AE06670287A20B318EE8E
:1034D000100ADFF8BC8040451ADB40F63400834216
:1034E00016D318EE900A2B49884211DAA0780528E5
:1034F00004D2401CC0B2A07005280AD3062028764A
:103500002E726E81BDEC028BBDE8F04103F046BA2D
:10351000A670A07920B108E0A670E670A6719DE7BC
:10352000A77101F0E1FB6061E67001F0DDFB61690C
:10353000401A40F2DC51884290D318EE100A404500
:1035400019DB38EE680A1449B0EEC00A10EE100A12
:10355000884210DBE078032804D2401CC0B2E0703F
:103560000328DCD32F762E726E8103F017FA01F058
:10357000BBFB20616771E67070E70000300000203F
:103580001400002000008C420000D0409A99193E9F
:10359000000048420000A0410000F04130B5034661
:1035A0000A4C4FF0FF300022995C48400021C507CB
:1035B00002D084EA500000E04008491CC9B2082942
:1035C000F5D3521C0C2AEFD330BD00002083B8ED98
:1035D00010B50446124890ED000A84ED000A90ED03
:1035E000010A84ED010A90ED020A84ED020AC06826
:1035F000E0602046FFF7D2FFE16881420FD0B3EED2
:10360000040A84ED000A9FED070A204684ED010AB2
:103610009FED050A84ED020AFFF7C0FFE06010BDD0
:1036200000000E089A99993E0000A042F0B5A5B09E
:10363000002605464D4C1F96FFF7B0FFE86001F0ED
:103640003FFA4B49F32008600B201C9001201D908D
:1036500002201E901A961FA91AA801F097F980B1AE
:1036600001F0E0F903461F98009042A2642101A8EE
:10367000FCF710FF01A8FDF7C1F882B2642301A98D
:103680000EE0D5E90027D5E9026500232146022096
:1036900001F0D8F950B101F0C5F9034642A22BE080
:1036A0004B4802F09FFD01F0C3F954E02F493A4620
:1036B0000023091D022001F0C5F920B101F0B2F983
:1036C000034644A218E0294932460023083102206B
:1036D00001F0B8F920B101F0A5F9034647A20BE0CB
:1036E00022492A4600230C31022001F0ABF970B1C7
:1036F00001F098F903464BA264216846FCF7CAFE24
:103700006846FDF77BF882B264236946C8E701F09A
:103710008FF994ED000A8DED200A94ED010A8DEDEC
:10372000210A94ED020A8DED220AE068239020A878
:10373000FFF734FF2399884210D044A264216846E1
:10374000FCF7A8FE6846FDF759F882B26423694683
:103750001F4802F047FD012025B0F0BD642311226F
:1037600043A11B4802F03EFD0020F5E700000E08D3
:103770000C3C0240464C41534820455241534520A1
:103780004641494C45443A204552524F523D3078CB
:103790002530386C5820534543544F523D307825DE
:1037A00030386C580D0A0000464C4153482057529F
:1037B00049544531204641494C45443A20455252EE
:1037C0004F523D30782530386C580D0A000000000B
:1037D00034030020464C4153482057524954453247
:1037E000204641494C45443A204552524F523D30C3
:1037F000782530386C580D0A00000000464C4153C3
:103800004820575249544533204641494C45443A93
:10381000204552524F523D30782530386C580D0AB1
:1038200000000000464C415348205752495445344B
:10383000204641494C45443A204552524F523D3072
:10384000782530386C580D0A00000000464C415372
:103850004820564552494659204641494C45443A2C
:1038600020435243204552524F520D0A000000009F
:10387000464C41534820564552494659204F4B0D1E
:103880000A0000002DE9F04FADF5417D00263246DB
:10389000102102A805F06CFB474904460023087874
:1038A000DFF81891002802AF09F1400A184614D039
:1038B0004D4656460CE000BF00EBC00257F822C050
:1038C00007EB820245F820C0926946F82020401C90
:1038D000A042F1D30B703A4867E00DF5137B1EE070
:1038E00000EBC00E4BF8203057F82E505A460021FE
:1038F0004FEA090C5CF82180A8450AD107EB8E0538
:103900005AF82110D5F818C0ACEB010142F820108C
:1039100003E0491C1029EDD319460E44401CA04277
:10392000DED3284804F0C8F8002526E09FED260ADB
:103930007EB15BF8250000EE100AF8EE400A00EEBA
:10394000106AB8EE401A80EE810ADFED200A20EE00
:10395000200A10EE100A06F037FECDE9000105EB53
:10396000C50007EB80001AA2436880219DA8FCF7E0
:1039700091FD9DA804F0A0F86D1CA542D6D318A017
:1039800004F09AF80020494652460BE000EBC003D1
:1039900057F8235007EB830341F820509B6942F806
:1039A0002030401CA042F1D3154804F085F80DF5F5
:1039B000417DBDE8F08F0000A4000020440A0020F3
:1039C00098AD00086CAC0008000000000000C84280
:1039D000252D3230732025362E326625250D0A001E
:1039E0002D2D2D2D2D2D2D2D2D2D2D2D2D2D2D2D07
:1039F0002D2D2D2D2D2D2D2D2D2D0D0A00000000EE
:103A000054AD0008F0B5ADF2745D4FF4B4710DF231
:103A10000C40FCF7FEFF002210210DF20C4005F0D7
:103A2000A7FA05464FF480671C4A394603A8FCF7FD
:103A300031FD03A804F040F800240DF20C4625E007
:103A400004EBC40006EB8001087B05280ED2DFE8FA
:103A500000F0030507090B0011A008E011A006E023
:103A600012A004E013A002E014A000E014A00B696F
:103A70000A8CCDE9000302924B6812A2394603A8D2
:103A8000FCF708FD03A804F017F8641CAC42D7D378
:103A900012A004F011F80DF2745DF0BDC8AC00087E
:103AA00052554E005245414459000000424C4F438C
:103AB0004B000000535553500000000044454C009B
:103AC0003F000000252D32307320252D3573202531
:103AD0002D396C7520256C750D0A00003D3D3D3D6E
:103AE0003D3D3D3D3D3D3D3D3D3D3D3D3D3D3D3D06
:103AF0003D3D3D3D3D3D3D3D3D3D3D3D3D0D0A0096
:103B000078B50024009490F83C20012A19D00122B5
:103B100080F83C200A6807230568092A13D9EE6853
:103B20000A3A02EB420293409E43EE600B788A68A9
:103B30000A3B03EB43039A400368DD682A43DA60DB
:103B400010E0022078BD2E6902EB420293409E43B2
:103B50002E610B788A6803EB43039A4003681D6962
:103B60002A431A614A681F23072A13D205686E6B1D
:103B7000521E02EB820293409E436E630B790A88C9
:103B80005B1E92B203EB83039A4003685D6B2A438A
:103B90005A6327E005680D2A12D22E6BD21F02EB62
:103BA000820293409E432E630B790A88DB1F92B2F8
:103BB00003EB83039A4003681D6B2A431A6311E0E9
:103BC000EE6A0D3A02EB820293409E43EE620B795D
:103BD0000A880D3B92B203EB83039A400368DD6AC7
:103BE0002A43DA62164B0568144A9D4206D10D68D5
:103BF000122D03D1556845F48005556005689D4236
:103C000018D10B68102B01D0112B13D1536843F43A
:103C100000035360096810290CD10A490A4A09684F
:103C2000B1FBF2F101EB8101490000E0491E009176
:103C30000029FBD180F83C40002078BD00230140E2
:103C400000200140C800002040420F00704770472C
:103C5000704770B504004FF0000503D0206C0026BB
:103C600010B107E0012070BD204600F01DF8666429
:103C700084F83C60206CC00610D4206C20F488507E
:103C800040F0020020642046FEF75AFE6664206C75
:103C900020F0020040F00100206400E0012584F8DB
:103CA0003C60284670BD0000F0B587B00646142180
:103CB0006846FCF7AEFE1F493068884238D11E487E
:103CC0000025016841F480710160006800F4807093
:103CD000059019481438016841F00101016000683D
:103CE000032700F0010005901320CDE90007694685
:103CF0000295124800F0FAFE124C1148C4E9000582
:103D00000015A560C4E90350400060618000A06117
:103D10004011C4E9070504206062C4E90A75204621
:103D2000256300F07FFD08B1FFF738FAB463A6639E
:103D300007B0F0BD002001404438024000000240BE
:103D400010640240C8010020F8B5044600200E4669
:103D5000009094F83C10012907D0012184F83C1010
:103D600021688B68DB0702D011E00220F8BD8B6868
:103D700043F001038B604049404B0968B1FBF3F10C
:103D800001EB410100E0491E00910029FBD12168AF
:103D90008B68DB0503D58B6823F480738B60216807
:103DA0008B68DB075DD0236C40F20165AB4343F4C5
:103DB000807323644968490505D5216C21F40051BD
:103DC00041F480512164216CC90404D5616C21F057
:103DD0000601616400E0606484F83C00A16B29483E
:103DE000274DC863A16B28480864A16B2748C864A5
:103DF00021686FF0220008602068416841F080610E
:103E000041602068816841F48071816021681346B7
:103E100032464C31A06B00F06FFD68681C49C0064B
:103E2000206806D0884224D1816811F0405F13D009
:103E30001FE08842F8D0174A904203D1D1F80423FA
:103E4000D206F1D0144A904213D1D1F8041301F0F4
:103E50001F011029E8D30CE0816841F080418160A6
:103E600007E0206C40F010002064606C40F001001E
:103E700060640020F8BD0000C800002040420F0030
:103E800000230140B1280008352900081F29000837
:103E900000200140002101400022014090F8202034
:103EA000012A07D0022A05D0416A41F480214162EB
:103EB00001207047006842690A4342610020704750
:103EC000F0B590F820500468A468012D05D0022DAB
:103ED00003D0416A41F4802157E014F0406F01D1D2
:103EE000E5004FD5C4F301640125A5401D608D6830
:103EF0004FF4C0739DB1CE6835434E6845EAC605A0
:103F0000066803EB0417F5514FF4C275076805EB1B
:103F100004150E697E51097D012905D009E00E883E
:103F2000CD6845EA4655EBE701684E5946F4807680
:103F30004E511179D579567941EA056195792D046B
:103F400045EA062529434FF4C676056806EB0416B4
:103F5000A9511178D57841EA0561957852782D04F8
:103F600045EA022211434FF4C475026805EB0415BB
:103F70005151006803EB0411425842F001024250D3
:103F80000020F0BD416A41F4001141620120F0BD02
:103F900010B590F82020012A07D0022A05D0416AE6
:103FA00041F480214162012010BD3B48D0F800223D
:103FB00042F00102C0F80022D0F8002222F47C5224
:103FC000C0F80022D0F800224B6A42EA0322C0F86F
:103FD00000220A7D02F01F0301229A40D0F81C3211
:103FE0009343C0F81C32CB69B3B9D0F80C32934379
:103FF000C0F80C328C894B6864F31F434C6900EBAA
:10400000C404C4F840320C890B6864F31F434C6944
:1040100000EBC404C4F84432CB69012B16D1D0F8AC
:104020000C321343C0F80C320C884B6864F31F4306
:104030004C6900EBC404C4F840320C89CB6864F3CB
:104040001F434C6900EBC404C4F844328B69002B55
:10405000D0F804320ED01343C0F804320B69002BA1
:10406000D0F8143208D01343C0F81432096A012979
:1040700004D008E09343EFE79343F5E7D0F81C1230
:104080001143C0F81C12D0F8001221F00101C0F851
:104090000012002010BD000000640040704770B5A1
:1040A00090F82040012C05D0022C03D0416A41F445
:1040B000802128E0046809B32469A40720D04FF4C4
:1040C000D874056804EB01142D5915F004059560AA
:1040D00005682D591AD0ED08556005682C5904F073
:1040E0000204D4604FF4DA74056804EB01142E590D
:1040F00006F00F06082E0CD308250DE0E468DCE777
:10410000416A41F400114162012070BD6D0D1560DE
:10411000E3E72D5905F00F05156105682D59C5F325
:104120000725956105682C59240C54614FF4DC7205
:10413000046802EB0112A4581C700468A458240AF5
:104140005C700468A458240C9C700468A258120E79
:10415000DA704FF4DE72046802EB0112A4581C718D
:104160000468A458240A5C710468A458240C9C7147
:104170000468A258120EDA71006829B1016941F091
:1041800020010161002070BDC16841F02001C160C3
:10419000F8E72DE9F05F0546006800244669D0F88D
:1041A00004908768D0F80CB0D0F810A0D0F8188030
:1041B000F10748D0F90714D001218160B80703D571
:1041C000284600F0FEF90CE0780702D54FF40064B1
:1041D00007E0380702D54FF4805402E0284600F08B
:1041E000EFF9F80516D529684FF480708860B80596
:1041F00003D5284600F0E7F90CE0780502D544F431
:10420000005407E0380502D544F4804402E0284613
:1042100000F0D8F9F80316D529684FF4803088608B
:10422000B80303D5284600F0D0F90CE0780302D596
:1042300044F4004407E0380302D544F4803402E03B
:10424000284600F0C1F9300707D55FEACB6004D5F6
:104250002968102044F40074C86070074FF0080704
:1042600007D55FEA0B7004D52868C760284600F0C0
:1042700059F9B00706D52868C068800702D02846DB
:1042800000F052F9700607D55FEACA6004D52968C4
:10429000102044F480640861B00607D55FEA0A7014
:1042A00004D528680761284600F05AF9F00606D5BB
:1042B00028680069800702D0284600F052F9B00350
:1042C00008D55FEAC96005D52968102048602846EE
:1042D00000F048F9F00307D55FEA097004D52868B3
:1042E0004760284600F072F9300446D55FEA49700D
:1042F00040D5F00504D55FEAC87001D044F0010450
:10430000B00504D55FEA887001D544F00204700559
:1043100004D55FEA487001D544F00404300529D57E
:1043200018F0700F26D008F07000402815D006DC79
:10433000102809D020280AD0302816D10AE05028A9
:104340000ED0602811D10EE044F008040DE044F0D6
:1043500010040AE044F0200407E044F0400404E0C4
:1043600044F0800401E044F480742868816921F0FD
:1043700070018161296804204860002C05D0686ABA
:10438000204368622846FFF789FEBDE8F09F70B5BC
:10439000040003D094F8200010B104E0012070BDA7
:1043A000204600F081F82068016841F001010160B9
:1043B00000F09AFC0546052604E000F095FC401B41
:1043C0000A2811D820684068C007F6D02068016824
:1043D00021F00201016000F087FC05460BE000F0CF
:1043E00083FC401B0A2806D9606A40F400306062F2
:1043F00084F82060D2E7206840688007EFD4207EF0
:104400000128206801683DD021F080010160607EB4
:1044100001282068016838D021F040010160A07EA9
:1044200001282068016833D021F020010160E07E7E
:104430000128206801682ED041F010010160207F22
:1044400001282068016829D021F008010160607FFF
:1044500001282068016824D021F004010160D4E91A
:1044600002010843D4E90412114308436168491E5C
:1044700008432168C86100206062012084F82000A0
:10448000002070BD41F08001C0E741F04001C5E768
:1044900041F02001CAE721F01001CFE741F0080107
:1044A000D4E741F00401D9E710B586B004461421E1
:1044B0006846FCF7AEFA18492068884229D11748A7
:1044C0000021026842F000720260006800F0007093
:1044D000059012481038026842F00202026000683B
:1044E00000F0020005904FF4407000900220CDE9EA
:1044F000010103200390092004906946084800F058
:10450000F5FA00220521142000F01AFE142000F014
:1045100009FE06B010BD00000064004040380240B3
:10452000000402407047000000B50B4A016889B0E2
:1045300091420ED107AB6A460021FFF7B0FD00287B
:1045400007D106484168491C416007A96846FEF743
:10455000D3FB09B000BD00000064004070000020E3
:10456000704770477047000070B5044690F820000F
:10457000012804D0606A40F40020606218E0022044
:1045800084F820002068016821F00101016000F03A
:10459000ABFB05460EE000BF00F0A6FB401B0A285F
:1045A00008D9606A40F400306062052084F8200079
:1045B000012070BD20684068C007EDD1606270BD09
:1045C00070477047704770477047704770472DE9D4
:1045D000F0410446876D00F087FB064694F83500ED
:1045E0000025022806D08020606584F83450012020
:1045F000BDE8F0812068016821F0160101602068A3
:10460000416921F080014161206C08B9A06C20B1A2
:104610002068016821F0080101602068016821F02C
:10462000010101600CE000F05FFB801B052807D949
:1046300020206065032084F8350084F83450D7E7E3
:1046400020680068C007EED194F85C103F208840D5
:10465000B860012084F8350084F834500020C7E7A2
:1046600090F83510022903D0802141650120704760
:10467000052180F835100068016821F00101016012
:10468000002070472DE9F84304464FF00009CDF8AB
:10469000009063484FF41651A56D0068B0FBF1F728
:1046A0002E6894F85C10082000FA01F131420FD016
:1046B00021680A6852070BD50A6822F004020A60D2
:1046C00094F85C108840A860606D40F0010060655F
:1046D00094F85C104FF0010808FA01F0304208D05D
:1046E00021684969090604D5A860606D40F00200A0
:1046F000606594F85C1004208840304208D021683E
:104700000968890704D5A860606D40F00400606501
:1047100094F85C1010208840304218D02168096855
:10472000090714D5A86020680168490304D500680A
:10473000000308D5A16C07E00168C90503D401682E
:1047400021F008010160216C09B12046884794F8E6
:104750005C1020208840304231D021680968C906A9
:104760002DD5A86094F8350005282068016806D08A
:10477000490347D5006800031DD4616C1CE021F09B
:10478000160101602068416921F080014161206CBF
:1047900008B9A06C20B12068016821F0080101600F
:1047A00094F85C103F208840A86084F8358084F835
:1047B0003490216D1FE0E16B09B120468847606DA0
:1047C00000282BD0606DC00714D0052084F8350078
:1047D0002068016821F0010101600098401C0090F0
:1047E000B84203D820680068C007F6D184F8358045
:1047F00084F83490E16C002910D001B02046BDE867
:10480000F04308470168C905D5D4016821F01001BB
:10481000016084F8358084F83490CCE7BDE8F883F3
:10482000C80000202DE9F041044600F05DFA06467C
:104830005CB1022084F83500002584F834502068EB
:10484000016821F0010101600DE00120BDE8F08167
:1048500000F04AFA801B052805D920206065032056
:1048600084F83500F2E720680068C007F0D12268BC
:10487000116820480140D4E901031843D4E9033604
:104880003343184363691843A3691843E369184322
:10489000236A18430843616A042903D1D4E90B133E
:1048A00019430843106020684069666A20F00701D8
:1048B00030460E43012704280CD1A06A0643E06A63
:1048C00040B12046FEF7EAFA20B14020606584F846
:1048D0003570BAE7206846612046FEF7CBFA94F8B7
:1048E0005C203F2191408160656584F8357000202F
:1048F000ACE700003F8010F02DE9F0410446866DE2
:1049000090F83400002501280DD0012084F83400EF
:1049100094F835700020012F07D084F83400022568
:104920002846BDE8F0810220FBE7022784F83570B5
:1049300060652046FEF7DCFA94F85C103F20884062
:10494000B0602068016841F016010160206C20B160
:104950002068016841F0080101602068016841F0A9
:1049600001010160DCE7000070B5044600F0BCF90D
:104970000546601C02D004480078044400F0B4F9F5
:10498000401BA042FAD370BDBC0000202DE9F047C7
:10499000044622480F46017E01290AD001218046A3
:1049A00001764CF250394846FEF7DEFC020003D097
:1049B0002FE00220BDE8F0874FF0FF30386020681C
:1049C000174D012801D0A6681CE0207C6168FEF725
:1049D00039FC4846FEF7C8FC0246286820F004006F
:1049E000286014E0217C3046FEF7DAFB4846FEF7EB
:1049F000BBFC0200286820F0FA00286001D03E606D
:104A000005E0761CD4E902100844B042EAD8FEF76B
:104A1000EFFB002188F818101046CBE7F40B0020BC
:104A2000103C02400148C06970470000F40B0020B0
:104A30000348016841F00041016000207047000018
:104A4000103C02402DE9F0471B4E05461446307ECF
:104A50001F468946012808D0012030764CF2503894
:104A60004046FEF781FC18B114E00220BDE8F08753
:104A70009DB1012D16D0022D19D022463B46484645
:104A8000FEF704FC4046FEF76FFC0C490A6822F072
:104A900001020A6000213176E8E7E1B24846FEF7FC
:104AA000E5FBEFE7A1B24846FEF706FCEAE7214640
:104AB0004846FEF713FCE5E7F40B0020103C0240EB
:104AC000074900200A68002A09DA054A054B0C3A12
:104AD0001360054B13600968002900DA0120704754
:104AE000103C024023016745AB89EFCD2DE9F84F1B
:104AF000DFF8BCA10022012503264FF00F090AF1BF
:104B0000040BAAF1040E00BF0B6805FA02F423405F
:104B1000A34270D10F7907F00307012F01D0022FB4
:104B200016D187684FEA420806FA08FC27EA0C0704
:104B3000D1F80CC00CFA08FC4CEA070CC0F808C00D
:104B40004768A7430C79C4F3001494403C43446085
:104B50000C79E443A4070AD0C4684FEA420C06FA71
:104B60000CF7BC438F6807FA0CF72743C7600C7932
:104B700004F00304022C12D1D40800EB840CDCF8FE
:104B800020405707FF0E09FA07F824EA0804D1F875
:104B9000108008FA07F848EA0408CCF82080046876
:104BA0004FEA420C06FA0CF7BC430F7907F00307F3
:104BB00007FA0CF7274307604C6814F4403F70D0A5
:104BC0003C4C276847F480472760246822F003079D
:104BD00004F480440094384C07EB040CDCF80848DB
:104BE00097074FEA177809FA08F7BC43334FB842E2
:104BF00002D1002724E054E0314FB84201D101270F
:104C00001EE0304FB84201D1022719E02E4FB842C2
:104C100001D1032714E02D4FB84201D104270FE042
:104C20002B4FB84201D105270AE02A4FB84201D1E3
:104C3000062705E0284FB84201D1072700E00827E2
:104C400007FA08F72743CCF80878DAF80040574607
:104C5000D1F804C09C435FEACC2C00D51C433C60D7
:104C6000DBF800405F46D1F804C09C435FEA8C2C1F
:104C700000D51C433C60DEF800407746D1F804C004
:104C80009C435FEA8C3C00D51C433C60084F083FC6
:104C90003C68D1F804C09C435FEACC3C00D51C437F
:104CA0003C60521C102AFFF42FAFBDE8F88F0000C3
:104CB000083C0140443802400030014000000240FE
:104CC0000004024000080240000C024000100240B4
:104CD0000014024000180240001C02400AB1816129
:104CE00070470904FBE70000014880687047000036
:104CF000BC00002070B5040025D094F83D000025CC
:104D000020B984F83C50204600F04EF9242084F865
:104D10003D002068016821F0010101602068016800
:104D200041F4004101602068016821F40041016004
:104D300000F0F2FA4D4A6168914201D84C4900E016
:104D40004C49884201D2012070BD4B492368B0FB19
:104D5000F1F15E6826F03F060E435E6063689342A1
:104D600006D94FF4967359434FF47A73B1FBF3F1BC
:104D70002368491C1E6A26F03F06314319626168A8
:104D8000914210D84900401EB0FBF1F2521CC2F310
:104D90000B02042A01D2042022E0B0FBF1F0401CF7
:104DA000C0F30B001CE0A268F2B301EBC10303EBFC
:104DB0000116431EB3FBF6F35B1C43F480431B0553
:104DC00049D092B301EBC10202EB0111401EB0FBCE
:104DD000F1F0401CC0F30B0040F4804040F4004070
:104DE0002168CA694CF6FF739A431043C861D4E93D
:104DF000071001432068026822F0C00211430160DD
:104E0000D4E9030101432068826848F2FF339A43E2
:104E100011438160D4E9050108432168CA6822F082
:104E2000FF021043C86001E00EE016E02068016850
:104E300041F0010101602564202084F83D002563D4
:104E400084F83E50002070BD01EB4106431EB3FBC9
:104E5000F6F35B1CB3E70120C2E701EB4101401E02
:104E6000B0FBF1F0401CC0F30B00B7E7A0860100D7
:104E700080841E0000093D0040420F002DE9F84FDC
:104E80001F4690468A460446DDF82890FFF72CFF1F
:104E9000054694F83D0020287FD11923012240497E
:104EA0002046009501F082FA002876D194F83C0063
:104EB000012872D0012084F83C0020680168C907ED
:104EC00003D1016841F0010101602068016821F40B
:104ED00000610160212084F83D00102084F83E002C
:104EE00000262664C4F824806785608D20852D48BF
:104EF000E0622B464A465146204601F0DDF990B962
:104F0000206841698069009036E02A46494620467B
:104F100001F0F2FA50B1206C042804D12068016835
:104F200041F4007101600120BDE8F88F606A2168DA
:104F300000780861606A401C6062618D491E61856D
:104F4000218D491E89B2218522685369DB435B07A5
:104F50000BD451B100781061606A401C6062608DB2
:104F6000401E6085208D401E20852A4649462046E9
:104F700001F0F0F90028CED1208D0028C5D154F8D9
:104F80003D0B016841F400710160202004F81E0906
:104F9000E67766770020C7E7FFE70220C4E7000056
:104FA000020010000000FFFF10B586B00446142177
:104FB0006846FBF72EFD13492068884220D112482D
:104FC0000021026842F002020260006800F0020064
:104FD0000590C02000901220CDE90101032003902C
:104FE0000420049069460948FFF780FD0648103008
:104FF000016841F400110160006800F400100590A0
:1050000006B010BD00540040303802400004024099
:10501000024881680278114481607047BC0000201A
:105020000B4810B5016841F400710160016841F45A
:1050300080610160016841F480710160032000F02B
:105040009FF80F2000F006F800F050F8002010BD87
:10505000003C024030B505461F4887B00024016877
:1050600041F010010160006806A900F010000090F6
:1050700001A800F031F90498A8B100F04DF9400002
:105080001649174AB0FBF1F11648491E026040F27A
:10509000E732C0E90324C0E90114846100F0B8FBE1
:1050A000040003D015E000F037F9E9E70D4800F0FF
:1050B000DDFB04000DD1362000F034F8102D07D2AE
:1050C00000222946362000F03BF80748056000E042
:1050D000012407B0204630BD4038024040420F0056
:1050E00000100040DC030020C00000200C4882B00B
:1050F000016841F480410160006800F48040009044
:105100000748001F016841F08051016000680022DB
:1051100000F0805000900F21901E02B000F010B8F7
:1051200044380240002809DB00F01F0201219140B1
:105130004009800000F1E020C0F800117047000035
:10514000F0B40E4B1B680C46C3F30223C3F10705F2
:10515000042D00D90425191D072901D2002300E0E0
:10516000DB1E012606FA05F1491E214099409E40AA
:10517000761E16403143F0BC02F0EBBE0CED00E0B1
:10518000064900F0070208684FF6FF03184040EA9E
:105190000220034A10430860704700000CED00E055
:1051A0000000FA052DE9F0470E46050065D0DFF84E
:1051B0001481D8F80000F7B200F00700B04207D21F
:1051C00088F80070D8F8000000F00700B04254D111
:1051D00028683D4C810712D5400703D5206840F46C
:1051E000E05020602878000703D5206840F4604034
:1051F00020602068A96820F0F0000843206028782B
:10520000C0072DD0304968680839012812D002281B
:1052100013D0032811D00968890700292DDA2168E5
:1052200021F0030101432160FFF75EFD814641F259
:10523000883A0EE009688903EFE709688901ECE71D
:10524000FFF752FDA0EB0901514502D90320BDE84B
:10525000F0872068696800F00C00B0EB810FEFD197
:10526000D8F80010404601F00701B14207D9077095
:10527000006800F00700B04201D00120E7E728787D
:10528000400705D52068E96820F4E0500843206015
:105290002878000706D52068296920F4604040EA94
:1052A000C100206000F058F82168084AC1F30311DA
:1052B000515CC8400649086006480068FFF7CAFE0E
:1052C0000020C4E7003C02400838024034A900082E
:1052D000C8000020C00000200F2202600C4A1368A2
:1052E00003F003034360136803F0F0038360136863
:1052F00003F4E053C36012684FF4E05303EAD202B0
:1053000002610448006800F0070008607047000070
:1053100008380240003C024004480549006809681A
:10532000044AC1F38221515CC8407047C800002084
:105330000838024044A90008044805490068096883
:10534000044AC1F34231515CC8407047C800002094
:105350000838024044A90008154810B5006810F04C
:105360000C02144813D01449042A0FD0082A0ED175
:105370000F4C241F2268236802F03F025B0207D50E
:105380002068C0F38810A0FB010106E0084610BDAC
:105390002168C1F38811A1FB00010023FBF702F88B
:1053A0002168C1F30141491C4900B0FBF1F010BD77
:1053B000083802400024F40040787D012DE9F84FC0
:1053C00004006ED02078DFF84C93C007A9F10405E3
:1053D0004AD009F104000168C1F38101012908D014
:1053E0000068C0F3810002280AD1D9F80000400209
:1053F00006D52868800337D560680028E1D033E0FF
:105400006068B0F5803F10D0B0F5A02F286810D0AC
:1054100020F480302860286820F4802028606068AC
:10542000A8B1FFF761FC06460DE0286840F4803023
:10543000F4E740F480202860F7E700BFFFF754FC52
:10544000801B642873D828688003F7D50CE0FFF729
:105450004BFC064605E000BFFFF746FC801B6428B6
:10546000F0D828688003F7D42078DFF8AC82800772
:105470004FF0000A3ED5A748001D016811F00C0F3F
:1054800008D00068C0F3810002280BD1D9F80000D1
:10549000400207D42868800716D5E068012800D1AB
:1054A00012E033E1E068B8B10120C8F80000FFF76E
:1054B0001BFC064605E000BFFFF716FC801B022818
:1054C000C0D828688007F7D52868216920F0F8003F
:1054D00040EAC10028600DE0C8F800A0FFF704FC16
:1054E000064604E0FFF700FC801B02281FD828684E
:1054F0008007F7D42078000722D5864F8748616956
:10550000703771B101210160FFF7EEFB064604E040
:10551000FFF7EAFB801B022809D838688007F7D517
:105520000EE0C0F800A0FFF7DFFB064605E082E0D2
:10553000FFF7DAFB801B02287DD838688007F7D494
:105540002078400768D5DFF8CCB100270BF13C0B81
:10555000DBF80000C0000BD4DBF8001041F08051F4
:10556000CBF80010DBF80000012700F0805000901D
:105570006B4E3068C00510D4306840F480703060E5
:10558000FFF7B2FB009005E0FFF7AEFB0099401A71
:10559000022850D83068C005F6D55E4EA0686C363B
:1055A00001280FD00528306810D020F001003060AD
:1055B000306820F004003060A068B8B1FFF794FBB9
:1055C00000900FE0306840F00100F4E740F0040084
:1055D0003060F7E7FFF788FB0099411A41F2883005
:1055E000814266D830688007F4D50EE0FFF77CFB77
:1055F000009007E0FFF778FB0099411A41F28830EC
:10560000814256D830688007F4D42FB1DBF80010FF
:1056100021F08051CBF80010A069C8B33D49091DA5
:105620000968C1F3810102294AD00228504607D0F7
:10563000C8F8600000E03CE0FFF756FB04463BE0A2
:105640004746C8F86000FFF74FFB064605E000BF7D
:10565000FFF74AFB801B02282BD828688001F7D46B
:10566000D4E907010843A16A2E4A490802EB014127
:10567000626A41EA8211084394F82C1040EA016101
:10568000C9F8001001203866FFF72EFB044606E03B
:105690003EE000BFFFF728FB001B022809D828685E
:1056A0008001F7D534E000BFFFF71EFB001B022886
:1056B00002D90320BDE8F88F28688001F4D427E0E0
:1056C0000128F7D0D9F80000E26900F48001914286
:1056D0001CD1226A00F03F01914217D147F6C071F8
:1056E000626A0140B1EB821F10D1A26A4FF0FF3312
:1056F00000F4403103EB5202B1EB024F06D194F8B3
:105700002C1000F07060B0EB016F01D00120D1E7E8
:105710000020CFE70438024000004742800E474295
:10572000007000400000FFFF7047704710B590F810
:105730003C20012A22D0012280F83C20CA688C68D3
:1057400022F4407222434C6822F4806222430C68A7
:1057500022F4006222430C6922F4805222434C69F5
:1057600022F400522243C969002322F480420A43F2
:1057700001684A6480F83C30002010BD022010BD52
:1057800070B590F83C20012A32D0012480F83C40CA
:10579000022280F83D2003685A689D6822F0700656
:1057A0000A6832435A60134B02689A4214D0B2F12D
:1057B000804F11D0104B9A420ED0104B9A420BD012
:1057C0000F4B9A4208D00F4B9A4205D00E4B9A428B
:1057D00002D00E4B9A4204D1496825F08003194348
:1057E000916080F83D40002180F83C10084670BD73
:1057F000022070BD0000014000040040000800408D
:10580000000C00400004014000400140001800402E
:1058100010B5040003D094F83D0010B107E001205A
:1058200010BD002084F83C00204600F01EF8022045
:1058300084F83D00211D206801F05CFD012084F802
:10584000460084F83E0084F83F0084F8400084F865
:10585000410084F8420084F8430084F8440084F84E
:10586000450084F83D00002010BD704790F83D10C1
:10587000012901D001207047022180F83D10016804
:10588000CA6842F00102CA6000681149884214D017
:10589000B0F1804F11D00F4988420ED00E49884296
:1058A0000BD00E49884208D00D49884205D00D49D9
:1058B000884202D00C49884204D1816801F0070176
:1058C000062903D0016841F0010101600020704702
:1058D000000001400004004000080040000C0040AF
:1058E0000004014000400140001800402DE9F04153
:1058F0000D46040003D094F83D0018B108E00120E3
:10590000BDE8F081002084F83C00204600F040F81B
:10591000022084F83D002068816844F20702914328
:105920008160211D206801F0E5FC22689068916982
:10593000166A2B68AF69034340F20330814341EAA2
:105940000721A868EF6908434FF6FC418843E968DE
:1059500040EA0720014328692F6A000140EA073026
:10596000084369686D6926F0AA0646EA05152943C9
:1059700093602268906154F8460B0162012004F89C
:105980001F09E0752076E0762077A0750020B7E744
:1059900010B586B0044614216846FBF73AF8124960
:1059A000206888421ED111480021026842F002029C
:1059B0000260006800F0020005900C481038026890
:1059C00042F004020260006800F004000590C0206C
:1059D00000900220CDE9010103900490694604483B
:1059E000FFF784F806B010BD0004004040380240C4
:1059F0000008024070B590F83E60044690F83F50B1
:105A000090F8423090F84320022021B104290ED0B2
:105A1000012E1BD114E0012E18D1012B16D184F8D0
:105A20003E0084F8420001220021206820E0012D80
:105A30000CD1012A0AD184F83F0084F8430014E015
:105A4000012D03D1012B01D1012A01D0012070BD0C
:105A500084F83E0084F83F0084F8420084F8430054
:105A600001220021206801F0B1FC012204212068FC
:105A700001F0ACFC2068016841F0010101600020E8
:105A800070BD70472DE9F04104460068C66805699D
:105A90004FF00007A90713D5B10711D5F91E016111
:105AA00001202077206880698007204602D0FFF718
:105AB000E8FF04E000F0A8F8204600F04DF9277751
:105AC000680716D5700714D521686FF004000861C7
:105AD000022020772068806910F4407F204602D0A1
