:020000040800F2
:10000000B053002021030008F74F0008074C0008F8
:10001000F54F000809290008F962000800000000F7
:100020000000000000000000000000006102000865
:10003000C929000800000000BD020008D55C0008C6
:100040003B0300083B0300083B0300083B03000898
:100050003B0300083B0300083B0300083B03000888
:100060003B0300083B0300083B0300083B03000878
:100070003B0300083B0300083B0300083B03000868
:100080000D2900083B0300083B0300083B03000860
:100090003B0300083B0300083B0300083B03000848
:1000A0003B0300083B0300083B0300083B03000838
:1000B0003B0300083B0300083B0300083B03000828
:1000C0003B0300083B0300083B0300083B03000818
:1000D0003B0300083B030008ED6200083B030008F7
:1000E0003B0300083B0300083B0300083B030008F8
:1000F0003B0300083B0300083B0300083B030008E8
:100100003B0300083B0300083B0300083B030008D7
:100110003B0300083B030008955D00083B03000813
:10012000192900083B0300083B0300083B030008B3
:100130003B0300083B0300083B0300083B030008A7
:100140003B0300083B0300083B0300083B03000897
:100150003B0300083B0300083B0300083B03000887
:100160003B0300083B0300083B0300083B03000877
:100170003B0300083B0300083B03000800000000AD
:100180003B0300083B03000800F002F800F058F8B9
:100190000AA090E8000C82448344AAF10107DA45E2
:1001A00001D100F04DF8AFF2090EBAE80F0013F0DC
:1001B000010F18BFFB1A43F0010318479488000091
:1001C000B4880000103A24BF78C878C1FAD8520722
:1001D00024BF30C830C144BF04680C6070470000C1
:1001E0000023002400250026103A28BF78C1FBD840
:1001F000520728BF30C148BF0B607047662908F01E
:10020000B581642900F06881752900F06581732942
:1002100000F06386002070471FB508F09AF901F0DE
:1002200013F904000020002107F01AFF401C606051
:100230000020002107F0FEFEE0601FBD10B510BDDC
:1002400001F0C8FB1146FFF7E7FF06F0B3FA01F033
:1002500019FE03B4FFF7F2FF03BC01F03DFE0000FE
:100260002C4B19680868B0E8F04F80F30988BFF399
:100270006F8F4FF0000080F311887047000000007E
:1002800008480068006880F308884FF0000080F399
:10029000148862B661B6BFF34F8FBFF36F8F00DF74
:1002A00000BF00BF08ED00E0DFF80C00016841F47A
:1002B00070010160704700BF88ED00E0EFF3098036
:1002C000BFF36F8F134B1A681EF0100F08BF20ED9D
:1002D000108A20E9F04F106009B44FF0500080F30D
:1002E0001188BFF34F8FBFF36F8F07F075F94FF091
:1002F000000080F3118809BC19680868B0E8F04F65
:100300001EF0100F08BFB0EC108A80F30988BFF30D
:100310006F8F704774000020EFF305807047000076
:100320000948804709480047FEE7FEE7FEE7FEE789
:10033000FEE7FEE7FEE7FEE7FEE7FEE704480549C5
:10034000054A064B70470000855D000889010008DA
:10035000B04D0020B0530020B04F0020B04F00201F
:1003600053EA020C00F069802DE9F04B4FF00006D3
:10037000002B1FBFB3FA83F503FA05F424FA05F640
:100380005E4012BF1643B2FA82F502FA05F4C5F1D7
:1003900020051EBF22FA05FC44EA0C04203556EA6B
:1003A000044C4FEA144418BF641C4FF000084FF08F
:1003B0000009904271EB030C39D3002919BFB1FA3F
:1003C00081F701FA07F6B0FA80F700FA07F6C7F1ED
:1003D00020071EBF20FA07FC46EA0C062037B6FBB2
:1003E000F4FCA7EB0507103F07F01F0BCBF120062D
:1003F0000CFA0BFB2CFA06F644BFB3460026202F5E
:10040000A4BF5E464FF0000B5BEA060C08BF4FF03E
:10041000010B19EB0B09ABFB027C48EB0608C01B78
:1004200006FB02CC0BFB03CC71EB0C01C1E70B46C6
:10043000024641464846BDE8F08B13B54FF0000038
:100440004FF00001AFF30080BDE81C407047000092
:100450000FB41CB50C0007AA009001D02044401E28
:10046000074B7B4469460190069800F004FD002C80
:1004700003D06946002000F011FD1CBC5DF814FBA0
:10048000410A000070B50C460546012A05D02878BF
:10049000800600D5EA69002302E0012305E05B1C29
:1004A000934202D2E05C0028F9D1A869E618C01A8C
:1004B000A861286A184428622846AFF3008004E047
:1004C000D5E9012114F8010B9047B442F8D328462E
:1004D000AFF3008070BD00002DE9F0410646002416
:1004E00010687529314616A510D0AFF3008000289A
:1004F00002DA404213A507E031688A0701D512A548
:1005000002E0490704D511A5012401E0AFF3008002
:1005100000210A2206F1240709E0B0FBF2FCB0FB3F
:10052000F2F302FB1C00303078541846491C0028B6
:10053000F3D123462A463046BDE8F04100F02EBAFA
:10054000000000002D0000002B0000002000000033
:100550002DE9F0474FF0000A89460446C0F820A074
:100560002046E1688847002876D0252806D0D4E9BF
:1005700001219047206A401C2062F1E7E168204693
:1005800000258847C4F81CA006460027C4F818A018
:100590002A2E09D0304606F0C0F838B304EB87089D
:1005A000303EC8F8186019E059F8041B204604EBE7
:1005B00087029161E1688847012F064618D1E069FA
:1005C000002820DA25F020051DE0D8F8180000EBFF
:1005D000800006EB40003038C8F818002046E1687B
:1005E0008847064606F099F80028EED1012F0AD078
:1005F0002E2E08D12046E16888477F1C0646022F30
:1006000045F02005C4DBA069002803DA404245F02C
:100610000105A061E80701D025F01005B6B1A6F1EB
:100620004100192802D8203645F400654A46314673
:10063000204625604D46FFF7E1FD58B1012806D060
:10064000ED1D25F0070000F1080989E704E005F138
:10065000040985E730468AE7206ABDE8F087000094
:100660000FB400B58DB010A9099000910B904FF018
:10067000FF300A9000200C90064878440690064807
:1006800078446A4607900F9909A800F0ADFE0DB0B6
:100690005DF814FB8B0D0000A30D000010B5431C8A
:1006A00002E010F8011B71B18107FAD14FF001325D
:1006B00002C88C1A8C4314EAC211F9D0C01A0A0677
:1006C00003D0C01E10BDC01A10BD0A0401D0801E88
:1006D00010BD0902FCD0401E10BD40EA010370B5F8
:1006E0009B072ED14FF00136042A2AD308C810C91F
:1006F0009D1B9D43121F15EAC61517D0D8B2E1B253
:10070000401A50EA056110D198B2A1B2401A50EADD
:1007100005410AD123F07F4024F07F41401A50EA7E
:10072000052102D1180EA0EB146070BDA342DBD0EE
:1007300018BA21BA884201D9012070BD4FF0FF30AC
:1007400070BD0AB9002070BD10F8013B11F8014BD3
:1007500063B1A3420AD1521E08D010F8013B11F830
:10076000014B1BB1A34201D1521EEDD1181B70BD2C
:10077000032A40F2308010F0030C00F0158011F8CD
:10078000013BBCF1020F624498BF11F801CB00F8A5
:10079000013B38BF11F8013BA2F1040298BF00F8F9
:1007A00001CB38BF00F8013B11F0030300F02580B6
:1007B000083AC0F0088051F8043B083A51F804CBDD
:1007C000A0E80810F5E7121D5CBF51F8043B40F8A3
:1007D000043BAFF30080D20724BF11F8013B11F8AE
:1007E00001CB48BF11F8012B24BF00F8013B00F8F2
:1007F00001CB48BF00F8012B704710B5203AC0F07C
:100800000B80B1E81850203AA0E81850B1E8185011
:10081000A0E81850BFF4F5AF5FEA027C24BFB1E84E
:100820001850A0E8185044BF18C918C0BDE81040BF
:100830005FEA827C24BF51F8043B40F8043B08BFC8
:100840007047D20728BF31F8023B48BF11F8012B8F
:1008500028BF20F8023B48BF00F8012B704702F088
:10086000FF0343EA032242EA024200F002B84FF0DB
:1008700000020429C0F0128010F0030C00F01B806D
:10088000CCF1040CBCF1020F18BF00F8012BA8BF7B
:1008900020F8022BA1EB0C0100F00DB85FEAC17C3F
:1008A00024BF00F8012B00F8012B48BF00F8012BF2
:1008B00070474FF0000200B5134694469646203923
:1008C00022BFA0E80C50A0E80C50B1F12001BFF409
:1008D000F7AF090728BFA0E80C5048BF0CC05DF86F
:1008E00004EB890028BF40F8042B08BF704748BFBD
:1008F00020F8022B11F0804F18BF00F8012B704731
:100900004FF0013C50F8042B51F8043B9A4221D19E
:10091000A2EB0C03934313EACC1317D150F8042B2A
:1009200051F8043B9A4215D1A2EB0C03934313EA0E
:10093000CC130BD150F8042B51F8043B9A4209D147
:10094000A2EB0C03934313EACC13DBD04FF000006F
:10095000704700BFD01A01BAB1FA81F101F0180155
:1009600022FA01F0CB40C1F12001DBB2C0B2C01AC3
:100970002CFA01F3D11A914311EAC311E6D1704761
:1009800070477047704710B500F062FD006810BDF9
:1009900010B5044600F05CFD046010BD2DE9F04781
:1009A0000D4699469246044600F1240801688806DF
:1009B00004D5E06921F01001216000E00120A84287
:1009C00001DD471B00E00027A1697A1902EB09004D
:1009D000081AA0612078C00602D42046AFF3008038
:1009E000002608E0D4E901211AF806009047206AA1
:1009F000401C761C20624E45F4DB2078C0060AD5E8
:100A00002046AFF3008006E0D4E901213020904772
:100A1000206A401C2062381EA7F10107F4DC07E0C1
:100A2000D4E9012118F805009047206A401C206293
:100A3000281EA5F10105F3DC2046AFF300802078E5
:100A4000000602D50220BDE8F0870120FBE77047D1
:100A50002DE9FF4F0C461E464FF0FF378BB0D2E911
:100A60000001DDF860800A908A46C1F30A5505B995
:100A70003D46002108464FF00000BAF1000F00F497
:100A8000400005DA00EB80004FF4400101EA50001D
:100A90004FEA9059B9F1010F00DDB9460A9850EAC2
:100AA0004A000ED044F61050A5F2FF3545432F14EE
:100AB000B8F1000F1ED07542291E1EDDC9F10002DB
:100AC0001CE0B8F1010F4FF0000001D0302103E02D
:100AD000F24305E02154401CB042FBDB30460022CB
:100AE000002121540B99C1F80880C1E900200FB002
:100AF000BDE8F08FBD1B6D1CDEE74A4600DA694297
:100B000006A800F0F1FE06AB93E8070003AB83E80C
:100B1000070050460A9901F0E6F98DE80700A0F5B4
:100B200000501F3800900398002D0ADD42F21F018B
:100B30004A460844002303A90390684601F092FC4A
:100B400009E0A0F500504A461F38002303A903908E
:100B5000684601F0B1FC8DE807000004000C03D0EA
:100B60004FF0FF30410800E01046B8F1000F03D00D
:100B70000022009215461EE0751E05D400F06CFCA4
:100B8000303262556D1EF9D5B3460122084302D0BA
:100B900000227F1C04E02078302801D100227F1E33
:100BA000002A099784D01DE0112D07DA00F054FCCB
:100BB000303262556D1C50EA0102F5D1084302D073
:100BC0000098C8B10EE00021681E05E0235C625C5D
:100BD00063542254401E491C8142F7DBAB46A81BDC
:100BE000401E0990002004F80B000B98099AC0F8E9
:100BF0000880C0E9002B7AE711264FF0000857E77C
:100C00002DE9F04F88460446D21D22F0070191B02D
:100C1000D1E90001CDE90A0105F06FFB02460B980E
:100C2000C00F01D02D2007E02068810701D52B20BF
:100C300002E0202101EAC000032A099001D0072A1E
:100C400005DB03464146204600F054FC0BE12078CA
:100C5000800601D5E06900E00620B8F1650F814605
:100C600006D0B8F1660F18D0B8F1670F70D131E037
:100C70000020B9F1110F009001DB112301E009F10F
:100C800001030AAA01A90CA8FFF7E2FEDDE90C7036
:100C9000002609F10105834647E001204B460090FC
:100CA0004FF000470AAA01A90CA8FFF7D1FEDDE921
:100CB0000DB00C995D46002610B909F101000D1820
:100CC000B9EB050003D4C0F1FF3609F10105A5EB2E
:100CD00009002BE0B9F1010F01DA4FF00109002002
:100CE000B9F1110F0090484601DD112300E00346E1
:100CF0000AAA01A90CA8FFF7ABFEDDE90C704D466E
:100D000000268346207800070AD4AB4500DA5D460A
:100D100001A8012D04DD411911F8011C302907D06B
:100D20004F4502DA17F1040F04DA012082460FE082
:100D30006D1EEEE7002F02DCED1B3E4403E0781C45
:100D4000A84200DD7D1CB81B00F1010A4FF00047EE
:100D50002078000703D4AA4501DB4FF0FF3A0021B9
:100D6000B7F1004F0DF143088DF8431024D0022055
:100D70002B23002F01DA7F422D230A21021EA0F12E
:100D8000010000DC5FB197FBF1FC97FBF1F201FB86
:100D90001C7C17460CF1300C08F801CDEEE7A8F1E9
:100DA000010003702188090501D5452100E0652176
:100DB000A0F1010800F8011C09980FA9A1EB080790
:100DC000FF1D00B10120411901EBEA70A16938440F
:100DD000081A401EA0612078C00602D42046AFF356
:100DE0000080099828B1D4E901219047206A401C6D
:100DF00020622078C00622D52046AFF300801EE096
:100E0000002E04DBB34502DD01A8805D00E0302048
:100E1000D4E901219047206A401C2062761CAAF187
:100E200001005FEA000A0AD100F00EFBC068016809
:100E3000405CD4E901219047206A401C2062281EB2
:100E4000A5F10105DCDC07E0D4E9012118F8010B6C
:100E50009047206A401C2062381EA7F10107F3DC8E
:100E60002046AFF30080032011B041E601694A1C1F
:100E700002610878704700B58FB0CDE901310021DB
:100E8000059105497944CDE9031011466846FFF7FD
:100E90005FFB0FB000BD0000E5FFFFFF0A6802F82E
:100EA000010B0A607047D1E900239A4202D2531C19
:100EB0000B601070704710B5436913B1AFF3008039
:100EC00001E0FFF7DFFA012010BD127800F12401E4
:100ED0000A7000224A700122EDE711684FF0FF32DC
:100EE000E9E700002DE9FF4F06468BB00878FF28A0
:100EF00006D0491C2D2805D000244FF0000908E039
:100F000000200CE00124F8E709EB8903491C00EB01
:100F100043090878FF28F7D114B1C9F100008146D0
:100F2000107800252C46AA4629462D2801D02B28CA
:100F300004D1521C2D2813D0002082468B461078F5
:100F4000FF280FD04FF0000C0A21521CA5FB01789E
:100F500004FB018105FB0C11C5194BEB0104EEE705
:100F60000120EAE7002108464FF00000BAF1000F27
:100F700002D000EB80004008C0F38157012F01DD53
:100F80004FF0FF370E9955EA040009EB01080BD02A
:100F90004FF0020918F5FA7F16DA4FEACA70002FEF
:100FA000706008DD012007E04FEACA70C6E900B0B2
:100FB0000FB0BDE8F08F0020306000F049FAC0F8B3
:100FC00000901821084616E0B8F5FA7F18DD002FCA
:100FD00002DAF748784401E0F6487844D0E9001096
:100FE000C6E9001040EACA70706000F031FAC0F83B
:100FF0000090142108460FB0BDE8F04F07F0B3BAD7
:10100000002108464FF00000B8F10001099002DA13
:10101000C7F1000200E03A4601DAC8F1000106A873
:1010200000F062FC06AB93E8070003AB83E807001F
:1010300044F23E005BEA04010090584604D144F2B9
:101040001E012C465D460091210C0904014306D186
:101050000099240444EA15442D041039009104F049
:101060007F41014306D10099240244EA15642D0210
:101070000839009104F07041014306D10099240120
:1010800044EA15742D01091F009104F04041014309
:1010900006D10099A40044EA9574AD00891E009120
:1010A00004F00041084304D100986D196441401ECA
:1010B00000904FF001033A466846B8F1000FCDE9C1
:1010C000014503A902DD01F00CFA01E001F0DFF9AE
:1010D000BAF1000F04460D4601D084F0004400210F
:1010E00008464FF00000099940F2FF77484010F0A1
:1010F0000C0F07D124F00040284303D0C4F30A505A
:10110000B84212D100F0A4F9C0F80090C4F30A501C
:10111000B8420AD1A8487844D0E90010C6E90010C6
:1011200004F000410843706042E7C6E900543FE71D
:101130002DE9FF4F1F464FF0000A4FF0FF3845469C
:1011400091B0D7E90146CDF83CA000F07DF9C06828
:101150000168405C1090B96912986D1C8847396A23
:10116000814688470028F6D1B9F1FF3F0AD0002E0A
:1011700024F4D06411DDB9F12B0F08D0B9F12D0F93
:101180000BD102E0404615B013E744F48064B9691E
:1011900012986D1C8847761E8146600504A901D50A
:1011A0002D2000E02B20002E01F1010B0DF1300865
:1011B0008DF810003FDDB9F1690F08D0B9F1490F82
:1011C00005D0B9F16E0F02D0B9F14E0F1CD13B46DC
:1011D00001A8009580E85002DDE912126FF00200CC
:1011E00007F02AFAC11CCED10EE0B96912986D1C25
:1011F000884781461398761E44F4007405600F9862
:10120000401C002E0F9016DDB9F1300FEDD0B9F172
:10121000780F02D0B9F1580F0DD10F9801280AD1DB
:101220003B46CDE90054DDE91212001F029607F09B
:1012300001FAC11CA7D1109989453ED144F0800420
:1012400006E01399681CAAF1010A44F400740860CE
:10125000B9696D1C1298761E884730288146F0D0F7
:101260002BE01099894505D1200603D4761E44F061
:10127000800418E0484605F050FA08B3761E0DF1D8
:1012800023018B4544F4007408D2A9F130000BF817
:10129000010B200607D5AAF1010003E0200602D4C5
:1012A0000AF101008246A00502D51399681C086066
:1012B000B96912986D1C88478146002ED1DC53E035
:1012C000002E51DDB9F1650F02D0B9F1450F4BD1B8
:1012D000A00549D5B9696D1C1298761E24F4407496
:1012E0008847002E81460CDD2B2804D0B9F12D0F44
:1012F00007D144F48074B96912986D1C8847761E32
:101300008146E00501D52D2100E02B2108F8011BC5
:10131000CDF8008021E0761E0DF13901884544F4B6
:1013200000740CD2A9F1300010F0FF0088F8000022
:1013300002D10099884509D908F1010806E0E005C5
:1013400001D51E4801E042F20F708246B969129839
:101350006D1C8847814613980560002E04DD4846C1
:1013600005F0DBF90028D6D1F96912988847FF20EB
:1013700053468BF8000088F8000000200A900B907C
:1013800004AA0CA90AA8FFF7ADFDA00502D46FF0CE
:101390000100F8E614F0240F12D0E0071CD13868E1
:1013A000DDE90A12031D3B600068C0E9001213E08A
:1013B000A07A0000927A000056790000F1D8FFFF71
:1013C0000AA9684605F096F9E00705D13868009A41
:1013D000011D3960006802602846D4E602681144A5
:1013E0001378016018467047D1600549794451610E
:1013F00004497944116200211161114600F0BAB824
:10140000EDFFFFFFED000000426842B1016811F8F6
:10141000013B23B1521EC0E900121846704701215A
:10142000C160881E704742685AB1C368016843B9F9
:1014300083688B4205D0491E521CC0E9001200206F
:1014400070474FF0FF307047004870476C4D0020E8
:10145000004870474C4D002030B5B0F10A024FEA09
:10146000900E71F100034EEA817EB0EB0E0061EB4D
:1014700091014FEA101E4EEA017E10EB0E0041EB87
:1014800011114FEA102E4EEA016E10EB0E0041EBE7
:1014900011214FEA104E4EEA014E10EB0E0041EBC7
:1014A0001141401841F100014FEAD00040EA41707B
:1014B0004FEAD10110EB80054FEA810444EA9074B1
:1014C00044EB01046D1944EB0404521BA3414FF09B
:1014D000000348BF0A3200D530BD401C41F1000175
:1014E00030BD10B5044600F09BFA0068005D00F0C6
:1014F000010010BD2DE9F0411F4604460326016896
:10150000072A01F4006004DB08B116A505E016A562
:1015100003E008B115A500E015A521F0100020603A
:10152000A069C01EA0610FB1401EA0612046AFF3AC
:1015300000804FB1D4E9012138469047206A401C11
:101540002062C01C206206E0206AFAE7D4E901218B
:1015500015F8010B9047761EF8D22046AFF30080B5
:10156000BDE8F0814E414E006E616E00494E46006E
:10157000696E66002DE9F34F4FF0000A0C4656469F
:101580008DB001200C9001F10C000B9062690B985A
:1015900001219047051E2DD0252D2CD0216A88478A
:1015A000C0B162690B9801219047216A88470028E1
:1015B000F7D16269411E0B98904700E0761CA16943
:1015C0000D988847216A88470028F7D1E1690D986E
:1015D0008847DBE7A1690D988847A842074601D1F3
:1015E000761CD3E7E1690D9888477F1C02D1BAF1D8
:1015F000000F6FD06CE162690B9800273D463946B9
:1016000090472A2804D162690B980121904701254F
:10161000DFF8D08262690B9801219047A0F1300178
:101620000A290AD24745E5DC07EB870100EB4107B1
:10163000303FDFD445F01005ECE7E90601D46FF048
:1016400000476C280AD04C2814D0682815D06A2886
:101650000DD074281CD07A281AD01DE062690B982E
:10166000012190476C2802D045F0040514E045F0B4
:1016700002050DE045F020050AE062690B980121A2
:101680009047682802D045F0080505E045F400655C
:1016900062690B9801219047C4E9015765283DD044
:1016A00019DC58287AD00CDC452837D004DC2528F2
:1016B00026D041289ED131E046282FD0472899D105
:1016C0002CE05B2877D0612828D063287CD0642860
:1016D00023D15AE0F7E06F2848D008DC66281DD0F7
:1016E00067281BD0692821D06E2816D127E07028E2
:1016F00045D0732868D0752847D078280DD14DE0A3
:10170000A1690D988847252805463FF469AFE1692E
:101710000D9888476D1C3FF46AAFD9E00D992346B8
:101720006A466FF0010006F083FFC6E045F0400016
:1017300023464FF000026060A80736D43EE0E80779
:101740007FF447AF2068011D21600068290501D59D
:1017500006701BE7290701D5068017E7A90703D5FF
:10176000F117C0E9006111E706600FE745F040009E
:1017700023464FF008026060A80716D41EE040F62A
:101780000E0125EA0100606016E045F040002346A6
:101790004FF00A026060A80707D40FE045F0400050
:1017A0006060A80708D5234610220D996FF001004C
:1017B000AFF3008081E007E0102223460D996FF01F
:1017C0000100AFF3008078E04FF0000963284F4636
:1017D000C8464B46CB4602D05B2807D039E020797B
:1017E000C00601D40120A060012732E06269D4F86C
:1017F0000CB00B98012190475E2807D14FF00109EA
:1018000049466269D4F80CB00B989047216939B900
:1018100000210A4603AB43F82120491C0829FADBC2
:10182000D8B3216949B308F1010862690B98012115
:1018300090475D28F4D1B9F1000F09D0002003A929
:1018400051F82020D24341F82020401C0828F7DB23
:1018500003AB2069002820794FEA40701ED05B4618
:101860002246CDF80080CDE901970D9900286FF050
:10187000010020DAAFF300801FE0C11703AA00EBDC
:10188000D1614B1121F01F0102EB8302411A136851
:101890000120884003431360C7E719E00D992246F1
:1018A00000286FF00100009702DAAFF3008004E037
:1018B000AFF3008001E0AFF3008000280ADA401C9B
:1018C00006D10C9820B14FF0FF300FB0BDE8F08F7B
:1018D0005046FAE7E90701D10AF1010A064400205F
:1018E0000C9053E6CCCCCC0C2DE9F0478146164643
:1018F0008AB0354878440DC88DE80D0032487844E8
:10190000801C03AC0DC884E80D0041F69B300844F0
:10191000372190FBF1F290FBF1F5A5F1800501FB79
:1019200012041B3C02D56442012000E00020DFF8D5
:1019300098A080460027FA44AAF1BE0A0EE0E0070C
:101940000AD03246684607EB470101230AEB8101C2
:1019500000F0B2FD8DE8070064107F1C002CEED172
:10196000194F7F44AE3F19E0E80715D007EB04108C
:101970000DF1180A90E80E008AE80E00C068F042E7
:1019800001D1981908903246012306A903A800F056
:1019900093FD03AB83E807006D10641C002DE3D1B9
:1019A0004FF0010332466946B8F1000F03A802D098
:1019B00000F058FD01E000F07FFDC9E90001C9F821
:1019C00008200AB0BDE8F087046F000000487047A7
:1019D0004C4D00207546FFF7F9FFAE4605006946FD
:1019E000534620F00700854618B020B5FEF7A6FC48
:1019F000BDE820404FF000064FF000074FF0000810
:101A00004FF0000B21F00701AC46ACE8C009ACE890
:101A1000C009ACE8C009ACE8C0098D4670470000B9
:101A200010B5FFF711FD001D10BD00BF35660000A9
:101A30002DE9FF4F1F464FF03C0987B04FF00042A1
:101A4000DDE9141001F10108DDF858A002EA405068
:101A50000390002005908346054604460490B9692A
:101A6000461E08988847AAF1010A0290BAF1000FB1
:101A70003BDD02982E2815D0102100F01FFA002817
:101A80002EDB4FF0010B0599014317D0B9F1000F80
:101A90000BDB4A46C11700F0FEF905430C43A9F1E0
:101AA000040905E0012004900BE008B145F00105B0
:101AB00001200590049820B9361D02E0049800B179
:101AC000361FB969089808F101088847BBF1000F73
:101AD000AAF1010A0290C9D00999C1F80080C5E7AE
:101AE0000298702808D0502806D0F96908988847CD
:101AF000BBF1000F14D04FE0002002900120BBF199
:101B0000000F049009D0B969089808F101088847C6
:101B1000AAF10109B9F1000F07DCF96908988847B3
:101B20006FF001000BB0BDE8F08F2B2804D02D28FA
:101B30000CD14FF0FF300490B969089808F1010802
:101B40008847A9F10109B9F1000FE6DD411CE4D095
:101B50000A2100F0B3F90028DFDB029908F101083F
:101B600001EB810100EB41000290B96908988847B8
:101B70000A2100F0A3F9099AA9F10109B9F1000FAE
:101B8000C2F8008001DD0028E7DAF9690898884783
:101B90000499029800FB016655EA040004D004F0A1
:101BA0004041090002D006E0039898E0A40044EA0E
:101BB0009574AD00B61E04F00041080002D16D1905
:101BC0006441761E159810F0240F03D04FF00B09D6
:101BD0005C4803E04FF028096FF07D0082465645CF
:101BE00007DAAAEB06018944B9F1410F01DD4FF094
:101BF000410901200021A9F1010200F04CF902463F
:101C000028400B462140084301D0012100E000217B
:101C1000501E029143F1FF3128402140084301D07A
:101C2000012000E000200299834651EA0B014FD0C9
:101C3000002108464FF00000039900F4400039B13C
:101C400000EB80004FF4400100EBD07001EA60002F
:101C50008015012802DD4FF0FF3000E013D0401C5A
:101C600036D0029860B3BBF1000F0CD14A46012078
:101C7000002100F010F928402140084301D0012044
:101C800000E00020E0B101204A46002100F003F905
:101C9000034640190A4661412D1A8C4111D3B9F10E
:101CA000400F09DD159810F0240F02D0AAF1340678
:101CB00003E0AAF1170600E0761C00254FF000446F
:101CC00006E05B1E42F1FF3220EA030521EA02042E
:101CD000CAF10100B04206DA1B490398084301909B
:101CE000002000900EE0039AC4F3D321E80A0A43CF
:101CF000164940EA44500A433146CDE9000268469D
:101D000004F001FD159810F0240F0BD01598C007B2
:101D100015D13868DDE90012031D3B600068C0E999
:101D200000120CE002A8694604F0E4FC1598C00714
:101D300005D13868029A011D39600068026040468A
:101D4000F0E6000002FCFFFF0000F07F0000F03F23
:101D50002DE9FF4F92461D4685B04FF00041DDE969
:101D6000124BDDE914727F1E01EA4B50414940F0ED
:101D7000FF4940EA0108002122F02000492804918F
:101D800002D04E2828D04CE03BA0012607C88DE8A1
:101D90000700A9690698641C88477F1E014606D47F
:101DA0001DF8060018B121F0200181420BD0E9692D
:101DB00006988847032E34D0082E32D06FF00100E9
:101DC00009B0BDE8F08F761C032E01D0082EE0D1BB
:101DD000601CCAF80000DCE7A9690698641C884703
:101DE0007F1E2AD420F02000412826D1A969069818
:101DF000641C88477F1E20D420F020004E281CD170
:101E0000A9690698641C88477F1E48F4002849F495
:101E10008009CAF8004001D4282806D0E96906984C
:101E200088475FEACB7012D022E0A9690698641C4B
:101E300088477F1E01D4002803DAE969069888479D
:101E4000BCE72928F1D1641CCAF80040E9E71BF07F
:101E5000240F07D028680499031D2B600068C0E98F
:101E6000001805E02868021D2A600068C0F800908C
:101E70002046A5E70000F07F494E46494E49545997
:101E80000000000010B50446AFF300802046BDE816
:101E90001040FEF7DEB9B2F120030AD5C2F12003EB
:101EA00001FA02F120FA03F300FA02F041EA030119
:101EB000704700FA03F14FF0000070473A2800D253
:101EC000303820F02002412A01D3A2F137008842A5
:101ED00001D34FF0FF30704701491820ABBEFEE739
:101EE0002600020070475FEA400C08BF91F0000F27
:101EF0004FEA8C234FEAC12243EA51514FEA1C506A
:101F000018BF00F5F0404FEA300018BF41F0004123
:101F10005FEA6C5C00F02980BCF1FF3F08BF40F035
:101F200080407047130C06BF12044FF0100C4FF0A6
:101F3000000C130E04BF12020CF1080C130F04BFA7
:101F400012010CF1040C930F04BF92000CF1020C6F
:101F5000D30F04BF52000CF1010C11464FF00002E8
:101F6000A0F11F00A0EB0C00704711F0004F08BF5C
:101F7000704731F000413FF4D5AF0B0C06BF0904A8
:101F80004FF0100C4FF0000C0B0E04BF09020CF1C7
:101F9000080C0B0F04BF09010CF1040C8B0F04BFDC
:101FA00089000CF1020CCB0F04BF49000CF1010CAD
:101FB000CCF12003A0EB0C0022FA03F302FA0CF29E
:101FC00041EA030100F10100704720F07F4C80EAF4
:101FD000030023F07F47ACEB070303F57C5300F0CD
:101FE000004003F1FF032DE980494FEA154B09B486
:101FF0004FEA144325EA0B4E24EA03480FF2042665
:1020000006EB132749083E785FEA320203FB0667B6
:10201000C7F5000707FB06F64FEA54374FEAD646E6
:1020200006F1020607FB066CCCF1005C4FEA1C4788
:102030002CEA074C07FB06F40CFB06F504EB1546EF
:102040004FEA961634BF00204FF000404FEAD137D8
:1020500006FB07FC4FEA1C4C0CFB0BF7D21B03FBE7
:102060000CF761EB07010CFB0EF7B0EB074072EBCE
:1020700017420CFB08F734BFA2EB0742B2EB074252
:1020800061EB17414FEA0C444FEA910706FB07FC4E
:102090004FEA1C4C0CFB0BF7B0EBC74072EB57320E
:1020A00003FB0CF734BFA2EBC742B2EBC74261EBB4
:1020B00057310CFB0EF7B0EBC70072EB57720CFBFD
:1020C00008F734BFA2EBC702B2EBC70261EB57714E
:1020D000039F4FEA816141EA921104EBCC044FEA7D
:1020E000D1374FEA826206FB07FC42EA90124FEAC0
:1020F00080604FEA1C4C0CFB0BF7D21B03FB0CF768
:1021000061EB07010CFB0EF7B0EB074072EB1742D7
:102110000CFB08F734BFA2EB0742B2EB074261EBBE
:1021200017414FEA8C554FEA910704EB9C2406FBBC
:1021300007FC4FEA1C4C0CFB0BF7B0EBC74072EBF3
:10214000573203FB0CF734BFA2EBC742B2EBC742D6
:1021500061EB57310CFB0EF7B0EBC70072EB577217
:102160000CFB08F734BFA2EBC702B2EBC70261EB6E
:10217000577115EB4C254FEA816141EA92114FEA04
:1021800082624FEAD13742EA901206FB07FC44F123
:1021900000044FEA80604FEA1C4C0CFB0BF7D21B8B
:1021A00003FB0CF761EB07010CFB0EF7B0EB0740EC
:1021B00072EB17420CFB08F734BFA2EB0742B2EBFD
:1021C000074261EB174115EB1C154FEA813141EADB
:1021D00092414FEA823242EA90424FEA80304FEA1F
:1021E0000C7644F1000448EA03434EEA0B484FF0F2
:1021F000000EB2EB080C71EB030724BF62463946B0
:102200004EEB0E0E4FF0000B0018524149414BEBC4
:102210000B0BB2EB080C71EB03077BF1000B24BF37
:10222000624639464EEB0E0E4FF0000B001852413D
:1022300049414BEB0B0BB2EB080C71EB03077BF145
:10224000000B24BF624639464EEB0E0E51EA0207E0
:1022500018BF46F0010616EB0E7655F1000254F158
:10226000000103D5BDE88901BDE80088BDE889010A
:10227000BDE80048B619524141EB0101A3F1010349
:10228000704780807F7E7D7C7B7A797877767675E3
:102290007473727171706F6E6E6D6C6C6B6A6A695B
:1022A0006868676666656464636362616160605FF5
:1022B0005F5E5E5D5D5C5C5B5B5A5A59595858576E
:1022C00057565655555554545353525252515150D6
:1022D00050504F4F4F4E4E4D4D4D4C4C4C4B4B4B29
:1022E0004A4A4A494949484848474747474646466F
:1022F00045454544444444434343434242424241AA
:102300004141000046EA0646A3F570534FEA1646DF
:1023100046EA42564FEAD22242EA415210B54FEA0B
:10232000D121A3F1010300F02FF820F0004000F1CB
:10233000020C00F0004701EB00501146BCF5006FA5
:1023400040EA070000D210BDBAF1000F0AD01CB558
:1023500003B44FF004004FF004014FF000000FBC35
:10236000BDE810404FF00001BBF1010FB9BF0448B8
:102370004FF0FF310348002140EA070010BD00BFC5
:10238000FFFFEF7F0000F07F002B9C4630D47700EA
:102390002BD01CB54FEA370703B44FF010004FF0B5
:1023A0001001BAF1000F06D0BCF1000FDCBF40F005
:1023B000080040F008014FF000000FBCBDE81040DD
:1023C0000BF1010BBBF1010F08BF5FEA170722BF3A
:1023D00012F1010211F101014FF0004143F100033C
:1023E00000F0004043EA00007047F9D35708D0E7F7
:1023F00046EA064613F1400F4FEA16461FDD13F179
:10240000200FDFBF16430A46002120335B42BED0B7
:10241000C3F1200746EA064602FA07F74FEA1646D6
:1024200046EA0706C3F1200722FA03F201FA07F78A
:1024300021FA03F14FF0000342EA0702A7E746EA58
:10244000020646EA06464FEA164646EA0106BCBFC1
:1024500046EA0646360C4FF000034FF000024FF0FC
:10246000000194E72DE9804C9A46934670B491E8B8
:10247000380007C831EA400C48BF34EA430C03D5A2
:10248000FFF7A3FDFFF780FFF0BCBDE8008C2DE94E
:10249000804C9A46934670B491E8380007C831EAF8
:1024A000400C48BF34EA430C03D5FFF78EFDFFF71D
:1024B00029FFF0BCBDE8008C2DE9804C9A4693467C
:1024C00070B491E8380007C810F0804F08BF13F0CF
:1024D000804F03D100F01AF8FFF756FFF0BCBDE8BB
:1024E000008C2DE9804C9A46934670B491E83800F0
:1024F00007C810F0804F08BF13F0804F03D100F0E1
:1025000005F8FFF7FFFEF0BCBDE8008C20F07F4728
:1025100080EA030023F07F4C07EB0C03A3F57C5308
:1025200000F00040A3F1FE0392F0000F00F0B38032
:1025300095F0000F00F077802DE901494FEA114036
:102540004FEA144621EA004800FB06FC24EA06474D
:1025500008FB06F607FB08F800FB07F718EB064830
:102560004CEB164C4FEA124B18EB07484FEA154656
:102570004CEB174022EA0B4E0BFB06FC25EA064704
:102580000EFB06F607FB0EFE0BFB07F71EEB064ED7
:102590004CEB164C4FF000061EEB074E4CEB174B66
:1025A00018EB0B0840F1000018EB0E0B58EB00087D
:1025B00040F100008F1A4FF000013CBFC943661B79
:1025C00014BFB5EB040C00213CBFC943F61B4FEA16
:1025D00017444EEA8E0E27EA04454FEA1C4704FBD7
:1025E00007622CEA074C05FB07F70CFB05F604FB1A
:1025F0000CFC16EB074642EB174216EB0C4642EB7F
:102600001C421BEB060658EB0202414146EA9E06BD
:1026100001D5BDE80189B619524141EB0101A3F191
:102620000103BDE801894FEA14454FEA114724EA46
:10263000054621EA074C05FB07F406FB07F70CFBF0
:1026400006F105FB0CFC11EB074144EB17444FEA84
:10265000124711EB0C4144EB1C4422EA074C05FBEA
:1026600007F206FB07F70CFB06F605FB0CFC16EB66
:10267000074642EB174216EB0C4642EB1C456A1824
:1026800054F1000148BF7047B619524141EB0101B6
:10269000A3F10103704795F0000F37D04FEA1142C4
:1026A0004FEA144721EA024624EA074C02FB07F1ED
:1026B00006FB07F70CFB06F402FB0CFC14EB0744CB
:1026C00041EB17414FEA154714EB0C4441EB1C4119
:1026D00025EA074C02FB07F506FB07F70CFB06F69D
:1026E00002FB0CFC16EB074645EB174516EB0C46B8
:1026F00045EB1C42121951F1000148BF7047B61951
:10270000524141EB0101A3F1010370474FEA144527
:102710004FEA114724EA054621EA074C05FB07F179
:1027200006FB07F70CFB06F24FF0000605FB0CFC5E
:1027300012EB074241EB174112EB0C4251EB1C41EB
:1027400048BF7047921841EB0101A3F101037047A4
:1027500010B50146806B026C12F0500F05D0026C70
:10276000D20626D500F010FA10BD016C41F40071BC
:10277000016401688A6812F0405F17D1027EAAB92D
:10278000CA6A12F4700F02D08A6852050ED44A68E1
:1027900022F020024A60016C21F480710164016C16
:1027A000C90403D4016C41F00101016400F0EAF9AD
:1027B00010BD806BC26CBDE810400846104710B5D4
:1027C000806B40210164416C41F00401416400F0E0
:1027D000DBF910BD10B5806B00F0D5F910BD00001D
:1027E000464910B54A6822F440324A604A68436854
:1027F0001A434A6001684A6822F480724A6001689C
:102800004A68036942EA03224A6001684A6822F082
:1028100040724A6001684A6883681A434A600168E6
:102820008A6822F400628A6001688A68C3681A4371
:102830008A60816A6FF07062D14201688A6822F012
:1028400070628A6001688A680CD0836A1A438A6061
:1028500001688A6822F040528A6001688A68C36A07
:102860001A4301E022F040528A6001688A6822F02F
:1028700002028A6001688A68037E42EA43028A6033
:1028800090F82010002901684A680FD042F40062D5
:102890004A6001684A6822F460424A6001684A68F6
:1028A000174C436A04EB43331A4301E022F40062FD
:1028B0004A600168CA6A22F47002CA620168CA6A80
:1028C000838B104C04EB03531A43CA6201688A6875
:1028D00022F400728A6001688A6890F8303042EA17
:1028E00043228A6001688A6822F480628A600168F3
:1028F0008A68406942EA8020886010BD0023014058
:1029000000E0FFFF0000F0FFFEE70000014800F0DC
:1029100081BB0000D0030020014800F07BBB000019
:102920001C02002001681823CAB2103AB2FBF3F26D
:10293000054B6FF30901032A9B5CC36500D9091D90
:1029400081650846704700002087000810B50146E1
:1029500000208B698A6A4FF0C07453B1B3F5005FF1
:1029600015D072B1012A0CD0022A0AD0032A09D14B
:1029700004E01AB1012A06D0022A03D1C96AC901AA
:1029800000D5012010BDC96AA142FAD010BD002AAD
:10299000F7D0012AF2D0022AF3D0032AF3D010BDD7
:1029A00030B50468256825F48025256004686360D7
:1029B0008368402B036803D099600068C26030BD13
:1029C0009A600068C16030BD704772B6FEE70000D3
:1029D000082811D2DFE800F00406080A10100C0ED7
:1029E00006A0704707A0704708A0704709A070476D
:1029F0000BA070470CA070470DA070474E4F4E457E
:102A000000000000535045454400000054454D501F
:102A1000000000004F56455243555252454E540057
:102A20005354414C4C0000004C4F434B4544000074
:102A3000554E4B4E4F574E0078B50024009490F8F9
:102A40003C20012A19D0012280F83C200A68072383
:102A50000568092A13D9EE680A3A02EB420293404C
:102A60009E43EE600B788A680A3B03EB43039A406F
:102A70000368DD682A43DA6010E0022078BD2E6921
:102A800002EB420293409E432E610B788A6803EB6F
:102A900043039A4003681D692A431A614A681F2349
:102AA000072A13D205686E6B521E02EB8202934016
:102AB0009E436E630B790A885B1E92B203EB83031D
:102AC0009A4003685D6B2A435A6327E005680D2A24
:102AD00012D22E6BD21F02EB820293409E432E63D2
:102AE0000B790A88DB1F92B203EB83039A400368D9
:102AF0001D6B2A431A6311E0EE6A0D3A02EB820263
:102B000093409E43EE620B790A880D3B92B203EB31
:102B100083039A400368DD6A2A43DA62164B05682C
:102B2000144A9D4206D10D68122D03D1556845F413
:102B30008005556005689D4218D10B68102B01D0A7
:102B4000112B13D1536843F4000353600968102913
:102B50000CD10A490A4A0968B1FBF2F101EB810183
:102B6000490000E0491E00910029FBD180F83C405B
:102B7000002078BD002301400020014070000020AB
:102B800040420F0070477047704770B504004FF027
:102B9000000503D0206C002610B107E0012070BDB5
:102BA000204600F01DF8666484F83C60206CC00686
:102BB00010D4206C20F4885040F00200206420469D
:102BC000FFF70EFE6664206C20F0020040F001006A
:102BD000206400E0012584F83C60284670BD0000B8
:102BE000F0B587B0064614216846FDF762FE1F491E
:102BF0003068884238D11E480025016841F4807150
:102C00000160006800F4807005901948143801686C
:102C100041F0010101600068032700F00100059008
:102C20001320CDE9000769460295124800F064FBC5
:102C3000124C1148C4E900050015A560C4E9035011
:102C4000400060618000A0614011C4E907050420D4
:102C50006062C4E90A752046256300F0ABFA08B14A
:102C6000FFF7B3FEB463A66307B0F0BD00200140D8
:102C70004438024000000240106402401C02002060
:102C8000F8B5044600200E46009094F83C10012947
:102C900007D0012184F83C1021688B68DB0702D043
:102CA00011E00220F8BD8B6843F001038B604049BE
:102CB000404B0968B1FBF3F101EB410100E0491E13
:102CC00000910029FBD121688B68DB0503D58B6857
:102CD00023F480738B6021688B68DB075DD0236CE5
:102CE00040F20165AB4343F48073236449684905AE
:102CF00005D5216C21F4005141F480512164216CEF
:102D0000C90404D5616C21F00601616400E06064CF
:102D100084F83C00A16B2948274DC863A16B284863
:102D20000864A16B2748C86421686FF0220008601E
:102D30002068416841F0806141602068816841F409
:102D4000807181602168134632464C31A06B00F0DF
:102D50009BFA68681C49C006206806D0884224D1C6
:102D6000816811F0405F13D01FE08842F8D0174A05
:102D7000904203D1D1F80423D206F1D0144A9042F4
:102D800013D1D1F8041301F01F011029E8D30CE08E
:102D9000816841F08041816007E0206C40F01000C4
:102DA0002064606C40F0010060640020F8BD000009
:102DB0007000002040420F0000230140512700080E
:102DC000D5270008BF27000800200140002101404E
:102DD0000022014070B5040003D094F8200010B127
:102DE00004E0012070BD204600F082F820680168F0
:102DF00041F00101016000F07DFB0546052604E07D
:102E000000F078FB401B0A2811D820684068C007F2
:102E1000F6D02068016821F00201016000F06AFB31
:102E200005460BE000F066FB401B0A2806D9606AE5
:102E300040F40030606284F82060D2E72068406887
:102E40008007EFD4207E0128206801683DD021F062
:102E500080010160607E01282068016838D021F07F
:102E600040010160A07E01282068016833D021F074
:102E700020010160E07E0128206801682ED041F029
:102E800010010160207F01282068016829D021F00D
:102E900008010160607F01282068016824D021F0CA
:102EA00004010160D4E902010843D4E9041211438A
:102EB00008436168491E08432168C86100206062B8
:102EC000012084F82000002070BD41F08001C0E79F
:102ED00041F04001C5E741F02001CAE721F01001AF
:102EE000CFE741F00801D4E741F00401D9E7000041
:102EF00010B586B0044614216846FDF7DAFC144983
:102F00002068884221D113480021026842F00072F3
:102F10000260006800F0007005900E4810380268EA
:102F200042F002020260006800F0020005904FF4D7
:102F3000407000900220CDE9010103200390092098
:102F400004906946044800F0D7F906B010BD0000AF
:102F50000064004040380240000402402DE9F04186
:102F60000446876D00F0C6FA064694F83500002541
:102F7000022806D08020606584F834500120BDE826
:102F8000F0812068016821F0160101602068416924
:102F900021F080014161206C08B9A06C20B120684B
:102FA000016821F0080101602068016821F0010139
:102FB00001600CE000F09EFA801B052807D9202054
:102FC0006065032084F8350084F83450D7E7206822
:102FD0000068C007EED194F85C103F208840B860CC
:102FE000012084F8350084F834500020C7E790F8B9
:102FF0003510022903D08021416501207047052149
:1030000080F835100068016821F00101016000209E
:10301000704700002DE9F84304464FF00009CDF851
:10302000009063484FF41651A56D0068B0FBF1F7AE
:103030002E6894F85C10082000FA01F131420FD09C
:1030400021680A6852070BD50A6822F004020A6058
:1030500094F85C108840A860606D40F001006065E5
:1030600094F85C104FF0010808FA01F0304208D0E3
:1030700021684969090604D5A860606D40F0020026
:10308000606594F85C1004208840304208D02168C4
:103090000968890704D5A860606D40F00400606588
:1030A00094F85C1010208840304218D021680968DC
:1030B000090714D5A86020680168490304D5006891
:1030C000000308D5A16C07E00168C90503D40168B5
:1030D00021F008010160216C09B12046884794F86D
:1030E0005C1020208840304231D021680968C90630
:1030F0002DD5A86094F8350005282068016806D011
:10310000490347D5006800031DD4616C1CE021F021
:10311000160101602068416921F080014161206C45
:1031200008B9A06C20B12068016821F00801016095
:1031300094F85C103F208840A86084F8358084F8BB
:103140003490216D1FE0E16B09B120468847606D26
:1031500000282BD0606DC00714D0052084F83500FE
:103160002068016821F0010101600098401C009076
:10317000B84203D820680068C007F6D184F83580CB
:1031800084F83490E16C002910D001B02046BDE8ED
:10319000F04308470168C905D5D4016821F0100142
:1031A000016084F8358084F83490CCE7BDE8F8837A
:1031B000700000202DE9F041044600F09BF906461E
:1031C0005CB1022084F83500002584F83450206872
:1031D000016821F0010101600DE00120BDE8F081EE
:1031E00000F088F9801B052805D9202060650320A0
:1031F00084F83500F2E720680068C007F0D1226843
:10320000116820480140D4E901031843D4E903368A
:103210003343184363691843A3691843E3691843A8
:10322000236A18430843616A042903D1D4E90B13C4
:1032300019430843106020684069666A20F007015E
:1032400030460E43012704280CD1A06A0643E06AE9
:1032500040B12046FFF77AFB20B14020606584F83A
:103260003570BAE7206846612046FFF75BFB94F8AB
:103270005C203F2191408160656584F835700020B5
:10328000ACE700003F8010F02DE9F0410446866D68
:1032900090F83400002501280DD0012084F8340076
:1032A00094F835700020012F07D084F834000225EF
:1032B0002846BDE8F0810220FBE7022784F835703C
:1032C00060652046FFF76CFB94F85C103F20884057
:1032D000B0602068016841F016010160206C20B1E7
:1032E0002068016841F0080101602068016841F030
:1032F00001010160DCE700002DE9F84FDFF8BCA117
:103300000022012503264FF00F090AF1040BAAF150
:10331000040E00BF0B6805FA02F42340A34270D1EB
:103320000F7907F00307012F01D0022F16D187680C
:103330004FEA420806FA08FC27EA0C07D1F80CC04D
:103340000CFA08FC4CEA070CC0F808C04768A74311
:103350000C79C4F3001494403C4344600C79E4437A
:10336000A4070AD0C4684FEA420C06FA0CF7BC4323
:103370008F6807FA0CF72743C7600C7904F0030441
:10338000022C12D1D40800EB840CDCF82040570743
:10339000FF0E09FA07F824EA0804D1F8108008FAA9
:1033A00007F848EA0408CCF8208004684FEA420C89
:1033B00006FA0CF7BC430F7907F0030707FA0CF77E
:1033C000274307604C6814F4403F70D03C4C27689A
:1033D00047F480472760246822F0030704F4804400
:1033E0000094384C07EB040CDCF8084897074FEAC8
:1033F000177809FA08F7BC43334FB84202D10027C7
:1034000024E054E0314FB84201D101271EE0304F93
:10341000B84201D1022719E02E4FB84201D103274B
:1034200014E02D4FB84201D104270FE02B4FB842D2
:1034300001D105270AE02A4FB84201D1062705E04D
:10344000284FB84201D1072700E0082707FA08F7FC
:103450002743CCF80878DAF800405746D1F804C082
:103460009C435FEACC2C00D51C433C60DBF8004059
:103470005F46D1F804C09C435FEA8C2C00D51C4306
:103480003C60DEF800407746D1F804C09C435FEA18
:103490008C3C00D51C433C60084F083F3C68D1F889
:1034A00004C09C435FEACC3C00D51C433C60521CEA
:1034B000102AFFF42FAFBDE8F88F0000083C014050
:1034C0004438024000300140000002400004024045
:1034D00000080240000C02400010024000140240AC
:1034E00000180240001C02400AB1816170470904C3
:1034F000FBE700000148806870470000640000207E
:1035000070B5040025D094F83D00002520B984F85A
:103510003C50204600F0B8F8242084F83D00206894
:10352000016821F0010101602068016841F4004157
:1035300001602068016821F40041016000F05CFA3C
:103540004D4A6168914201D84C4900E04C4988429B
:1035500001D2012070BD4B492368B0FBF1F15E68D8
:1035600026F03F060E435E606368934206D94FF42F
:10357000967359434FF47A73B1FBF3F12368491CF6
:103580001E6A26F03F06314319626168914210D8E5
:103590004900401EB0FBF1F2521CC2F30B02042A98
:1035A00001D2042022E0B0FBF1F0401CC0F30B007C
:1035B0001CE0A268F2B301EBC10303EB0116431E4A
:1035C000B3FBF6F35B1C43F480431B0549D092B375
:1035D00001EBC10202EB0111401EB0FBF1F0401CF7
:1035E000C0F30B0040F4804040F400402168CA69F9
:1035F0004CF6FF739A431043C861D4E907100143A6
:103600002068026822F0C00211430160D4E903017E
:1036100001432068826848F2FF339A431143816076
:10362000D4E9050108432168CA6822F0FF0210436B
:10363000C86001E00EE016E02068016841F0010179
:1036400001602564202084F83D00256384F83E5005
:10365000002070BD01EB4106431EB3FBF6F35B1C7B
:10366000B3E70120C2E701EB4101401EB0FBF1F0DE
:10367000401CC0F30B00B7E7A086010080841E0049
:1036800000093D0040420F0010B586B004461421E9
:103690006846FDF70EF913492068884220D1124888
:1036A0000021026842F002020260006800F002009D
:1036B0000590C02000901220CDE901010320039065
:1036C0000420049069460948FFF716FE06481030AA
:1036D000016841F400110160006800F400100590D9
:1036E00006B010BD005400403038024000040240D3
:1036F00002488168027811448160704764000020AC
:103700000B4810B5016841F400710160016841F493
:1037100080610160016841F480710160032000F064
:103720009FF80F2000F006F800F050F8002010BDC0
:10373000003C024030B505461F4887B000240168B0
:1037400041F010010160006806A900F0100000902F
:1037500001A800F031F90498A8B100F04DF940003B
:103760001649174AB0FBF1F11648491E026040F2B3
:10377000E732C0E90324C0E90114846100F0B8FB1A
:10378000040003D015E000F037F9E9E70D4800F038
:10379000DDFB04000DD1362000F034F8102D07D2E7
:1037A00000222946362000F03BF80748056000E07B
:1037B000012407B0204630BD4038024040420F008F
:1037C0000010004030040020680000200C4882B047
:1037D000016841F480410160006800F4804000907D
:1037E0000748001F016841F0805101600068002215
:1037F00000F0805000900F21901E02B000F010B831
:1038000044380240002809DB00F01F0201219140EA
:103810004009800000F1E020C0F80011704700006E
:10382000F0B40E4B1B680C46C3F30223C3F107052B
:10383000042D00D90425191D072901D2002300E019
:10384000DB1E012606FA05F1491E214099409E40E3
:10385000761E16403143F0BC02F067BD0CED00E06F
:10386000064900F0070208684FF6FF03184040EAD7
:103870000220034A10430860704700000CED00E08E
:103880000000FA052DE9F0470E46050065D0DFF887
:103890001481D8F80000F7B200F00700B04207D258
:1038A00088F80070D8F8000000F00700B04254D14A
:1038B00028683D4C810712D5400703D5206840F4A5
:1038C000E05020602878000703D5206840F460406D
:1038D00020602068A96820F0F00008432060287864
:1038E000C0072DD0304968680839012812D0022855
:1038F00013D0032811D00968890700292DDA21681F
:1039000021F0030101432160FFF7F4FD814641F2FC
:10391000883A0EE009688903EFE709688901ECE756
:10392000FFF7E8FDA0EB0901514502D90320BDE8EE
:10393000F0872068696800F00C00B0EB810FEFD1D0
:10394000D8F80010404601F00701B14207D90770CE
:10395000006800F00700B04201D00120E7E72878B6
:10396000400705D52068E96820F4E050084320604E
:103970002878000706D52068296920F4604040EACD
:10398000C100206000F058F82168084AC1F3031113
:10399000515CC8400649086006480068FFF7CAFE47
:1039A0000020C4E7003C0240083802402887000895
:1039B00070000020680000200F2202600C4A13688B
:1039C00003F003034360136803F0F003836013689C
:1039D00003F4E053C36012684FF4E05303EAD202E9
:1039E00002610448006800F00700086070470000AA
:1039F00008380240003C0240044805490068096854
:103A0000044AC1F38221515CC84070477000002015
:103A100008380240388700080448054900680968EA
:103A2000044AC1F34231515CC84070477000002025
:103A30000838024038870008154810B5006810F0B3
:103A40000C02144813D01449042A0FD0082A0ED1AE
:103A50000F4C241F2268236802F03F025B0207D547
:103A60002068C0F38810A0FB010106E0084610BDE5
:103A70002168C1F38811A1FB00010023FCF770FC51
:103A80002168C1F30141491C4900B0FBF1F010BDB0
:103A9000083802400024F40040787D012DE9F84FF9
:103AA00004006ED02078DFF84C93C007A9F104051C
:103AB0004AD009F104000168C1F38101012908D04D
:103AC0000068C0F3810002280AD1D9F80000400242
:103AD00006D52868800337D560680028E1D033E038
:103AE0006068B0F5803F10D0B0F5A02F286810D0E6
:103AF00020F480302860286820F4802028606068E6
:103B0000A8B1FFF7F7FC06460DE0286840F48030C6
:103B1000F4E740F480202860F7E700BFFFF7EAFCF5
:103B2000801B642873D828688003F7D50CE0FFF762
:103B3000E1FC064605E000BFFFF7DCFC801B6428C3
:103B4000F0D828688003F7D42078DFF8AC828007AB
:103B50004FF0000A3ED5A748001D016811F00C0F78
:103B600008D00068C0F3810002280BD1D9F800000A
:103B7000400207D42868800716D5E068012800D1E4
:103B800012E033E1E068B8B10120C8F80000FFF7A7
:103B9000B1FC064605E000BFFFF7ACFC801B022825
:103BA000C0D828688007F7D52868216920F0F80078
:103BB00040EAC10028600DE0C8F800A0FFF79AFCB9
:103BC000064604E0FFF796FC801B02281FD82868F1
:103BD0008007F7D42078000722D5864F874861698F
:103BE000703771B101210160FFF784FC064604E0E3
:103BF000FFF780FC801B022809D838688007F7D5BA
:103C00000EE0C0F800A0FFF775FC064605E082E074
:103C1000FFF770FC801B02287DD838688007F7D436
:103C20002078400768D5DFF8CCB100270BF13C0BBA
:103C3000DBF80000C0000BD4DBF8001041F080512D
:103C4000CBF80010DBF80000012700F08050009056
:103C50006B4E3068C00510D4306840F4807030601E
:103C6000FFF748FC009005E0FFF744FC0099401A7C
:103C7000022850D83068C005F6D55E4EA0686C3674
:103C800001280FD00528306810D020F001003060E6
:103C9000306820F004003060A068B8B1FFF72AFC5B
:103CA00000900FE0306840F00100F4E740F00400BD
:103CB0003060F7E7FFF71EFC0099411A41F28830A7
:103CC000814266D830688007F4D50EE0FFF712FC19
:103CD000009007E0FFF70EFC0099411A41F288308E
:103CE000814256D830688007F4D42FB1DBF8001039
:103CF00021F08051CBF80010A069C8B33D49091DDF
:103D00000968C1F3810102294AD00228504607D030
:103D1000C8F8600000E03CE0FFF7ECFB04463BE045
:103D20004746C8F86000FFF7E5FB064605E000BF20
:103D3000FFF7E0FB801B02282BD828688001F7D40E
:103D4000D4E907010843A16A2E4A490802EB014160
:103D5000626A41EA8211084394F82C1040EA01613A
:103D6000C9F8001001203866FFF7C4FB044606E0DE
:103D70003EE000BFFFF7BEFB001B022809D8286801
:103D80008001F7D534E000BFFFF7B4FB001B022829
:103D900002D90320BDE8F88F28688001F4D427E019
:103DA0000128F7D0D9F80000E26900F480019142BF
:103DB0001CD1226A00F03F01914217D147F6C07131
:103DC000626A0140B1EB821F10D1A26A4FF0FF334B
:103DD00000F4403103EB5202B1EB024F06D194F8EC
:103DE0002C1000F07060B0EB016F01D00120D1E722
:103DF0000020CFE70438024000004742800E4742CF
:103E0000007000400000FFFF7047704710B590F849
:103E10003C20012A22D0012280F83C20CA688C680C
:103E200022F4407222434C6822F4806222430C68E0
:103E300022F4006222430C6922F4805222434C692E
:103E400022F400522243C969002322F480420A432B
:103E500001684A6480F83C30002010BD022010BD8B
:103E600070B590F83C20012A32D0012480F83C4003
:103E7000022280F83D2003685A689D6822F070068F
:103E80000A6832435A60134B02689A4214D0B2F166
:103E9000804F11D0104B9A420ED0104B9A420BD04B
:103EA0000F4B9A4208D00F4B9A4205D00E4B9A42C4
:103EB00002D00E4B9A4204D1496825F08003194381
:103EC000916080F83D40002180F83C10084670BDAC
:103ED000022070BD000001400004004000080040C6
:103EE000000C004000040140004001400018004068
:103EF00010B5040003D094F83D0010B107E0012094
:103F000010BD002084F83C00204600F01EF802207E
:103F100084F83D00211D206801F042FF012084F853
:103F2000460084F83E0084F83F0084F8400084F89E
:103F3000410084F8420084F8430084F8440084F887
:103F4000450084F83D00002010BD704790F83D10FA
:103F5000012901D001207047022180F83D1001683D
:103F6000CA6842F00102CA6000681149884214D050
:103F7000B0F1804F11D00F4988420ED00E498842CF
:103F80000BD00E49884208D00D49884205D00D4912
:103F9000884202D00C49884204D1816801F00701AF
:103FA000062903D0016841F001010160002070473B
:103FB000000001400004004000080040000C0040E8
:103FC0000004014000400140001800402DE9F0418C
:103FD0000D46040003D094F83D0018B108E001201C
:103FE000BDE8F081002084F83C00204600F040F855
:103FF000022084F83D002068816844F20702914362
:104000008160211D206801F0CBFE226890689169D3
:10401000166A2B68AF69034340F20330814341EADB
:104020000721A868EF6908434FF6FC418843E96817
:1040300040EA0720014328692F6A000140EA07305F
:10404000084369686D6926F0AA0646EA0515294302
:1040500093602268906154F8460B0162012004F8D5
:104060001F09E0752076E0762077A0750020B7E77D
:1040700010B586B0044614216846FCF71AFC1249B4
:10408000206888421ED111480021026842F00202D5
:104090000260006800F0020005900C4810380268C9
:1040A00042F004020260006800F004000590C020A5
:1040B00000900220CDE90101039004906946044874
:1040C000FFF71AF906B010BD000400404038024066
:1040D0000008024070B590F83E60044690F83F50EA
:1040E00090F8423090F84320022021B104290ED0EC
:1040F000012E1BD114E0012E18D1012B16D184F80A
:104100003E0084F8420001220021206820E0012DB9
:104110000CD1012A0AD184F83F0084F8430014E04E
:10412000012D03D1012B01D1012A01D0012070BD45
:1041300084F83E0084F83F0084F8420084F843008D
:1041400001220021206801F097FE0122042120684D
:1041500001F092FE2068016841F001010160002039
:1041600070BD70472DE9F04104460068C6680569D6
:104170004FF00007A90713D5B10711D5F91E01614A
:1041800001202077206880698007204602D0FFF751
:10419000E8FF04E000F0A8F8204600F04DF927778A
:1041A000680716D5700714D521686FF00400086100
:1041B000022020772068806910F4407F204602D0DA
:1041C000FFF7CFFF04E000F08FF8204600F034F94D
:1041D0002777280715D5300713D521686FF0080019
:1041E0000861042020772068C0698007204602D03B
:1041F000FFF7B7FF04E000F077F8204600F01CF965
:104200002777E80616D5F00614D521686FF0100060
:104210000861082020772068C06910F4407F20469C
:1042200002D0FFF79EFF04E000F05EF8204600F0A9
:1042300003F92777E80708D0F00706D021686FF068
:1042400001000861204600F05DF9280608D5300617
:1042500006D521686FF0800008612046FFF7D4FD85
:10426000680608D5700606D521686FF04000086121
:10427000204600F051F9A8060AD5B00608D52168F5
:104280006FF0200008612046BDE8F041FFF7BDBD9A
:10429000BDE8F08110B586B0044614216846FCF7ED
:1042A00008FB0E492068884216D10D48002102689B
:1042B00042F001020260006800F0010005904FF436
:1042C000407000900220CDE901010120CDE90310EA
:1042D00069460448FFF710F806B010BD0000014021
:1042E0003038024000000240704770B5044690F834
:1042F0003C0000260D4601280FD0012084F83C0028
:104300006AB1042A1DD0082A2FD00C2A3FD00126DA
:10431000002084F83C00304670BD022070BD20684B
:1043200001F0B8FD2068816941F0080181612068D1
:10433000816921F004018161206881692A69114342
:1043400011E0206801F0D6FD2068816941F4006128
:1043500081612068816921F48061816120688169BF
:104360002A6941EA02218161D2E7206801F0F8FD63
:104370002068C16941F00801C1612068C16921F06C
:104380000401C1612068C1692A69114311E02068F4
:1043900001F01AFE2068C16941F40061C161206822
:1043A000C16921F48061C1612068C1692A6941EA5B
:1043B0000221C161ACE710B5040003D094F83D00C0
:1043C00010B107E0012010BD002084F83C00204619
:1043D00000F01EF8022084F83D00211D206801F045
:1043E000DFFC012084F8460084F83E0084F83F009A
:1043F00084F8400084F8410084F8420084F84300C7
:1044000084F8440084F8450084F83D00002010BD85
:1044100008B500680649884208D10648016841F09D
:1044200001010160006800F00100009008BD00007B
:1044300000000140443802407047000010B50446B7
:10444000022249B104290ED0082913D094F8410062
:10445000012816D0012010BD94F83E000128F9D1A2
:1044600084F83E200FE094F83F000128F2D184F850
:104470003F2008E094F840000128EBD184F8402068
:1044800001E084F841200122206801F0F5FC164982
:104490002068164A884201D0904203D1436C43F40D
:1044A000004343642068884213D0B0F1804F10D09D
:1044B0000F4988420DD00F4988420AD00E498842E0
:1044C00007D0904205D00D49884202D00C4988425D
:1044D00004D1816801F00701062903D0016841F089
:1044E00001010160002010BD0000014000040140F6
:1044F0000004004000080040000C00400040014063
:104500000018004000680349884201D1FFF7F0B865
:10451000704700000010004070477047704700006F
:10452000F8B5016804460868CA684B6910F00F0FB7
:104530004FF0000559D003F0010602F4907737439D
:1045400065D0C10705D0D10503D5616C41F00101EB
:104550006164410705D5D90703D0616C41F00201C0
:104560006164810705D5D90703D0616C41F004016E
:104570006164010707D502F02001314303D0616C6B
:1045800041F008016164616C00293AD0800604D5CD
:10459000900602D5204601F06EFD20684069616CEE
:1045A000C0F38010090700D460B3204601F03CFD41
:1045B00020684069400621D52068143050E8001F6B
:1045C00021F0400140E80012002AF5D1E06BA8B1CB
:1045D0006E490165E06BFEF70AFD002811D0E06B23
:1045E000016D01B0BDE8F040084783060FD5930682
:1045F0000DD52046BDE8F84001F03DBD2046FFF74F
:104600008DFFF8BD2046FFF789FF6564F8BD266B76
:104610002023012E7DD1C6067BD5D60679D5086824
:104620004868009048694FF00206400641D5E16BAA
:10463000086840680004000CE8D0A28D8242E5D9E9
:10464000E085C869B0F5807F2DD020680C3050E837
:10465000001F21F4807140E80012002AF5D1206883
:10466000143050E8001F21F0010140E80012002A38
:10467000F5D12068143050E8001F21F0400140E8D7
:104680000012002AF5D184F84230256320680C30EE
:1046900050E8001F21F0100140E80012002AF5D177
:1046A000E06BFEF75BFC6663A08DE18D401A81B282
:1046B0002AE0A08DE18D401A81B2E08D0028A5D0BE
:1046C0000029A3D022680C3252E8000F20F4907029
:1046D00042E80007002FF5D12068143050E8002F81
:1046E00022F0010240E80027002FF5D184F8423083
:1046F000256320680C3050E8002F22F0100240E8BB
:104700000023002BF5D166632046FFF706FFF8BDB6
:10471000FFE705062BD5150629D594F84100212879
:10472000F5D1A068B0F5805F01D12069B0B1206AF1
:10473000411C2162216800784860E08C401E000422
:10474000000CE084E3D12068C16821F08001C160E1
:104750002068C16841F04001C160D8E7206A008844
:10476000C0F308004860206A801C2062E5E740062C
:10477000CDD55006CBD5CA68204622F04002CA608B
:1047800084F8413000F03EFAC1E7000019600008EB
:1047900070B5040004D094F84100002510B106E083
:1047A000012070BD84F84050204600F023F82420FA
:1047B00084F841002068C16821F40051C16020469E
:1047C00001F0BAFC2068016921F490410161206880
:1047D000416921F02A0141612068C16841F400511A
:1047E000C1606564202084F8410084F8420065635C
:1047F000002070BD70B586B0064614216846FCF7EF
:1048000058F823493068884240D122480025016881
:1048100041F400310160006800F4003005901D484B
:104820001038016841F0010101600068694600F03C
:10483000010005900C2000900220CDE90105032025
:104840000390072004901448FEF756FD144C1348BB
:1048500020604FF00060C4E901054014C4E9035032
:1048600080106561C4E90650256220466562FEF746
:10487000A1FC08B1FEF7A9F8F46300220521262067
:10488000A663FEF7CDFF2620FEF7BCFF06B070BD85
:10489000004400404038024000000240886002406E
:1048A000D003002090F84230202B01D00220704726
:1048B00021B11AB10023036301F0C4BC0120704789
:1048C0002DE9F04F00686D49CBB0884277D16C4C30
:1048D000A37920466B490022807B0D2B09D0A37958
:1048E0000A2B06D01F286BD2A2790A54401CA07351
:1048F000B7E00A54934664A16248FCF701F8012529
:1049000020B363A15F48FBF7FBFF08B362A15D48DA
:10491000FBF7F6FFF0B162A15A48FBF7F1FFD8B1FF
:104920000A2262A15748FBF7D8FE002849D0A07B95
:10493000002879D01C2260A16846FBF75EFF68461C
:10494000FBF7ACFE82B2642369466AE0E5706BE077
:10495000657069E0A57067E0A06C03F089FD07460B
:104960008846E06C03F084FD94ED050A05460E468A
:1049700010EE100A03F07CFD94ED060A81468A468B
:1049800010EE100A03F074FDE279238A8DE8030625
:10499000CDE9083204A880E8E001207808B14DA3F1
:1049A00000E04EA34F4A4FF480710AA8FBF750FD78
:1049B0000AA8FBF773FE82B264230AA931E059E02A
:1049C0003CE09FED490A2F488DED120A12AA47A13B
:1049D0000A30FBF745FE012802D0182244A1ABE7BC
:1049E0009DED120AB5EEC00AF1EE10FA23DB10EECF
:1049F000100A454988421EDC84ED060A94ED060A39
:104A000010EE100A03F034FDCDE900013FA2402171
:104A100002A8FBF71DFD02A8FBF740FE82B264234B
:104A200002A9404800F09EF884F80EB020211548F5
:104A3000FBF71DFF15E020223BA17DE7A27320219B
:104A40001048FBF714FF1C223FA16846FBF7D5FE78
:104A50006846FBF723FE82B264236946314800F0C2
:104A600081F84BB00649BDE8F04F0122891D2D4861
:104A7000FFF718BF4BB0BDE8F08F000000440040C6
:104A800000000020B4010020434C454152000000CA
:104A9000535441525400000053544F500000000042
:104AA0004745545F53544154555300005345545F98
:104AB00053504545442000004552524F523A20552C
:104AC0004E4B4E4F574E20434F4D4D414E440D0AD5
:104AD0000000000052554E4E494E470053544F506F
:104AE00050454400B488000800000000256600001E
:104AF0004552524F523A20494E56414C4944205358
:104B0000504545440D0A000000009643534554208B
:104B100053504545443A20252E31662052504D0DC4
:104B20000A000000880300204552524F523A205399
:104B3000504545442052414E474520302D333030BA
:104B40002052504D0D0A00004552524F523A204318
:104B50004F4D4D414E4420544F4F204C4F4E470D2A
:104B60000A0000002DE9F843044690F841009846F9
:104B700016460D46202802D00220BDE8F88385B1F4
:104B80007EB100206064212084F84100FEF7B2FC71
:104B9000A6848146E684A0682027B0F5805F02D015
:104BA00003E00120E9E7206910B12E4600250EE060
:104BB00000260CE08021204601F05FFBA8B9C6B1B9
:104BC00016F8010B21684860E08C401EE084E08C00
:104BD0004B464FF00002CDF800800028EAD14FF09C
:104BE0004001204601F049FB40B184F841700320A8
:104BF000C3E735F8020BC0F30800E3E784F841701F
:104C00000020BAE77047FEE77FB500251F480095F2
:104C1000019502951C490395016001244FF48031F0
:104C20000461C0E90115047680F820501849C0E9F4
:104C30000A150326C661C56080F830404461FDF75F
:104C4000A4FF08B1FDF7C1FECDE900540425694673
:104C50000E480295FDF7F0FE08B1FDF7B6FE022002
:104C6000CDE9004069460948FDF7E6FE08B1FDF7C9
:104C7000ACFECDE9005669460448FDF7DDFE00288C
:104C800001D0FDF7A2FE7FBD00200140D40100202D
:104C90000100000F0F4810B50D4901600621416069
:104CA00000214FF4C0228160C0E903124FF4A0023A
:104CB0004261017641768176C17601774177FEF7D0
:104CC00089F8002803D0BDE81040FDF77EBE10BD76
:104CD000006400407C020020114808B5016841F4DE
:104CE00080010160016801F480010091016841F4D4
:104CF000001101600068002200F4001000900521FE
:104D00001020FEF78DFD1020FEF77CFD002205210E
:104D10003820FEF785FDBDE808403820FEF772BD5B
:104D20003038024010B5124A0021124801F0D8FD77
:104D3000114C0F4A002120652432104801F0D0FDAB
:104D40000B4A6065483200210D4801F0C9FD084A50
:104D5000A0656C3200210B4801F0C2FD044AE065F9
:104D600090320021084801F0BBFD206610BD000014
:104D70006C8600085158000800000020B95900084E
:104D8000F94F00089D510008955100082DE9F041A8
:104D900086B014216846FBF78CFD2E48002401687C
:104DA00041F010010160016801F0100105910168F6
:104DB00041F004010160016801F0040105910168FE
:104DC00041F080010160016801F0800105910168F6
:104DD00041F001010160016801F0010105910168E4
:104DE00041F00201016000681B4F00F002000590D5
:104DF000002230213846FEF777FBDFF860804FF461
:104E00000056002231464046FEF76EFB30200090EF
:104E10000125CDE90154694638460394FEF76CFA42
:104E20000096CDE90154694640460394FEF764FAC2
:104E300007208DE8310069464046FEF75DFA0820FC
:104E4000CDE90004694640460294FEF755FA06B0E3
:104E5000BDE8F081303802400010024000080240F6
:104E60000D4810B50B4901600C49416000214FF419
:104E700080428160C0E9031241618161C1610162C8
:104E8000FEF73EFB002803D0BDE81040FDF79DBDB6
:104E900010BD000000540040A4020020801A06004B
:104EA00010B592B000240F941C2168461094FBF7B3
:104EB00000FD202107A8FBF7FCFC24482249C0E99B
:104EC000001442F2CF01C0E9024180210461C0E92F
:104ED0000541FFF770FA08B1FDF777FD0F940FA9B0
:104EE0001A481094FEF7BCFF08B1FDF76EFD602074
:104EF000CDE90004029403940494059400226946C9
:104F000012480694FFF7F1F908B1FDF75EFD04229F
:104F100069460E48FFF7E9F908B1FDF756FD079419
:104F2000089409944FF400500A94CDE90B4007A966
:104F300006480E94FEF76AFF08B1FDF746FD0348E8
:104F4000FFF7A8F912B010BD00000140F8020020E0
:104F500010B58CB024216846FBF7ABFC0024164842
:104F6000099414490A94C0E900144FF6FF71C0E98E
:104F700002418021046181610320CDE90004012008
:104F8000CDE902040494CDE90540079469460A4836
:104F90000894FFF71BF808B1FDF717FD099409A95C
:104FA00005480A94FEF75CFF002801D0FDF70DFDCF
:104FB0000CB010BD00040040400300200C4810B5A8
:104FC0000A4901604FF4E1314160002181600C2207
:104FD000C160C0E904128161C161FFF7D9FB0028FB
:104FE00003D0BDE81040FDF7F0BC10BD0044004008
:104FF00088030020FEE7FEE72DED068BCAB09FED8B
:105000004E8A4FF000089FED4D9ADFED4D9A012238
:105010004C494D48FFF746FC4C480168496A8346B5
:105020008FB29FED4BAA474DAD1F2879E8B3002002
:105030002871E879FDF7CCFC0446A86C03F018FA57
:10504000CDE90201E86C03F013FACDE9000195ED1A
:10505000050A10EE100A03F00BFA95ED060A8146D8
:105060008A4610EE100A03F003FA2A8ACDE90824D2
:10507000DDE90223CDE90623DDE900238DE80306FF
:10508000CDE90423287808B132A300E033A3354AE0
:105090004FF480710AA8FBF7DBF90AA8FBF7FEFAC8
:1050A00082B264230AA9284800E001E0FFF75AFD14
:1050B000DBF80000406A84B2E01B00B200EE100A88
:1050C0002746B8F1000FB8EEC00A60EE0A0A80EE7B
:1050D000890AC0EE298A2AD09FED230A28EE008A89
:1050E0009FED220A08EE808A85ED058A18EE100AE7
:1050F00003F0BEF905460E4618EE900A03F0B8F923
:105100000A468DE86500234619A24FF480710AA86B
:10511000FBF79EF90AA8FBF7C1FA82B264230AA939
:105120000948FFF71FFD642001F09EFB7BE7B0EE0E
:10513000688A4FF00108D7E70000000000008244B1
:10514000CDCCCC3D06000020880300204003002089
:105150000000704252554E4E494E470053544F5036
:1051600050454400648900083333333F9A99993E8F
:10517000434E543D2575202052504D3D252E32661C
:10518000202046696C74657265643D252E32660D7B
:105190000A000000642001F067FBFBE72DED028BA5
:1051A000A0B09FEDF88A4FF00008F74F45464646FD
:1051B0004446C146C246C346CDF87C80CDF87880CF
:1051C000F87800282AD00020F870F979072910D043
:1051D000F97902290DD0F97903290AD0F97904293E
:1051E00007D0F979052904D0F979062901D0E7A279
:1051F00007E0F979022936D1ED49BA6C8A4232DBEF
:10520000ECA278216846FBF723F96846FBF746FADB
:1052100082B264236946EF48FFF7A4FC97ED060AC3
:10522000B4EE480AF1EE10FA0AD097ED068A14207F
:1052300078824FF0000845464646C146C24644467D
:10524000F879002854D0F879012873D0F879022829
:1052500071D0F87903286FD0F87906286DD0F879E5
:1052600007286BD0B7E2F979032905D1DA49FA6C3E
:105270008A4201DBD9A2C4E7F979062903D0F9797A
:10528000042908D010E0F87138724FF00008454644
:10529000464644461DE097ED0E0AD94A10EE101A14
:1052A000914201DAD7A2ACE7F979052908D197ED47
:1052B0000E0A10EE101AB1F1824F01DDDAA2A0E75A
:1052C000F87138724FF00008454646464446C146DC
:1052D000C2464FF0000B1421CDF878B0798201213D
:1052E0007972DA490A68506309688863D8A288E746
:1052F000AF49B86C884222DB6D1CADB2032D1FD3C1
:105300000220F871D1490025A8460A682C46556349
:1053100009688D63AB46D6A278216846FBF798F8FA
:105320006846FBF7BBF982B264236946A948FFF7D8
:1053300019FC05E006E10DE220E23FE245E200252E
:10534000F87900288ED1A449F86C88421DDB761CC0
:10535000B6B2032E1AD30320F871BC490026B0461A
:105360000A683446566309688E63C8A27821684685
:105370001E96FBF76DF86846FBF790F982B264233E
:1053800069469448FFF7EEFB00E00026F879002814
:10539000D8D197ED0E0A9A4810EE101A814217DA0A
:1053A00009F101001FFA80F94FF0000AB9F1030F6B
:1053B0003DD30420F871A5484FF00009C8460268A3
:1053C0004C46C2F834900068C0F83890B6A21DE090
:1053D00097ED0E0A10EE100AB0F1824F24DD0AF1AB
:1053E00001001FFA80FA4FF00009BAF1030F1ED333
:1053F0000520F87195494FF0000AD0460A685446D6
:10540000C2F834A00968C1F838A0AFA27821684674
:10541000FBF71EF86846FBF741F982B26423694640
:105420006C48FFF79FFB02E04FF00009CA46F8798D
:10543000002887D1787940B1FEF75CF8796A401A84
:10544000B0F5487F01D30020787197ED060AA54991
:1054500010EE100AD7ED050A884238DB7B4A136844
:10546000586B996B884200D8084600EE100AB8EED7
:10547000401ADFED9D1A81EE210A9FED9C1A787982
:1054800020EE010A18BB10EE100A964988421EDB76
:1054900010EE900A9649884219DA641CA4B2052CD1
:1054A00016D30620F8710024A0465C6311688C6353
:1054B00090A278216846FAF7CBFF6846FBF7EEF832
:1054C00082B2642369464348FFF74CFB00E00024A6
:1054D000F8790028ADD1788A18B1788A401E788290
:1054E00079E197ED060A97ED050A387838B397ED1C
:1054F000060A7C4910EE100A884220DB97ED060A66
:10550000D7ED050A824930EE600A10EE100A884293
:1055100015DD08F101001FFA80F8B8F10A0F10D369
:105520000120F87149491E201F900A684FF00008B9
:10553000C2F834800968C1F8388076A22DE14FF0B6
:10554000000848E141480021026851630268916304
:105550001F9A1AB1501E80B21F903CE13A7A032A7A
:105560000ED2387A401C387201207872F9711420FA
:1055700078823B7A6EA278216846FAF769FF10E1DB
:10558000E0E000000000000000000020434C454126
:10559000522049474E4F5245442C204E4F204C4FED
:1055A000434B4544204641554C540D0A0000000031
:1055B00000008C42434C4541522052454A454354D9
:1055C00045442C2054454D5020544F4F20484947C6
:1055D000480D0A00880300209A99193E434C454122
:1055E000522052454A45435445442C20435552527B
:1055F000454E5420544F4F20484947480D0A00005B
:105600000000D040434C4541522052454A45435446
:1056100045442C20564F4C5441474520544F4F2071
:105620004C4F570D0A000000434C45415220524553
:105630004A45435445442C20564F4C54414745203D
:10564000544F4F20484947480D0A0000F8020020F7
:105650004641554C5420434C45415245442C204D25
:105660004F544F522052454144590D0A000000004A
:105670004641554C543A204F5645522054454D50C2
:105680002C2053544F500D0A000000004641554C49
:10569000543A204F56455243555252454E542C20B1
:1056A00053544F500D0A00004641554C543A205572
:1056B0004E44455220564F4C544147452C2053549C
:1056C0004F500D0A000000004641554C543A204FFF
:1056D00056455220564F4C544147452C2053544F69
:1056E000500D0A0000004842003C03460000C8423A
:1056F0000000A0414641554C543A204D4F544F5262
:10570000205354414C4C2C2053544F500D0A000050
:105710000000F0414641554C543A20535045454411
:10572000204552524F522C2053544F500D0A000026
:105730005245434F564552593A20545259202564F8
:105740000D0A00000722FA71026851630068816344
:1057500023A222E02A480021026851630068816385
:105760002849B86C884206DABBF1000F33D14FF0FC
:10577000010B25A211E04FF0000B2CE02049002086
:105780000A685063096888632749F86C884212DA0E
:105790001E9800BB012025A21E9078216846FAF7CA
:1057A00057FE6846FAF77AFF82B2642369462748B3
:1057B000FFF7D8F90FE000201E900CE01048002100
:1057C000026851630068816305E00D4900200A68A2
:1057D000506309688863642001F046F8F0E4000033
:1057E0004641554C543A204C4F434B45442C2043A2
:1057F0004C4541522052455155495245440D0A00ED
:10580000F802002000008C4254454D502052454380
:105810004F56455245442C2053454E4420434C4559
:1058200041520D0A000000009A99193E4355525208
:10583000454E54205245434F56455245442C205323
:10584000454E4420434C4541520D0A008803002038
:105850002DED068BDFED4B9AF0EE698A9FED4A9AAB
:105860009FED4AAADFED4AAA4A4C012210212046A8
:10587000FDF73AFE012220212046FDF735FE0021EA
:105880004548FEF7DBFD04214348FEF7D7FD424EB5
:1058900000253068456330688563404C2582404F61
:1058A000DFF80081E079B8BBA07848B1A570257019
:1058B0003068F0EE698A45633068856325825CE074
:1058C0006078C0B165704FF0010984F80090FDF771
:1058D00011FE606284F8059084F8009094ED060A49
:1058E000B5EEC00AF1EE10FA03D89FED2F0A84ED51
:1058F000060AF0EE698A207870B194ED060AD4EDBC
:10590000050A30EE600A40EE0A8A18EE900AB842A4
:105910000BDDDFED268A0EE0FFE730684563306877
:1059200085632582F0EE698A27E018EE900A4045EB
:1059300001D9DFED1F8AD4ED070AB0EE6A8A1D494E
:1059400000EE808A94ED080A00EE288A18EE100A0C
:10595000884201DDB0EE498AB5EEC08AF1EE10FA58
:1059600001D2B0EE698ABCEEC80A10EE100A80B20D
:10597000208231684D6331688863642000F074FFD1
:1059800090E700000000000000408345CDCCCC3DF6
:105990000000FA4400100240F8020020000000203D
:1059A00000007A4400007AC40000A04200007A445B
:1059B00000007AC4004083452DED088BC8B06022FA
:1059C000A949AA48FDF75CF908B1FCF7FEFF64207D
:1059D00000F04AFF9FEDA68ADFEDA68A9FEDA6AAFA
:1059E0009FEDA69ADFEDA69ADFF8988200219E4CE3
:1059F0000B460A46084600BF00EB4005401C34F841
:105A0000156004EB450531446E88AD88C0B233445F
:105A10002A442028F0D3C1F34F1000EE100AC3F33C
:105A20004F1BC2F34F15F8EE400A9FED970A059001
:105A3000444660EE800A80EE881A00EE90BAF8EED6
:105A4000600A88ED0B1A9FED911A60EE810A80EED4
:105A5000881A00EE905AF8EE600A20EE800AC0EE36
:105A6000080A88ED0C1AC8ED0D0A98ED0C0ADFED56
:105A7000880A20EE200ADFED870A20EE200A84ED56
:105A80000E0AE07A94ED0E0A88B320EE090AD4EDEE
:105A90000F0A00EEA90A84ED0F0A00BF94ED0B0A6D
:105AA000F0EE000A20EE200A84ED0A0A207B94ED35
:105AB0000A0A10B320EE090AD4ED130A00EEA90A6F
:105AC00084ED130A40F6FA7085421BD200EE105A9C
:105AD000B8EE400A60EE280A00EE105AB8EE400A0E
